{"abi":[{"inputs":[{"internalType":"uint256","name":"minimum","type":"uint256"},{"internalType":"address","name":"user","type":"address"}],"name":"createCampaign","outputs":[],"stateMutability":"nonpayable","type":"function"},{"inputs":[{"internalType":"uint256","name":"","type":"uint256"}],"name":"deployedCampaigns","outputs":[{"internalType":"address","name":"","type":"address"}],"stateMutability":"view","type":"function"},{"inputs":[],"name":"getDeployedCampaigns","outputs":[{"internalType":"address[]","name":"","type":"address[]"}],"stateMutability":"view","type":"function"}],"devdoc":{"kind":"dev","methods":{},"version":1},"evm":{"assembly":"    /* \"Campaign.sol\":68:402  contract CampaignFactory {... */\n  mstore(0x40, 0x80)\n  callvalue\n  dup1\n  iszero\n  tag_1\n  jumpi\n  0x00\n  dup1\n  revert\ntag_1:\n  pop\n  dataSize(sub_0)\n  dup1\n  dataOffset(sub_0)\n  0x00\n  codecopy\n  0x00\n  return\nstop\n\nsub_0: assembly {\n        /* \"Campaign.sol\":68:402  contract CampaignFactory {... */\n      mstore(0x40, 0x80)\n      callvalue\n      dup1\n      iszero\n      tag_1\n      jumpi\n      0x00\n      dup1\n      revert\n    tag_1:\n      pop\n      jumpi(tag_2, lt(calldatasize, 0x04))\n      shr(0xe0, calldataload(0x00))\n      dup1\n      0x32ba9cce\n      eq\n      tag_3\n      jumpi\n      dup1\n      0x339d50a5\n      eq\n      tag_4\n      jumpi\n      dup1\n      0x4acb9d4f\n      eq\n      tag_5\n      jumpi\n    tag_2:\n      0x00\n      dup1\n      revert\n        /* \"Campaign.sol\":141:279  function createCampaign(uint minimum, address user) public {... */\n    tag_3:\n      tag_6\n      0x04\n      dup1\n      calldatasize\n      sub\n      dup2\n      add\n      swap1\n      tag_7\n      swap2\n      swap1\n      tag_8\n      jump\t// in\n    tag_7:\n      tag_9\n      jump\t// in\n    tag_6:\n      stop\n        /* \"Campaign.sol\":100:134  address[] public deployedCampaigns */\n    tag_4:\n      tag_10\n      0x04\n      dup1\n      calldatasize\n      sub\n      dup2\n      add\n      swap1\n      tag_11\n      swap2\n      swap1\n      tag_12\n      jump\t// in\n    tag_11:\n      tag_13\n      jump\t// in\n    tag_10:\n      mload(0x40)\n      tag_14\n      swap2\n      swap1\n      tag_15\n      jump\t// in\n    tag_14:\n      mload(0x40)\n      dup1\n      swap2\n      sub\n      swap1\n      return\n        /* \"Campaign.sol\":285:399  function getDeployedCampaigns() public view returns (address[] memory) {... */\n    tag_5:\n      tag_16\n      tag_17\n      jump\t// in\n    tag_16:\n      mload(0x40)\n      tag_18\n      swap2\n      swap1\n      tag_19\n      jump\t// in\n    tag_18:\n      mload(0x40)\n      dup1\n      swap2\n      sub\n      swap1\n      return\n        /* \"Campaign.sol\":141:279  function createCampaign(uint minimum, address user) public {... */\n    tag_9:\n        /* \"Campaign.sol\":211:228  deployedCampaigns */\n      0x00\n        /* \"Campaign.sol\":255:262  minimum */\n      dup3\n        /* \"Campaign.sol\":264:268  user */\n      dup3\n        /* \"Campaign.sol\":242:269  new Campaign(minimum, user) */\n      mload(0x40)\n      tag_21\n      swap1\n      tag_22\n      jump\t// in\n    tag_21:\n      tag_23\n      swap3\n      swap2\n      swap1\n      tag_24\n      jump\t// in\n    tag_23:\n      mload(0x40)\n      dup1\n      swap2\n      sub\n      swap1\n      0x00\n      create\n      dup1\n      iszero\n      dup1\n      iszero\n      tag_25\n      jumpi\n      returndatasize\n      0x00\n      dup1\n      returndatacopy\n      revert(0x00, returndatasize)\n    tag_25:\n      pop\n        /* \"Campaign.sol\":211:271  deployedCampaigns.push(address(new Campaign(minimum, user))) */\n      swap1\n      dup1\n      0x01\n      dup2\n      sload\n      add\n      dup1\n      dup3\n      sstore\n      dup1\n      swap2\n      pop\n      pop\n      0x01\n      swap1\n      sub\n      swap1\n      0x00\n      mstore\n      keccak256(0x00, 0x20)\n      add\n      0x00\n      swap1\n      swap2\n      swap1\n      swap2\n      swap1\n      swap2\n      0x0100\n      exp\n      dup2\n      sload\n      dup2\n      0xffffffffffffffffffffffffffffffffffffffff\n      mul\n      not\n      and\n      swap1\n      dup4\n      0xffffffffffffffffffffffffffffffffffffffff\n      and\n      mul\n      or\n      swap1\n      sstore\n      pop\n        /* \"Campaign.sol\":141:279  function createCampaign(uint minimum, address user) public {... */\n      pop\n      pop\n      jump\t// out\n        /* \"Campaign.sol\":100:134  address[] public deployedCampaigns */\n    tag_13:\n      0x00\n      dup2\n      dup2\n      sload\n      dup2\n      lt\n      tag_27\n      jumpi\n      0x00\n      dup1\n      revert\n    tag_27:\n      swap1\n      0x00\n      mstore\n      keccak256(0x00, 0x20)\n      add\n      0x00\n      swap2\n      pop\n      sload\n      swap1\n      0x0100\n      exp\n      swap1\n      div\n      0xffffffffffffffffffffffffffffffffffffffff\n      and\n      dup2\n      jump\t// out\n        /* \"Campaign.sol\":285:399  function getDeployedCampaigns() public view returns (address[] memory) {... */\n    tag_17:\n        /* \"Campaign.sol\":338:354  address[] memory */\n      0x60\n        /* \"Campaign.sol\":374:391  deployedCampaigns */\n      0x00\n        /* \"Campaign.sol\":367:391  return deployedCampaigns */\n      dup1\n      sload\n      dup1\n      0x20\n      mul\n      0x20\n      add\n      mload(0x40)\n      swap1\n      dup2\n      add\n      0x40\n      mstore\n      dup1\n      swap3\n      swap2\n      swap1\n      dup2\n      dup2\n      mstore\n      0x20\n      add\n      dup3\n      dup1\n      sload\n      dup1\n      iszero\n      tag_30\n      jumpi\n      0x20\n      mul\n      dup3\n      add\n      swap2\n      swap1\n      0x00\n      mstore\n      keccak256(0x00, 0x20)\n      swap1\n    tag_31:\n      dup2\n      0x00\n      swap1\n      sload\n      swap1\n      0x0100\n      exp\n      swap1\n      div\n      0xffffffffffffffffffffffffffffffffffffffff\n      and\n      0xffffffffffffffffffffffffffffffffffffffff\n      and\n      dup2\n      mstore\n      0x20\n      add\n      swap1\n      0x01\n      add\n      swap1\n      dup1\n      dup4\n      gt\n      tag_31\n      jumpi\n    tag_30:\n      pop\n      pop\n      pop\n      pop\n      pop\n      swap1\n      pop\n        /* \"Campaign.sol\":285:399  function getDeployedCampaigns() public view returns (address[] memory) {... */\n      swap1\n      jump\t// out\n    tag_22:\n      dataSize(sub_0)\n      dup1\n      dataOffset(sub_0)\n      dup4\n      codecopy\n      add\n      swap1\n      jump\t// out\n        /* \"#utility.yul\":88:205   */\n    tag_33:\n        /* \"#utility.yul\":197:198   */\n      0x00\n        /* \"#utility.yul\":194:195   */\n      dup1\n        /* \"#utility.yul\":187:199   */\n      revert\n        /* \"#utility.yul\":334:411   */\n    tag_35:\n        /* \"#utility.yul\":371:378   */\n      0x00\n        /* \"#utility.yul\":400:405   */\n      dup2\n        /* \"#utility.yul\":389:405   */\n      swap1\n      pop\n        /* \"#utility.yul\":334:411   */\n      swap2\n      swap1\n      pop\n      jump\t// out\n        /* \"#utility.yul\":417:539   */\n    tag_36:\n        /* \"#utility.yul\":490:514   */\n      tag_57\n        /* \"#utility.yul\":508:513   */\n      dup2\n        /* \"#utility.yul\":490:514   */\n      tag_35\n      jump\t// in\n    tag_57:\n        /* \"#utility.yul\":483:488   */\n      dup2\n        /* \"#utility.yul\":480:515   */\n      eq\n        /* \"#utility.yul\":470:533   */\n      tag_58\n      jumpi\n        /* \"#utility.yul\":529:530   */\n      0x00\n        /* \"#utility.yul\":526:527   */\n      dup1\n        /* \"#utility.yul\":519:531   */\n      revert\n        /* \"#utility.yul\":470:533   */\n    tag_58:\n        /* \"#utility.yul\":417:539   */\n      pop\n      jump\t// out\n        /* \"#utility.yul\":545:684   */\n    tag_37:\n        /* \"#utility.yul\":591:596   */\n      0x00\n        /* \"#utility.yul\":629:635   */\n      dup2\n        /* \"#utility.yul\":616:636   */\n      calldataload\n        /* \"#utility.yul\":607:636   */\n      swap1\n      pop\n        /* \"#utility.yul\":645:678   */\n      tag_60\n        /* \"#utility.yul\":672:677   */\n      dup2\n        /* \"#utility.yul\":645:678   */\n      tag_36\n      jump\t// in\n    tag_60:\n        /* \"#utility.yul\":545:684   */\n      swap3\n      swap2\n      pop\n      pop\n      jump\t// out\n        /* \"#utility.yul\":690:816   */\n    tag_38:\n        /* \"#utility.yul\":727:734   */\n      0x00\n        /* \"#utility.yul\":767:809   */\n      0xffffffffffffffffffffffffffffffffffffffff\n        /* \"#utility.yul\":760:765   */\n      dup3\n        /* \"#utility.yul\":756:810   */\n      and\n        /* \"#utility.yul\":745:810   */\n      swap1\n      pop\n        /* \"#utility.yul\":690:816   */\n      swap2\n      swap1\n      pop\n      jump\t// out\n        /* \"#utility.yul\":822:918   */\n    tag_39:\n        /* \"#utility.yul\":859:866   */\n      0x00\n        /* \"#utility.yul\":888:912   */\n      tag_63\n        /* \"#utility.yul\":906:911   */\n      dup3\n        /* \"#utility.yul\":888:912   */\n      tag_38\n      jump\t// in\n    tag_63:\n        /* \"#utility.yul\":877:912   */\n      swap1\n      pop\n        /* \"#utility.yul\":822:918   */\n      swap2\n      swap1\n      pop\n      jump\t// out\n        /* \"#utility.yul\":924:1046   */\n    tag_40:\n        /* \"#utility.yul\":997:1021   */\n      tag_65\n        /* \"#utility.yul\":1015:1020   */\n      dup2\n        /* \"#utility.yul\":997:1021   */\n      tag_39\n      jump\t// in\n    tag_65:\n        /* \"#utility.yul\":990:995   */\n      dup2\n        /* \"#utility.yul\":987:1022   */\n      eq\n        /* \"#utility.yul\":977:1040   */\n      tag_66\n      jumpi\n        /* \"#utility.yul\":1036:1037   */\n      0x00\n        /* \"#utility.yul\":1033:1034   */\n      dup1\n        /* \"#utility.yul\":1026:1038   */\n      revert\n        /* \"#utility.yul\":977:1040   */\n    tag_66:\n        /* \"#utility.yul\":924:1046   */\n      pop\n      jump\t// out\n        /* \"#utility.yul\":1052:1191   */\n    tag_41:\n        /* \"#utility.yul\":1098:1103   */\n      0x00\n        /* \"#utility.yul\":1136:1142   */\n      dup2\n        /* \"#utility.yul\":1123:1143   */\n      calldataload\n        /* \"#utility.yul\":1114:1143   */\n      swap1\n      pop\n        /* \"#utility.yul\":1152:1185   */\n      tag_68\n        /* \"#utility.yul\":1179:1184   */\n      dup2\n        /* \"#utility.yul\":1152:1185   */\n      tag_40\n      jump\t// in\n    tag_68:\n        /* \"#utility.yul\":1052:1191   */\n      swap3\n      swap2\n      pop\n      pop\n      jump\t// out\n        /* \"#utility.yul\":1197:1671   */\n    tag_8:\n        /* \"#utility.yul\":1265:1271   */\n      0x00\n        /* \"#utility.yul\":1273:1279   */\n      dup1\n        /* \"#utility.yul\":1322:1324   */\n      0x40\n        /* \"#utility.yul\":1310:1319   */\n      dup4\n        /* \"#utility.yul\":1301:1308   */\n      dup6\n        /* \"#utility.yul\":1297:1320   */\n      sub\n        /* \"#utility.yul\":1293:1325   */\n      slt\n        /* \"#utility.yul\":1290:1409   */\n      iszero\n      tag_70\n      jumpi\n        /* \"#utility.yul\":1328:1407   */\n      tag_71\n      tag_33\n      jump\t// in\n    tag_71:\n        /* \"#utility.yul\":1290:1409   */\n    tag_70:\n        /* \"#utility.yul\":1448:1449   */\n      0x00\n        /* \"#utility.yul\":1473:1526   */\n      tag_72\n        /* \"#utility.yul\":1518:1525   */\n      dup6\n        /* \"#utility.yul\":1509:1515   */\n      dup3\n        /* \"#utility.yul\":1498:1507   */\n      dup7\n        /* \"#utility.yul\":1494:1516   */\n      add\n        /* \"#utility.yul\":1473:1526   */\n      tag_37\n      jump\t// in\n    tag_72:\n        /* \"#utility.yul\":1463:1526   */\n      swap3\n      pop\n        /* \"#utility.yul\":1419:1536   */\n      pop\n        /* \"#utility.yul\":1575:1577   */\n      0x20\n        /* \"#utility.yul\":1601:1654   */\n      tag_73\n        /* \"#utility.yul\":1646:1653   */\n      dup6\n        /* \"#utility.yul\":1637:1643   */\n      dup3\n        /* \"#utility.yul\":1626:1635   */\n      dup7\n        /* \"#utility.yul\":1622:1644   */\n      add\n        /* \"#utility.yul\":1601:1654   */\n      tag_41\n      jump\t// in\n    tag_73:\n        /* \"#utility.yul\":1591:1654   */\n      swap2\n      pop\n        /* \"#utility.yul\":1546:1664   */\n      pop\n        /* \"#utility.yul\":1197:1671   */\n      swap3\n      pop\n      swap3\n      swap1\n      pop\n      jump\t// out\n        /* \"#utility.yul\":1677:2006   */\n    tag_12:\n        /* \"#utility.yul\":1736:1742   */\n      0x00\n        /* \"#utility.yul\":1785:1787   */\n      0x20\n        /* \"#utility.yul\":1773:1782   */\n      dup3\n        /* \"#utility.yul\":1764:1771   */\n      dup5\n        /* \"#utility.yul\":1760:1783   */\n      sub\n        /* \"#utility.yul\":1756:1788   */\n      slt\n        /* \"#utility.yul\":1753:1872   */\n      iszero\n      tag_75\n      jumpi\n        /* \"#utility.yul\":1791:1870   */\n      tag_76\n      tag_33\n      jump\t// in\n    tag_76:\n        /* \"#utility.yul\":1753:1872   */\n    tag_75:\n        /* \"#utility.yul\":1911:1912   */\n      0x00\n        /* \"#utility.yul\":1936:1989   */\n      tag_77\n        /* \"#utility.yul\":1981:1988   */\n      dup5\n        /* \"#utility.yul\":1972:1978   */\n      dup3\n        /* \"#utility.yul\":1961:1970   */\n      dup6\n        /* \"#utility.yul\":1957:1979   */\n      add\n        /* \"#utility.yul\":1936:1989   */\n      tag_37\n      jump\t// in\n    tag_77:\n        /* \"#utility.yul\":1926:1989   */\n      swap2\n      pop\n        /* \"#utility.yul\":1882:1999   */\n      pop\n        /* \"#utility.yul\":1677:2006   */\n      swap3\n      swap2\n      pop\n      pop\n      jump\t// out\n        /* \"#utility.yul\":2012:2130   */\n    tag_42:\n        /* \"#utility.yul\":2099:2123   */\n      tag_79\n        /* \"#utility.yul\":2117:2122   */\n      dup2\n        /* \"#utility.yul\":2099:2123   */\n      tag_39\n      jump\t// in\n    tag_79:\n        /* \"#utility.yul\":2094:2097   */\n      dup3\n        /* \"#utility.yul\":2087:2124   */\n      mstore\n        /* \"#utility.yul\":2012:2130   */\n      pop\n      pop\n      jump\t// out\n        /* \"#utility.yul\":2136:2358   */\n    tag_15:\n        /* \"#utility.yul\":2229:2233   */\n      0x00\n        /* \"#utility.yul\":2267:2269   */\n      0x20\n        /* \"#utility.yul\":2256:2265   */\n      dup3\n        /* \"#utility.yul\":2252:2270   */\n      add\n        /* \"#utility.yul\":2244:2270   */\n      swap1\n      pop\n        /* \"#utility.yul\":2280:2351   */\n      tag_81\n        /* \"#utility.yul\":2348:2349   */\n      0x00\n        /* \"#utility.yul\":2337:2346   */\n      dup4\n        /* \"#utility.yul\":2333:2350   */\n      add\n        /* \"#utility.yul\":2324:2330   */\n      dup5\n        /* \"#utility.yul\":2280:2351   */\n      tag_42\n      jump\t// in\n    tag_81:\n        /* \"#utility.yul\":2136:2358   */\n      swap3\n      swap2\n      pop\n      pop\n      jump\t// out\n        /* \"#utility.yul\":2364:2478   */\n    tag_43:\n        /* \"#utility.yul\":2431:2437   */\n      0x00\n        /* \"#utility.yul\":2465:2470   */\n      dup2\n        /* \"#utility.yul\":2459:2471   */\n      mload\n        /* \"#utility.yul\":2449:2471   */\n      swap1\n      pop\n        /* \"#utility.yul\":2364:2478   */\n      swap2\n      swap1\n      pop\n      jump\t// out\n        /* \"#utility.yul\":2484:2668   */\n    tag_44:\n        /* \"#utility.yul\":2583:2594   */\n      0x00\n        /* \"#utility.yul\":2617:2623   */\n      dup3\n        /* \"#utility.yul\":2612:2615   */\n      dup3\n        /* \"#utility.yul\":2605:2624   */\n      mstore\n        /* \"#utility.yul\":2657:2661   */\n      0x20\n        /* \"#utility.yul\":2652:2655   */\n      dup3\n        /* \"#utility.yul\":2648:2662   */\n      add\n        /* \"#utility.yul\":2633:2662   */\n      swap1\n      pop\n        /* \"#utility.yul\":2484:2668   */\n      swap3\n      swap2\n      pop\n      pop\n      jump\t// out\n        /* \"#utility.yul\":2674:2806   */\n    tag_45:\n        /* \"#utility.yul\":2741:2745   */\n      0x00\n        /* \"#utility.yul\":2764:2767   */\n      dup2\n        /* \"#utility.yul\":2756:2767   */\n      swap1\n      pop\n        /* \"#utility.yul\":2794:2798   */\n      0x20\n        /* \"#utility.yul\":2789:2792   */\n      dup3\n        /* \"#utility.yul\":2785:2799   */\n      add\n        /* \"#utility.yul\":2777:2799   */\n      swap1\n      pop\n        /* \"#utility.yul\":2674:2806   */\n      swap2\n      swap1\n      pop\n      jump\t// out\n        /* \"#utility.yul\":2812:2920   */\n    tag_46:\n        /* \"#utility.yul\":2889:2913   */\n      tag_86\n        /* \"#utility.yul\":2907:2912   */\n      dup2\n        /* \"#utility.yul\":2889:2913   */\n      tag_39\n      jump\t// in\n    tag_86:\n        /* \"#utility.yul\":2884:2887   */\n      dup3\n        /* \"#utility.yul\":2877:2914   */\n      mstore\n        /* \"#utility.yul\":2812:2920   */\n      pop\n      pop\n      jump\t// out\n        /* \"#utility.yul\":2926:3105   */\n    tag_47:\n        /* \"#utility.yul\":2995:3005   */\n      0x00\n        /* \"#utility.yul\":3016:3062   */\n      tag_88\n        /* \"#utility.yul\":3058:3061   */\n      dup4\n        /* \"#utility.yul\":3050:3056   */\n      dup4\n        /* \"#utility.yul\":3016:3062   */\n      tag_46\n      jump\t// in\n    tag_88:\n        /* \"#utility.yul\":3094:3098   */\n      0x20\n        /* \"#utility.yul\":3089:3092   */\n      dup4\n        /* \"#utility.yul\":3085:3099   */\n      add\n        /* \"#utility.yul\":3071:3099   */\n      swap1\n      pop\n        /* \"#utility.yul\":2926:3105   */\n      swap3\n      swap2\n      pop\n      pop\n      jump\t// out\n        /* \"#utility.yul\":3111:3224   */\n    tag_48:\n        /* \"#utility.yul\":3181:3185   */\n      0x00\n        /* \"#utility.yul\":3213:3217   */\n      0x20\n        /* \"#utility.yul\":3208:3211   */\n      dup3\n        /* \"#utility.yul\":3204:3218   */\n      add\n        /* \"#utility.yul\":3196:3218   */\n      swap1\n      pop\n        /* \"#utility.yul\":3111:3224   */\n      swap2\n      swap1\n      pop\n      jump\t// out\n        /* \"#utility.yul\":3260:3992   */\n    tag_49:\n        /* \"#utility.yul\":3379:3382   */\n      0x00\n        /* \"#utility.yul\":3408:3462   */\n      tag_91\n        /* \"#utility.yul\":3456:3461   */\n      dup3\n        /* \"#utility.yul\":3408:3462   */\n      tag_43\n      jump\t// in\n    tag_91:\n        /* \"#utility.yul\":3478:3564   */\n      tag_92\n        /* \"#utility.yul\":3557:3563   */\n      dup2\n        /* \"#utility.yul\":3552:3555   */\n      dup6\n        /* \"#utility.yul\":3478:3564   */\n      tag_44\n      jump\t// in\n    tag_92:\n        /* \"#utility.yul\":3471:3564   */\n      swap4\n      pop\n        /* \"#utility.yul\":3588:3644   */\n      tag_93\n        /* \"#utility.yul\":3638:3643   */\n      dup4\n        /* \"#utility.yul\":3588:3644   */\n      tag_45\n      jump\t// in\n    tag_93:\n        /* \"#utility.yul\":3667:3674   */\n      dup1\n        /* \"#utility.yul\":3698:3699   */\n      0x00\n        /* \"#utility.yul\":3683:3967   */\n    tag_94:\n        /* \"#utility.yul\":3708:3714   */\n      dup4\n        /* \"#utility.yul\":3705:3706   */\n      dup2\n        /* \"#utility.yul\":3702:3715   */\n      lt\n        /* \"#utility.yul\":3683:3967   */\n      iszero\n      tag_96\n      jumpi\n        /* \"#utility.yul\":3784:3790   */\n      dup2\n        /* \"#utility.yul\":3778:3791   */\n      mload\n        /* \"#utility.yul\":3811:3874   */\n      tag_97\n        /* \"#utility.yul\":3870:3873   */\n      dup9\n        /* \"#utility.yul\":3855:3868   */\n      dup3\n        /* \"#utility.yul\":3811:3874   */\n      tag_47\n      jump\t// in\n    tag_97:\n        /* \"#utility.yul\":3804:3874   */\n      swap8\n      pop\n        /* \"#utility.yul\":3897:3957   */\n      tag_98\n        /* \"#utility.yul\":3950:3956   */\n      dup4\n        /* \"#utility.yul\":3897:3957   */\n      tag_48\n      jump\t// in\n    tag_98:\n        /* \"#utility.yul\":3887:3957   */\n      swap3\n      pop\n        /* \"#utility.yul\":3743:3967   */\n      pop\n        /* \"#utility.yul\":3730:3731   */\n      0x01\n        /* \"#utility.yul\":3727:3728   */\n      dup2\n        /* \"#utility.yul\":3723:3732   */\n      add\n        /* \"#utility.yul\":3718:3732   */\n      swap1\n      pop\n        /* \"#utility.yul\":3683:3967   */\n      jump(tag_94)\n    tag_96:\n        /* \"#utility.yul\":3687:3701   */\n      pop\n        /* \"#utility.yul\":3983:3986   */\n      dup6\n        /* \"#utility.yul\":3976:3986   */\n      swap4\n      pop\n        /* \"#utility.yul\":3384:3992   */\n      pop\n      pop\n      pop\n        /* \"#utility.yul\":3260:3992   */\n      swap3\n      swap2\n      pop\n      pop\n      jump\t// out\n        /* \"#utility.yul\":3998:4371   */\n    tag_19:\n        /* \"#utility.yul\":4141:4145   */\n      0x00\n        /* \"#utility.yul\":4179:4181   */\n      0x20\n        /* \"#utility.yul\":4168:4177   */\n      dup3\n        /* \"#utility.yul\":4164:4182   */\n      add\n        /* \"#utility.yul\":4156:4182   */\n      swap1\n      pop\n        /* \"#utility.yul\":4228:4237   */\n      dup2\n        /* \"#utility.yul\":4222:4226   */\n      dup2\n        /* \"#utility.yul\":4218:4238   */\n      sub\n        /* \"#utility.yul\":4214:4215   */\n      0x00\n        /* \"#utility.yul\":4203:4212   */\n      dup4\n        /* \"#utility.yul\":4199:4216   */\n      add\n        /* \"#utility.yul\":4192:4239   */\n      mstore\n        /* \"#utility.yul\":4256:4364   */\n      tag_100\n        /* \"#utility.yul\":4359:4363   */\n      dup2\n        /* \"#utility.yul\":4350:4356   */\n      dup5\n        /* \"#utility.yul\":4256:4364   */\n      tag_49\n      jump\t// in\n    tag_100:\n        /* \"#utility.yul\":4248:4364   */\n      swap1\n      pop\n        /* \"#utility.yul\":3998:4371   */\n      swap3\n      swap2\n      pop\n      pop\n      jump\t// out\n        /* \"#utility.yul\":4377:4495   */\n    tag_50:\n        /* \"#utility.yul\":4464:4488   */\n      tag_102\n        /* \"#utility.yul\":4482:4487   */\n      dup2\n        /* \"#utility.yul\":4464:4488   */\n      tag_35\n      jump\t// in\n    tag_102:\n        /* \"#utility.yul\":4459:4462   */\n      dup3\n        /* \"#utility.yul\":4452:4489   */\n      mstore\n        /* \"#utility.yul\":4377:4495   */\n      pop\n      pop\n      jump\t// out\n        /* \"#utility.yul\":4501:4833   */\n    tag_24:\n        /* \"#utility.yul\":4622:4626   */\n      0x00\n        /* \"#utility.yul\":4660:4662   */\n      0x40\n        /* \"#utility.yul\":4649:4658   */\n      dup3\n        /* \"#utility.yul\":4645:4663   */\n      add\n        /* \"#utility.yul\":4637:4663   */\n      swap1\n      pop\n        /* \"#utility.yul\":4673:4744   */\n      tag_104\n        /* \"#utility.yul\":4741:4742   */\n      0x00\n        /* \"#utility.yul\":4730:4739   */\n      dup4\n        /* \"#utility.yul\":4726:4743   */\n      add\n        /* \"#utility.yul\":4717:4723   */\n      dup6\n        /* \"#utility.yul\":4673:4744   */\n      tag_50\n      jump\t// in\n    tag_104:\n        /* \"#utility.yul\":4754:4826   */\n      tag_105\n        /* \"#utility.yul\":4822:4824   */\n      0x20\n        /* \"#utility.yul\":4811:4820   */\n      dup4\n        /* \"#utility.yul\":4807:4825   */\n      add\n        /* \"#utility.yul\":4798:4804   */\n      dup5\n        /* \"#utility.yul\":4754:4826   */\n      tag_42\n      jump\t// in\n    tag_105:\n        /* \"#utility.yul\":4501:4833   */\n      swap4\n      swap3\n      pop\n      pop\n      pop\n      jump\t// out\n    stop\n\n    sub_0: assembly {\n            /* \"Campaign.sol\":406:2764  contract Campaign {... */\n          mstore(0x40, 0x80)\n            /* \"Campaign.sol\":947:1060  constructor(uint minimum, address user) {... */\n          callvalue\n          dup1\n          iszero\n          tag_1\n          jumpi\n          0x00\n          dup1\n          revert\n        tag_1:\n          pop\n          mload(0x40)\n          sub(codesize, bytecodeSize)\n          dup1\n          bytecodeSize\n          dup4\n          codecopy\n          dup2\n          dup2\n          add\n          0x40\n          mstore\n          dup2\n          add\n          swap1\n          tag_2\n          swap2\n          swap1\n          tag_3\n          jump\t// in\n        tag_2:\n            /* \"Campaign.sol\":1020:1027  minimum */\n          dup2\n            /* \"Campaign.sol\":998:1017  minimumContribution */\n          0x02\n            /* \"Campaign.sol\":998:1027  minimumContribution = minimum */\n          dup2\n          swap1\n          sstore\n          pop\n            /* \"Campaign.sol\":1048:1052  user */\n          dup1\n            /* \"Campaign.sol\":1038:1045  manager */\n          0x01\n          0x00\n            /* \"Campaign.sol\":1038:1052  manager = user */\n          0x0100\n          exp\n          dup2\n          sload\n          dup2\n          0xffffffffffffffffffffffffffffffffffffffff\n          mul\n          not\n          and\n          swap1\n          dup4\n          0xffffffffffffffffffffffffffffffffffffffff\n          and\n          mul\n          or\n          swap1\n          sstore\n          pop\n            /* \"Campaign.sol\":947:1060  constructor(uint minimum, address user) {... */\n          pop\n          pop\n            /* \"Campaign.sol\":406:2764  contract Campaign {... */\n          jump(tag_6)\n            /* \"#utility.yul\":88:205   */\n        tag_8:\n            /* \"#utility.yul\":197:198   */\n          0x00\n            /* \"#utility.yul\":194:195   */\n          dup1\n            /* \"#utility.yul\":187:199   */\n          revert\n            /* \"#utility.yul\":334:411   */\n        tag_10:\n            /* \"#utility.yul\":371:378   */\n          0x00\n            /* \"#utility.yul\":400:405   */\n          dup2\n            /* \"#utility.yul\":389:405   */\n          swap1\n          pop\n            /* \"#utility.yul\":334:411   */\n          swap2\n          swap1\n          pop\n          jump\t// out\n            /* \"#utility.yul\":417:539   */\n        tag_11:\n            /* \"#utility.yul\":490:514   */\n          tag_23\n            /* \"#utility.yul\":508:513   */\n          dup2\n            /* \"#utility.yul\":490:514   */\n          tag_10\n          jump\t// in\n        tag_23:\n            /* \"#utility.yul\":483:488   */\n          dup2\n            /* \"#utility.yul\":480:515   */\n          eq\n            /* \"#utility.yul\":470:533   */\n          tag_24\n          jumpi\n            /* \"#utility.yul\":529:530   */\n          0x00\n            /* \"#utility.yul\":526:527   */\n          dup1\n            /* \"#utility.yul\":519:531   */\n          revert\n            /* \"#utility.yul\":470:533   */\n        tag_24:\n            /* \"#utility.yul\":417:539   */\n          pop\n          jump\t// out\n            /* \"#utility.yul\":545:688   */\n        tag_12:\n            /* \"#utility.yul\":602:607   */\n          0x00\n            /* \"#utility.yul\":633:639   */\n          dup2\n            /* \"#utility.yul\":627:640   */\n          mload\n            /* \"#utility.yul\":618:640   */\n          swap1\n          pop\n            /* \"#utility.yul\":649:682   */\n          tag_26\n            /* \"#utility.yul\":676:681   */\n          dup2\n            /* \"#utility.yul\":649:682   */\n          tag_11\n          jump\t// in\n        tag_26:\n            /* \"#utility.yul\":545:688   */\n          swap3\n          swap2\n          pop\n          pop\n          jump\t// out\n            /* \"#utility.yul\":694:820   */\n        tag_13:\n            /* \"#utility.yul\":731:738   */\n          0x00\n            /* \"#utility.yul\":771:813   */\n          0xffffffffffffffffffffffffffffffffffffffff\n            /* \"#utility.yul\":764:769   */\n          dup3\n            /* \"#utility.yul\":760:814   */\n          and\n            /* \"#utility.yul\":749:814   */\n          swap1\n          pop\n            /* \"#utility.yul\":694:820   */\n          swap2\n          swap1\n          pop\n          jump\t// out\n            /* \"#utility.yul\":826:922   */\n        tag_14:\n            /* \"#utility.yul\":863:870   */\n          0x00\n            /* \"#utility.yul\":892:916   */\n          tag_29\n            /* \"#utility.yul\":910:915   */\n          dup3\n            /* \"#utility.yul\":892:916   */\n          tag_13\n          jump\t// in\n        tag_29:\n            /* \"#utility.yul\":881:916   */\n          swap1\n          pop\n            /* \"#utility.yul\":826:922   */\n          swap2\n          swap1\n          pop\n          jump\t// out\n            /* \"#utility.yul\":928:1050   */\n        tag_15:\n            /* \"#utility.yul\":1001:1025   */\n          tag_31\n            /* \"#utility.yul\":1019:1024   */\n          dup2\n            /* \"#utility.yul\":1001:1025   */\n          tag_14\n          jump\t// in\n        tag_31:\n            /* \"#utility.yul\":994:999   */\n          dup2\n            /* \"#utility.yul\":991:1026   */\n          eq\n            /* \"#utility.yul\":981:1044   */\n          tag_32\n          jumpi\n            /* \"#utility.yul\":1040:1041   */\n          0x00\n            /* \"#utility.yul\":1037:1038   */\n          dup1\n            /* \"#utility.yul\":1030:1042   */\n          revert\n            /* \"#utility.yul\":981:1044   */\n        tag_32:\n            /* \"#utility.yul\":928:1050   */\n          pop\n          jump\t// out\n            /* \"#utility.yul\":1056:1199   */\n        tag_16:\n            /* \"#utility.yul\":1113:1118   */\n          0x00\n            /* \"#utility.yul\":1144:1150   */\n          dup2\n            /* \"#utility.yul\":1138:1151   */\n          mload\n            /* \"#utility.yul\":1129:1151   */\n          swap1\n          pop\n            /* \"#utility.yul\":1160:1193   */\n          tag_34\n            /* \"#utility.yul\":1187:1192   */\n          dup2\n            /* \"#utility.yul\":1160:1193   */\n          tag_15\n          jump\t// in\n        tag_34:\n            /* \"#utility.yul\":1056:1199   */\n          swap3\n          swap2\n          pop\n          pop\n          jump\t// out\n            /* \"#utility.yul\":1205:1712   */\n        tag_3:\n            /* \"#utility.yul\":1284:1290   */\n          0x00\n            /* \"#utility.yul\":1292:1298   */\n          dup1\n            /* \"#utility.yul\":1341:1343   */\n          0x40\n            /* \"#utility.yul\":1329:1338   */\n          dup4\n            /* \"#utility.yul\":1320:1327   */\n          dup6\n            /* \"#utility.yul\":1316:1339   */\n          sub\n            /* \"#utility.yul\":1312:1344   */\n          slt\n            /* \"#utility.yul\":1309:1428   */\n          iszero\n          tag_36\n          jumpi\n            /* \"#utility.yul\":1347:1426   */\n          tag_37\n          tag_8\n          jump\t// in\n        tag_37:\n            /* \"#utility.yul\":1309:1428   */\n        tag_36:\n            /* \"#utility.yul\":1467:1468   */\n          0x00\n            /* \"#utility.yul\":1492:1556   */\n          tag_38\n            /* \"#utility.yul\":1548:1555   */\n          dup6\n            /* \"#utility.yul\":1539:1545   */\n          dup3\n            /* \"#utility.yul\":1528:1537   */\n          dup7\n            /* \"#utility.yul\":1524:1546   */\n          add\n            /* \"#utility.yul\":1492:1556   */\n          tag_12\n          jump\t// in\n        tag_38:\n            /* \"#utility.yul\":1482:1556   */\n          swap3\n          pop\n            /* \"#utility.yul\":1438:1566   */\n          pop\n            /* \"#utility.yul\":1605:1607   */\n          0x20\n            /* \"#utility.yul\":1631:1695   */\n          tag_39\n            /* \"#utility.yul\":1687:1694   */\n          dup6\n            /* \"#utility.yul\":1678:1684   */\n          dup3\n            /* \"#utility.yul\":1667:1676   */\n          dup7\n            /* \"#utility.yul\":1663:1685   */\n          add\n            /* \"#utility.yul\":1631:1695   */\n          tag_16\n          jump\t// in\n        tag_39:\n            /* \"#utility.yul\":1621:1695   */\n          swap2\n          pop\n            /* \"#utility.yul\":1576:1705   */\n          pop\n            /* \"#utility.yul\":1205:1712   */\n          swap3\n          pop\n          swap3\n          swap1\n          pop\n          jump\t// out\n            /* \"Campaign.sol\":406:2764  contract Campaign {... */\n        tag_6:\n          dataSize(sub_0)\n          dup1\n          dataOffset(sub_0)\n          0x00\n          codecopy\n          0x00\n          return\n        stop\n\n        sub_0: assembly {\n                /* \"Campaign.sol\":406:2764  contract Campaign {... */\n              mstore(0x40, 0x80)\n              jumpi(tag_1, lt(calldatasize, 0x04))\n              shr(0xe0, calldataload(0x00))\n              dup1\n              0x641a21d9\n              gt\n              tag_13\n              jumpi\n              dup1\n              0x641a21d9\n              eq\n              tag_7\n              jumpi\n              dup1\n              0x81d12c58\n              eq\n              tag_8\n              jumpi\n              dup1\n              0x8a9cfd55\n              eq\n              tag_9\n              jumpi\n              dup1\n              0x937e09b1\n              eq\n              tag_10\n              jumpi\n              dup1\n              0xd7bb99ba\n              eq\n              tag_11\n              jumpi\n              dup1\n              0xd7d1bbdb\n              eq\n              tag_12\n              jumpi\n              jump(tag_1)\n            tag_13:\n              dup1\n              0x03441006\n              eq\n              tag_2\n              jumpi\n              dup1\n              0x1f6d4942\n              eq\n              tag_3\n              jumpi\n              dup1\n              0x3410452a\n              eq\n              tag_4\n              jumpi\n              dup1\n              0x4051ddac\n              eq\n              tag_5\n              jumpi\n              dup1\n              0x481c6a75\n              eq\n              tag_6\n              jumpi\n            tag_1:\n              0x00\n              dup1\n              revert\n                /* \"Campaign.sol\":2053:2374  function finalizeRequest(uint index) public payable restricted {... */\n            tag_2:\n              tag_14\n              0x04\n              dup1\n              calldatasize\n              sub\n              dup2\n              add\n              swap1\n              tag_15\n              swap2\n              swap1\n              tag_16\n              jump\t// in\n            tag_15:\n              tag_17\n              jump\t// in\n            tag_14:\n              stop\n                /* \"Campaign.sol\":850:894  mapping(address => bool) public contributors */\n            tag_3:\n              callvalue\n              dup1\n              iszero\n              tag_18\n              jumpi\n              0x00\n              dup1\n              revert\n            tag_18:\n              pop\n              tag_19\n              0x04\n              dup1\n              calldatasize\n              sub\n              dup2\n              add\n              swap1\n              tag_20\n              swap2\n              swap1\n              tag_21\n              jump\t// in\n            tag_20:\n              tag_22\n              jump\t// in\n            tag_19:\n              mload(0x40)\n              tag_23\n              swap2\n              swap1\n              tag_24\n              jump\t// in\n            tag_23:\n              mload(0x40)\n              dup1\n              swap2\n              sub\n              swap1\n              return\n                /* \"Campaign.sol\":2665:2761  function getRequestsCount() public view returns (uint) {... */\n            tag_4:\n              callvalue\n              dup1\n              iszero\n              tag_25\n              jumpi\n              0x00\n              dup1\n              revert\n            tag_25:\n              pop\n              tag_26\n              tag_27\n              jump\t// in\n            tag_26:\n              mload(0x40)\n              tag_28\n              swap2\n              swap1\n              tag_29\n              jump\t// in\n            tag_28:\n              mload(0x40)\n              dup1\n              swap2\n              sub\n              swap1\n              return\n                /* \"Campaign.sol\":2382:2657  function getSummary() public view returns (uint, uint, uint, uint, address) {... */\n            tag_5:\n              callvalue\n              dup1\n              iszero\n              tag_30\n              jumpi\n              0x00\n              dup1\n              revert\n            tag_30:\n              pop\n              tag_31\n              tag_32\n              jump\t// in\n            tag_31:\n              mload(0x40)\n              tag_33\n              swap6\n              swap5\n              swap4\n              swap3\n              swap2\n              swap1\n              tag_34\n              jump\t// in\n            tag_33:\n              mload(0x40)\n              dup1\n              swap2\n              sub\n              swap1\n              return\n                /* \"Campaign.sol\":773:795  address public manager */\n            tag_6:\n              callvalue\n              dup1\n              iszero\n              tag_35\n              jumpi\n              0x00\n              dup1\n              revert\n            tag_35:\n              pop\n              tag_36\n              tag_37\n              jump\t// in\n            tag_36:\n              mload(0x40)\n              tag_38\n              swap2\n              swap1\n              tag_39\n              jump\t// in\n            tag_38:\n              mload(0x40)\n              dup1\n              swap2\n              sub\n              swap1\n              return\n                /* \"Campaign.sol\":901:938  uint public participatingContributors */\n            tag_7:\n              callvalue\n              dup1\n              iszero\n              tag_40\n              jumpi\n              0x00\n              dup1\n              revert\n            tag_40:\n              pop\n              tag_41\n              tag_42\n              jump\t// in\n            tag_41:\n              mload(0x40)\n              tag_43\n              swap2\n              swap1\n              tag_29\n              jump\t// in\n            tag_43:\n              mload(0x40)\n              dup1\n              swap2\n              sub\n              swap1\n              return\n                /* \"Campaign.sol\":741:766  Request[] public requests */\n            tag_8:\n              callvalue\n              dup1\n              iszero\n              tag_44\n              jumpi\n              0x00\n              dup1\n              revert\n            tag_44:\n              pop\n              tag_45\n              0x04\n              dup1\n              calldatasize\n              sub\n              dup2\n              add\n              swap1\n              tag_46\n              swap2\n              swap1\n              tag_16\n              jump\t// in\n            tag_46:\n              tag_47\n              jump\t// in\n            tag_45:\n              mload(0x40)\n              tag_48\n              swap6\n              swap5\n              swap4\n              swap3\n              swap2\n              swap1\n              tag_49\n              jump\t// in\n            tag_48:\n              mload(0x40)\n              dup1\n              swap2\n              sub\n              swap1\n              return\n                /* \"Campaign.sol\":1252:1628  function createRequest(string memory description, uint value, address payable recipient) public restricted {... */\n            tag_9:\n              callvalue\n              dup1\n              iszero\n              tag_50\n              jumpi\n              0x00\n              dup1\n              revert\n            tag_50:\n              pop\n              tag_51\n              0x04\n              dup1\n              calldatasize\n              sub\n              dup2\n              add\n              swap1\n              tag_52\n              swap2\n              swap1\n              tag_53\n              jump\t// in\n            tag_52:\n              tag_54\n              jump\t// in\n            tag_51:\n              stop\n                /* \"Campaign.sol\":802:833  uint public minimumContribution */\n            tag_10:\n              callvalue\n              dup1\n              iszero\n              tag_55\n              jumpi\n              0x00\n              dup1\n              revert\n            tag_55:\n              pop\n              tag_56\n              tag_57\n              jump\t// in\n            tag_56:\n              mload(0x40)\n              tag_58\n              swap2\n              swap1\n              tag_29\n              jump\t// in\n            tag_58:\n              mload(0x40)\n              dup1\n              swap2\n              sub\n              swap1\n              return\n                /* \"Campaign.sol\":1068:1244  function contribute() public payable {... */\n            tag_11:\n              tag_59\n              tag_60\n              jump\t// in\n            tag_59:\n              stop\n                /* \"Campaign.sol\":1636:2045  function approveRequest(uint index) public {... */\n            tag_12:\n              callvalue\n              dup1\n              iszero\n              tag_61\n              jumpi\n              0x00\n              dup1\n              revert\n            tag_61:\n              pop\n              tag_62\n              0x04\n              dup1\n              calldatasize\n              sub\n              dup2\n              add\n              swap1\n              tag_63\n              swap2\n              swap1\n              tag_16\n              jump\t// in\n            tag_63:\n              tag_64\n              jump\t// in\n            tag_62:\n              stop\n                /* \"Campaign.sol\":2053:2374  function finalizeRequest(uint index) public payable restricted {... */\n            tag_17:\n                /* \"Campaign.sol\":705:712  manager */\n              0x01\n              0x00\n              swap1\n              sload\n              swap1\n              0x0100\n              exp\n              swap1\n              div\n              0xffffffffffffffffffffffffffffffffffffffff\n              and\n                /* \"Campaign.sol\":691:712  msg.sender == manager */\n              0xffffffffffffffffffffffffffffffffffffffff\n              and\n                /* \"Campaign.sol\":691:701  msg.sender */\n              caller\n                /* \"Campaign.sol\":691:712  msg.sender == manager */\n              0xffffffffffffffffffffffffffffffffffffffff\n              and\n              eq\n                /* \"Campaign.sol\":683:713  require(msg.sender == manager) */\n              tag_66\n              jumpi\n              0x00\n              dup1\n              revert\n            tag_66:\n                /* \"Campaign.sol\":2136:2144  requests */\n              0x00\n                /* \"Campaign.sol\":2145:2150  index */\n              dup2\n                /* \"Campaign.sol\":2136:2151  requests[index] */\n              dup2\n              sload\n              dup2\n              lt\n              tag_68\n              jumpi\n              tag_69\n              tag_70\n              jump\t// in\n            tag_69:\n            tag_68:\n              swap1\n              0x00\n              mstore\n              keccak256(0x00, 0x20)\n              swap1\n              0x05\n              mul\n              add\n                /* \"Campaign.sol\":2136:2160  requests[index].complete */\n              0x02\n              add\n              0x14\n              swap1\n              sload\n              swap1\n              0x0100\n              exp\n              swap1\n              div\n              0xff\n              and\n                /* \"Campaign.sol\":2135:2160  !requests[index].complete */\n              iszero\n                /* \"Campaign.sol\":2127:2161  require(!requests[index].complete) */\n              tag_72\n              jumpi\n              0x00\n              dup1\n              revert\n            tag_72:\n                /* \"Campaign.sol\":2241:2242  2 */\n              0x02\n                /* \"Campaign.sol\":2213:2238  participatingContributors */\n              sload(0x04)\n                /* \"Campaign.sol\":2213:2242  participatingContributors / 2 */\n              tag_73\n              swap2\n              swap1\n              tag_74\n              jump\t// in\n            tag_73:\n                /* \"Campaign.sol\":2180:2188  requests */\n              0x00\n                /* \"Campaign.sol\":2189:2194  index */\n              dup3\n                /* \"Campaign.sol\":2180:2195  requests[index] */\n              dup2\n              sload\n              dup2\n              lt\n              tag_75\n              jumpi\n              tag_76\n              tag_70\n              jump\t// in\n            tag_76:\n            tag_75:\n              swap1\n              0x00\n              mstore\n              keccak256(0x00, 0x20)\n              swap1\n              0x05\n              mul\n              add\n                /* \"Campaign.sol\":2180:2209  requests[index].approvalCount */\n              0x03\n              add\n              sload\n                /* \"Campaign.sol\":2180:2243  requests[index].approvalCount > (participatingContributors / 2) */\n              gt\n                /* \"Campaign.sol\":2172:2244  require(requests[index].approvalCount > (participatingContributors / 2)) */\n              tag_78\n              jumpi\n              0x00\n              dup1\n              revert\n            tag_78:\n                /* \"Campaign.sol\":2265:2273  requests */\n              0x00\n                /* \"Campaign.sol\":2274:2279  index */\n              dup2\n                /* \"Campaign.sol\":2265:2280  requests[index] */\n              dup2\n              sload\n              dup2\n              lt\n              tag_79\n              jumpi\n              tag_80\n              tag_70\n              jump\t// in\n            tag_80:\n            tag_79:\n              swap1\n              0x00\n              mstore\n              keccak256(0x00, 0x20)\n              swap1\n              0x05\n              mul\n              add\n                /* \"Campaign.sol\":2265:2290  requests[index].recipient */\n              0x02\n              add\n              0x00\n              swap1\n              sload\n              swap1\n              0x0100\n              exp\n              swap1\n              div\n              0xffffffffffffffffffffffffffffffffffffffff\n              and\n                /* \"Campaign.sol\":2265:2299  requests[index].recipient.transfer */\n              0xffffffffffffffffffffffffffffffffffffffff\n              and\n                /* \"Campaign.sol\":2265:2322  requests[index].recipient.transfer(requests[index].value) */\n              0x08fc\n                /* \"Campaign.sol\":2300:2308  requests */\n              0x00\n                /* \"Campaign.sol\":2309:2314  index */\n              dup4\n                /* \"Campaign.sol\":2300:2315  requests[index] */\n              dup2\n              sload\n              dup2\n              lt\n              tag_82\n              jumpi\n              tag_83\n              tag_70\n              jump\t// in\n            tag_83:\n            tag_82:\n              swap1\n              0x00\n              mstore\n              keccak256(0x00, 0x20)\n              swap1\n              0x05\n              mul\n              add\n                /* \"Campaign.sol\":2300:2321  requests[index].value */\n              0x01\n              add\n              sload\n                /* \"Campaign.sol\":2265:2322  requests[index].recipient.transfer(requests[index].value) */\n              swap1\n              dup2\n              iszero\n              mul\n              swap1\n              mload(0x40)\n              0x00\n              mload(0x40)\n              dup1\n              dup4\n              sub\n              dup2\n              dup6\n              dup9\n              dup9\n              call\n              swap4\n              pop\n              pop\n              pop\n              pop\n              iszero\n              dup1\n              iszero\n              tag_86\n              jumpi\n              returndatasize\n              0x00\n              dup1\n              returndatacopy\n              revert(0x00, returndatasize)\n            tag_86:\n              pop\n                /* \"Campaign.sol\":2362:2366  true */\n              0x01\n                /* \"Campaign.sol\":2335:2343  requests */\n              0x00\n                /* \"Campaign.sol\":2344:2349  index */\n              dup3\n                /* \"Campaign.sol\":2335:2350  requests[index] */\n              dup2\n              sload\n              dup2\n              lt\n              tag_87\n              jumpi\n              tag_88\n              tag_70\n              jump\t// in\n            tag_88:\n            tag_87:\n              swap1\n              0x00\n              mstore\n              keccak256(0x00, 0x20)\n              swap1\n              0x05\n              mul\n              add\n                /* \"Campaign.sol\":2335:2359  requests[index].complete */\n              0x02\n              add\n              0x14\n                /* \"Campaign.sol\":2335:2366  requests[index].complete = true */\n              0x0100\n              exp\n              dup2\n              sload\n              dup2\n              0xff\n              mul\n              not\n              and\n              swap1\n              dup4\n              iszero\n              iszero\n              mul\n              or\n              swap1\n              sstore\n              pop\n                /* \"Campaign.sol\":2053:2374  function finalizeRequest(uint index) public payable restricted {... */\n              pop\n              jump\t// out\n                /* \"Campaign.sol\":850:894  mapping(address => bool) public contributors */\n            tag_22:\n              mstore(0x20, 0x03)\n              dup1\n              0x00\n              mstore\n              keccak256(0x00, 0x40)\n              0x00\n              swap2\n              pop\n              sload\n              swap1\n              0x0100\n              exp\n              swap1\n              div\n              0xff\n              and\n              dup2\n              jump\t// out\n                /* \"Campaign.sol\":2665:2761  function getRequestsCount() public view returns (uint) {... */\n            tag_27:\n                /* \"Campaign.sol\":2714:2718  uint */\n              0x00\n                /* \"Campaign.sol\":2738:2746  requests */\n              dup1\n                /* \"Campaign.sol\":2738:2753  requests.length */\n              dup1\n              sload\n              swap1\n              pop\n                /* \"Campaign.sol\":2731:2753  return requests.length */\n              swap1\n              pop\n                /* \"Campaign.sol\":2665:2761  function getRequestsCount() public view returns (uint) {... */\n              swap1\n              jump\t// out\n                /* \"Campaign.sol\":2382:2657  function getSummary() public view returns (uint, uint, uint, uint, address) {... */\n            tag_32:\n                /* \"Campaign.sol\":2425:2429  uint */\n              0x00\n                /* \"Campaign.sol\":2431:2435  uint */\n              dup1\n                /* \"Campaign.sol\":2437:2441  uint */\n              0x00\n                /* \"Campaign.sol\":2443:2447  uint */\n              dup1\n                /* \"Campaign.sol\":2449:2456  address */\n              0x00\n                /* \"Campaign.sol\":2491:2510  minimumContribution */\n              sload(0x02)\n                /* \"Campaign.sol\":2525:2546  address(this).balance */\n              selfbalance\n                /* \"Campaign.sol\":2561:2569  requests */\n              0x00\n                /* \"Campaign.sol\":2561:2576  requests.length */\n              dup1\n              sload\n              swap1\n              pop\n                /* \"Campaign.sol\":2591:2616  participatingContributors */\n              sload(0x04)\n                /* \"Campaign.sol\":2631:2638  manager */\n              0x01\n              0x00\n              swap1\n              sload\n              swap1\n              0x0100\n              exp\n              swap1\n              div\n              0xffffffffffffffffffffffffffffffffffffffff\n              and\n                /* \"Campaign.sol\":2469:2649  return (... */\n              swap5\n              pop\n              swap5\n              pop\n              swap5\n              pop\n              swap5\n              pop\n              swap5\n              pop\n                /* \"Campaign.sol\":2382:2657  function getSummary() public view returns (uint, uint, uint, uint, address) {... */\n              swap1\n              swap2\n              swap3\n              swap4\n              swap5\n              jump\t// out\n                /* \"Campaign.sol\":773:795  address public manager */\n            tag_37:\n              0x01\n              0x00\n              swap1\n              sload\n              swap1\n              0x0100\n              exp\n              swap1\n              div\n              0xffffffffffffffffffffffffffffffffffffffff\n              and\n              dup2\n              jump\t// out\n                /* \"Campaign.sol\":901:938  uint public participatingContributors */\n            tag_42:\n              sload(0x04)\n              dup2\n              jump\t// out\n                /* \"Campaign.sol\":741:766  Request[] public requests */\n            tag_47:\n              0x00\n              dup2\n              dup2\n              sload\n              dup2\n              lt\n              tag_92\n              jumpi\n              0x00\n              dup1\n              revert\n            tag_92:\n              swap1\n              0x00\n              mstore\n              keccak256(0x00, 0x20)\n              swap1\n              0x05\n              mul\n              add\n              0x00\n              swap2\n              pop\n              swap1\n              pop\n              dup1\n              0x00\n              add\n              dup1\n              sload\n              tag_94\n              swap1\n              tag_95\n              jump\t// in\n            tag_94:\n              dup1\n              0x1f\n              add\n              0x20\n              dup1\n              swap2\n              div\n              mul\n              0x20\n              add\n              mload(0x40)\n              swap1\n              dup2\n              add\n              0x40\n              mstore\n              dup1\n              swap3\n              swap2\n              swap1\n              dup2\n              dup2\n              mstore\n              0x20\n              add\n              dup3\n              dup1\n              sload\n              tag_96\n              swap1\n              tag_95\n              jump\t// in\n            tag_96:\n              dup1\n              iszero\n              tag_97\n              jumpi\n              dup1\n              0x1f\n              lt\n              tag_98\n              jumpi\n              0x0100\n              dup1\n              dup4\n              sload\n              div\n              mul\n              dup4\n              mstore\n              swap2\n              0x20\n              add\n              swap2\n              jump(tag_97)\n            tag_98:\n              dup3\n              add\n              swap2\n              swap1\n              0x00\n              mstore\n              keccak256(0x00, 0x20)\n              swap1\n            tag_99:\n              dup2\n              sload\n              dup2\n              mstore\n              swap1\n              0x01\n              add\n              swap1\n              0x20\n              add\n              dup1\n              dup4\n              gt\n              tag_99\n              jumpi\n              dup3\n              swap1\n              sub\n              0x1f\n              and\n              dup3\n              add\n              swap2\n            tag_97:\n              pop\n              pop\n              pop\n              pop\n              pop\n              swap1\n              dup1\n              0x01\n              add\n              sload\n              swap1\n              dup1\n              0x02\n              add\n              0x00\n              swap1\n              sload\n              swap1\n              0x0100\n              exp\n              swap1\n              div\n              0xffffffffffffffffffffffffffffffffffffffff\n              and\n              swap1\n              dup1\n              0x02\n              add\n              0x14\n              swap1\n              sload\n              swap1\n              0x0100\n              exp\n              swap1\n              div\n              0xff\n              and\n              swap1\n              dup1\n              0x03\n              add\n              sload\n              swap1\n              pop\n              dup6\n              jump\t// out\n                /* \"Campaign.sol\":1252:1628  function createRequest(string memory description, uint value, address payable recipient) public restricted {... */\n            tag_54:\n                /* \"Campaign.sol\":705:712  manager */\n              0x01\n              0x00\n              swap1\n              sload\n              swap1\n              0x0100\n              exp\n              swap1\n              div\n              0xffffffffffffffffffffffffffffffffffffffff\n              and\n                /* \"Campaign.sol\":691:712  msg.sender == manager */\n              0xffffffffffffffffffffffffffffffffffffffff\n              and\n                /* \"Campaign.sol\":691:701  msg.sender */\n              caller\n                /* \"Campaign.sol\":691:712  msg.sender == manager */\n              0xffffffffffffffffffffffffffffffffffffffff\n              and\n              eq\n                /* \"Campaign.sol\":683:713  require(msg.sender == manager) */\n              tag_101\n              jumpi\n              0x00\n              dup1\n              revert\n            tag_101:\n                /* \"Campaign.sol\":1370:1396  Request storage newRequest */\n              0x00\n                /* \"Campaign.sol\":1399:1407  requests */\n              dup1\n                /* \"Campaign.sol\":1399:1414  requests.push() */\n              0x01\n              dup2\n              0x01\n              dup2\n              sload\n              add\n              dup1\n              dup3\n              sstore\n              dup1\n              swap2\n              pop\n              pop\n              sub\n              swap1\n              0x00\n              mstore\n              keccak256(0x00, 0x20)\n              swap1\n              0x05\n              mul\n              add\n                /* \"Campaign.sol\":1370:1414  Request storage newRequest = requests.push() */\n              swap1\n              pop\n                /* \"Campaign.sol\":1452:1463  description */\n              dup4\n                /* \"Campaign.sol\":1427:1437  newRequest */\n              dup2\n                /* \"Campaign.sol\":1427:1449  newRequest.description */\n              0x00\n              add\n                /* \"Campaign.sol\":1427:1463  newRequest.description = description */\n              swap1\n              dup2\n              tag_104\n              swap2\n              swap1\n              tag_105\n              jump\t// in\n            tag_104:\n              pop\n                /* \"Campaign.sol\":1493:1498  value */\n              dup3\n                /* \"Campaign.sol\":1474:1484  newRequest */\n              dup2\n                /* \"Campaign.sol\":1474:1490  newRequest.value */\n              0x01\n              add\n                /* \"Campaign.sol\":1474:1498  newRequest.value = value */\n              dup2\n              swap1\n              sstore\n              pop\n                /* \"Campaign.sol\":1532:1541  recipient */\n              dup2\n                /* \"Campaign.sol\":1509:1519  newRequest */\n              dup2\n                /* \"Campaign.sol\":1509:1529  newRequest.recipient */\n              0x02\n              add\n              0x00\n                /* \"Campaign.sol\":1509:1541  newRequest.recipient = recipient */\n              0x0100\n              exp\n              dup2\n              sload\n              dup2\n              0xffffffffffffffffffffffffffffffffffffffff\n              mul\n              not\n              and\n              swap1\n              dup4\n              0xffffffffffffffffffffffffffffffffffffffff\n              and\n              mul\n              or\n              swap1\n              sstore\n              pop\n                /* \"Campaign.sol\":1575:1580  false */\n              0x00\n                /* \"Campaign.sol\":1553:1563  newRequest */\n              dup2\n                /* \"Campaign.sol\":1553:1572  newRequest.complete */\n              0x02\n              add\n              0x14\n                /* \"Campaign.sol\":1553:1580  newRequest.complete = false */\n              0x0100\n              exp\n              dup2\n              sload\n              dup2\n              0xff\n              mul\n              not\n              and\n              swap1\n              dup4\n              iszero\n              iszero\n              mul\n              or\n              swap1\n              sstore\n              pop\n                /* \"Campaign.sol\":1619:1620  0 */\n              0x00\n                /* \"Campaign.sol\":1592:1602  newRequest */\n              dup2\n                /* \"Campaign.sol\":1592:1616  newRequest.approvalCount */\n              0x03\n              add\n                /* \"Campaign.sol\":1592:1620  newRequest.approvalCount = 0 */\n              dup2\n              swap1\n              sstore\n              pop\n                /* \"Campaign.sol\":1359:1628  {... */\n              pop\n                /* \"Campaign.sol\":1252:1628  function createRequest(string memory description, uint value, address payable recipient) public restricted {... */\n              pop\n              pop\n              pop\n              jump\t// out\n                /* \"Campaign.sol\":802:833  uint public minimumContribution */\n            tag_57:\n              sload(0x02)\n              dup2\n              jump\t// out\n                /* \"Campaign.sol\":1068:1244  function contribute() public payable {... */\n            tag_60:\n                /* \"Campaign.sol\":1136:1155  minimumContribution */\n              sload(0x02)\n                /* \"Campaign.sol\":1124:1133  msg.value */\n              callvalue\n                /* \"Campaign.sol\":1124:1155  msg.value > minimumContribution */\n              gt\n                /* \"Campaign.sol\":1116:1156  require(msg.value > minimumContribution) */\n              tag_107\n              jumpi\n              0x00\n              dup1\n              revert\n            tag_107:\n                /* \"Campaign.sol\":1194:1198  true */\n              0x01\n                /* \"Campaign.sol\":1167:1179  contributors */\n              0x03\n                /* \"Campaign.sol\":1167:1191  contributors[msg.sender] */\n              0x00\n                /* \"Campaign.sol\":1180:1190  msg.sender */\n              caller\n                /* \"Campaign.sol\":1167:1191  contributors[msg.sender] */\n              0xffffffffffffffffffffffffffffffffffffffff\n              and\n              0xffffffffffffffffffffffffffffffffffffffff\n              and\n              dup2\n              mstore\n              0x20\n              add\n              swap1\n              dup2\n              mstore\n              0x20\n              add\n              0x00\n              keccak256\n              0x00\n                /* \"Campaign.sol\":1167:1198  contributors[msg.sender] = true */\n              0x0100\n              exp\n              dup2\n              sload\n              dup2\n              0xff\n              mul\n              not\n              and\n              swap1\n              dup4\n              iszero\n              iszero\n              mul\n              or\n              swap1\n              sstore\n              pop\n                /* \"Campaign.sol\":1209:1234  participatingContributors */\n              0x04\n              0x00\n                /* \"Campaign.sol\":1209:1236  participatingContributors++ */\n              dup2\n              sload\n              dup1\n              swap3\n              swap2\n              swap1\n              tag_108\n              swap1\n              tag_109\n              jump\t// in\n            tag_108:\n              swap2\n              swap1\n              pop\n              sstore\n              pop\n                /* \"Campaign.sol\":1068:1244  function contribute() public payable {... */\n              jump\t// out\n                /* \"Campaign.sol\":1636:2045  function approveRequest(uint index) public {... */\n            tag_64:\n                /* \"Campaign.sol\":1698:1710  contributors */\n              0x03\n                /* \"Campaign.sol\":1698:1722  contributors[msg.sender] */\n              0x00\n                /* \"Campaign.sol\":1711:1721  msg.sender */\n              caller\n                /* \"Campaign.sol\":1698:1722  contributors[msg.sender] */\n              0xffffffffffffffffffffffffffffffffffffffff\n              and\n              0xffffffffffffffffffffffffffffffffffffffff\n              and\n              dup2\n              mstore\n              0x20\n              add\n              swap1\n              dup2\n              mstore\n              0x20\n              add\n              0x00\n              keccak256\n              0x00\n              swap1\n              sload\n              swap1\n              0x0100\n              exp\n              swap1\n              div\n              0xff\n              and\n                /* \"Campaign.sol\":1690:1723  require(contributors[msg.sender]) */\n              tag_111\n              jumpi\n              0x00\n              dup1\n              revert\n            tag_111:\n                /* \"Campaign.sol\":1788:1796  requests */\n              0x00\n                /* \"Campaign.sol\":1797:1802  index */\n              dup2\n                /* \"Campaign.sol\":1788:1803  requests[index] */\n              dup2\n              sload\n              dup2\n              lt\n              tag_112\n              jumpi\n              tag_113\n              tag_70\n              jump\t// in\n            tag_113:\n            tag_112:\n              swap1\n              0x00\n              mstore\n              keccak256(0x00, 0x20)\n              swap1\n              0x05\n              mul\n              add\n                /* \"Campaign.sol\":1788:1813  requests[index].approvals */\n              0x04\n              add\n                /* \"Campaign.sol\":1788:1825  requests[index].approvals[msg.sender] */\n              0x00\n                /* \"Campaign.sol\":1814:1824  msg.sender */\n              caller\n                /* \"Campaign.sol\":1788:1825  requests[index].approvals[msg.sender] */\n              0xffffffffffffffffffffffffffffffffffffffff\n              and\n              0xffffffffffffffffffffffffffffffffffffffff\n              and\n              dup2\n              mstore\n              0x20\n              add\n              swap1\n              dup2\n              mstore\n              0x20\n              add\n              0x00\n              keccak256\n              0x00\n              swap1\n              sload\n              swap1\n              0x0100\n              exp\n              swap1\n              div\n              0xff\n              and\n                /* \"Campaign.sol\":1787:1825  !requests[index].approvals[msg.sender] */\n              iszero\n                /* \"Campaign.sol\":1779:1826  require(!requests[index].approvals[msg.sender]) */\n              tag_115\n              jumpi\n              0x00\n              dup1\n              revert\n            tag_115:\n                /* \"Campaign.sol\":1936:1940  true */\n              0x01\n                /* \"Campaign.sol\":1896:1904  requests */\n              0x00\n                /* \"Campaign.sol\":1905:1910  index */\n              dup3\n                /* \"Campaign.sol\":1896:1911  requests[index] */\n              dup2\n              sload\n              dup2\n              lt\n              tag_116\n              jumpi\n              tag_117\n              tag_70\n              jump\t// in\n            tag_117:\n            tag_116:\n              swap1\n              0x00\n              mstore\n              keccak256(0x00, 0x20)\n              swap1\n              0x05\n              mul\n              add\n                /* \"Campaign.sol\":1896:1921  requests[index].approvals */\n              0x04\n              add\n                /* \"Campaign.sol\":1896:1933  requests[index].approvals[msg.sender] */\n              0x00\n                /* \"Campaign.sol\":1922:1932  msg.sender */\n              caller\n                /* \"Campaign.sol\":1896:1933  requests[index].approvals[msg.sender] */\n              0xffffffffffffffffffffffffffffffffffffffff\n              and\n              0xffffffffffffffffffffffffffffffffffffffff\n              and\n              dup2\n              mstore\n              0x20\n              add\n              swap1\n              dup2\n              mstore\n              0x20\n              add\n              0x00\n              keccak256\n              0x00\n                /* \"Campaign.sol\":1896:1940  requests[index].approvals[msg.sender] = true */\n              0x0100\n              exp\n              dup2\n              sload\n              dup2\n              0xff\n              mul\n              not\n              and\n              swap1\n              dup4\n              iszero\n              iszero\n              mul\n              or\n              swap1\n              sstore\n              pop\n                /* \"Campaign.sol\":2006:2014  requests */\n              0x00\n                /* \"Campaign.sol\":2015:2020  index */\n              dup2\n                /* \"Campaign.sol\":2006:2021  requests[index] */\n              dup2\n              sload\n              dup2\n              lt\n              tag_119\n              jumpi\n              tag_120\n              tag_70\n              jump\t// in\n            tag_120:\n            tag_119:\n              swap1\n              0x00\n              mstore\n              keccak256(0x00, 0x20)\n              swap1\n              0x05\n              mul\n              add\n                /* \"Campaign.sol\":2006:2035  requests[index].approvalCount */\n              0x03\n              add\n              0x00\n                /* \"Campaign.sol\":2006:2037  requests[index].approvalCount++ */\n              dup2\n              sload\n              dup1\n              swap3\n              swap2\n              swap1\n              tag_122\n              swap1\n              tag_109\n              jump\t// in\n            tag_122:\n              swap2\n              swap1\n              pop\n              sstore\n              pop\n                /* \"Campaign.sol\":1636:2045  function approveRequest(uint index) public {... */\n              pop\n              jump\t// out\n                /* \"#utility.yul\":7:82   */\n            tag_123:\n                /* \"#utility.yul\":40:46   */\n              0x00\n                /* \"#utility.yul\":73:75   */\n              0x40\n                /* \"#utility.yul\":67:76   */\n              mload\n                /* \"#utility.yul\":57:76   */\n              swap1\n              pop\n                /* \"#utility.yul\":7:82   */\n              swap1\n              jump\t// out\n                /* \"#utility.yul\":88:205   */\n            tag_124:\n                /* \"#utility.yul\":197:198   */\n              0x00\n                /* \"#utility.yul\":194:195   */\n              dup1\n                /* \"#utility.yul\":187:199   */\n              revert\n                /* \"#utility.yul\":211:328   */\n            tag_125:\n                /* \"#utility.yul\":320:321   */\n              0x00\n                /* \"#utility.yul\":317:318   */\n              dup1\n                /* \"#utility.yul\":310:322   */\n              revert\n                /* \"#utility.yul\":334:411   */\n            tag_126:\n                /* \"#utility.yul\":371:378   */\n              0x00\n                /* \"#utility.yul\":400:405   */\n              dup2\n                /* \"#utility.yul\":389:405   */\n              swap1\n              pop\n                /* \"#utility.yul\":334:411   */\n              swap2\n              swap1\n              pop\n              jump\t// out\n                /* \"#utility.yul\":417:539   */\n            tag_127:\n                /* \"#utility.yul\":490:514   */\n              tag_179\n                /* \"#utility.yul\":508:513   */\n              dup2\n                /* \"#utility.yul\":490:514   */\n              tag_126\n              jump\t// in\n            tag_179:\n                /* \"#utility.yul\":483:488   */\n              dup2\n                /* \"#utility.yul\":480:515   */\n              eq\n                /* \"#utility.yul\":470:533   */\n              tag_180\n              jumpi\n                /* \"#utility.yul\":529:530   */\n              0x00\n                /* \"#utility.yul\":526:527   */\n              dup1\n                /* \"#utility.yul\":519:531   */\n              revert\n                /* \"#utility.yul\":470:533   */\n            tag_180:\n                /* \"#utility.yul\":417:539   */\n              pop\n              jump\t// out\n                /* \"#utility.yul\":545:684   */\n            tag_128:\n                /* \"#utility.yul\":591:596   */\n              0x00\n                /* \"#utility.yul\":629:635   */\n              dup2\n                /* \"#utility.yul\":616:636   */\n              calldataload\n                /* \"#utility.yul\":607:636   */\n              swap1\n              pop\n                /* \"#utility.yul\":645:678   */\n              tag_182\n                /* \"#utility.yul\":672:677   */\n              dup2\n                /* \"#utility.yul\":645:678   */\n              tag_127\n              jump\t// in\n            tag_182:\n                /* \"#utility.yul\":545:684   */\n              swap3\n              swap2\n              pop\n              pop\n              jump\t// out\n                /* \"#utility.yul\":690:1019   */\n            tag_16:\n                /* \"#utility.yul\":749:755   */\n              0x00\n                /* \"#utility.yul\":798:800   */\n              0x20\n                /* \"#utility.yul\":786:795   */\n              dup3\n                /* \"#utility.yul\":777:784   */\n              dup5\n                /* \"#utility.yul\":773:796   */\n              sub\n                /* \"#utility.yul\":769:801   */\n              slt\n                /* \"#utility.yul\":766:885   */\n              iszero\n              tag_184\n              jumpi\n                /* \"#utility.yul\":804:883   */\n              tag_185\n              tag_124\n              jump\t// in\n            tag_185:\n                /* \"#utility.yul\":766:885   */\n            tag_184:\n                /* \"#utility.yul\":924:925   */\n              0x00\n                /* \"#utility.yul\":949:1002   */\n              tag_186\n                /* \"#utility.yul\":994:1001   */\n              dup5\n                /* \"#utility.yul\":985:991   */\n              dup3\n                /* \"#utility.yul\":974:983   */\n              dup6\n                /* \"#utility.yul\":970:992   */\n              add\n                /* \"#utility.yul\":949:1002   */\n              tag_128\n              jump\t// in\n            tag_186:\n                /* \"#utility.yul\":939:1002   */\n              swap2\n              pop\n                /* \"#utility.yul\":895:1012   */\n              pop\n                /* \"#utility.yul\":690:1019   */\n              swap3\n              swap2\n              pop\n              pop\n              jump\t// out\n                /* \"#utility.yul\":1025:1151   */\n            tag_129:\n                /* \"#utility.yul\":1062:1069   */\n              0x00\n                /* \"#utility.yul\":1102:1144   */\n              0xffffffffffffffffffffffffffffffffffffffff\n                /* \"#utility.yul\":1095:1100   */\n              dup3\n                /* \"#utility.yul\":1091:1145   */\n              and\n                /* \"#utility.yul\":1080:1145   */\n              swap1\n              pop\n                /* \"#utility.yul\":1025:1151   */\n              swap2\n              swap1\n              pop\n              jump\t// out\n                /* \"#utility.yul\":1157:1253   */\n            tag_130:\n                /* \"#utility.yul\":1194:1201   */\n              0x00\n                /* \"#utility.yul\":1223:1247   */\n              tag_189\n                /* \"#utility.yul\":1241:1246   */\n              dup3\n                /* \"#utility.yul\":1223:1247   */\n              tag_129\n              jump\t// in\n            tag_189:\n                /* \"#utility.yul\":1212:1247   */\n              swap1\n              pop\n                /* \"#utility.yul\":1157:1253   */\n              swap2\n              swap1\n              pop\n              jump\t// out\n                /* \"#utility.yul\":1259:1381   */\n            tag_131:\n                /* \"#utility.yul\":1332:1356   */\n              tag_191\n                /* \"#utility.yul\":1350:1355   */\n              dup2\n                /* \"#utility.yul\":1332:1356   */\n              tag_130\n              jump\t// in\n            tag_191:\n                /* \"#utility.yul\":1325:1330   */\n              dup2\n                /* \"#utility.yul\":1322:1357   */\n              eq\n                /* \"#utility.yul\":1312:1375   */\n              tag_192\n              jumpi\n                /* \"#utility.yul\":1371:1372   */\n              0x00\n                /* \"#utility.yul\":1368:1369   */\n              dup1\n                /* \"#utility.yul\":1361:1373   */\n              revert\n                /* \"#utility.yul\":1312:1375   */\n            tag_192:\n                /* \"#utility.yul\":1259:1381   */\n              pop\n              jump\t// out\n                /* \"#utility.yul\":1387:1526   */\n            tag_132:\n                /* \"#utility.yul\":1433:1438   */\n              0x00\n                /* \"#utility.yul\":1471:1477   */\n              dup2\n                /* \"#utility.yul\":1458:1478   */\n              calldataload\n                /* \"#utility.yul\":1449:1478   */\n              swap1\n              pop\n                /* \"#utility.yul\":1487:1520   */\n              tag_194\n                /* \"#utility.yul\":1514:1519   */\n              dup2\n                /* \"#utility.yul\":1487:1520   */\n              tag_131\n              jump\t// in\n            tag_194:\n                /* \"#utility.yul\":1387:1526   */\n              swap3\n              swap2\n              pop\n              pop\n              jump\t// out\n                /* \"#utility.yul\":1532:1861   */\n            tag_21:\n                /* \"#utility.yul\":1591:1597   */\n              0x00\n                /* \"#utility.yul\":1640:1642   */\n              0x20\n                /* \"#utility.yul\":1628:1637   */\n              dup3\n                /* \"#utility.yul\":1619:1626   */\n              dup5\n                /* \"#utility.yul\":1615:1638   */\n              sub\n                /* \"#utility.yul\":1611:1643   */\n              slt\n                /* \"#utility.yul\":1608:1727   */\n              iszero\n              tag_196\n              jumpi\n                /* \"#utility.yul\":1646:1725   */\n              tag_197\n              tag_124\n              jump\t// in\n            tag_197:\n                /* \"#utility.yul\":1608:1727   */\n            tag_196:\n                /* \"#utility.yul\":1766:1767   */\n              0x00\n                /* \"#utility.yul\":1791:1844   */\n              tag_198\n                /* \"#utility.yul\":1836:1843   */\n              dup5\n                /* \"#utility.yul\":1827:1833   */\n              dup3\n                /* \"#utility.yul\":1816:1825   */\n              dup6\n                /* \"#utility.yul\":1812:1834   */\n              add\n                /* \"#utility.yul\":1791:1844   */\n              tag_132\n              jump\t// in\n            tag_198:\n                /* \"#utility.yul\":1781:1844   */\n              swap2\n              pop\n                /* \"#utility.yul\":1737:1854   */\n              pop\n                /* \"#utility.yul\":1532:1861   */\n              swap3\n              swap2\n              pop\n              pop\n              jump\t// out\n                /* \"#utility.yul\":1867:1957   */\n            tag_133:\n                /* \"#utility.yul\":1901:1908   */\n              0x00\n                /* \"#utility.yul\":1944:1949   */\n              dup2\n                /* \"#utility.yul\":1937:1950   */\n              iszero\n                /* \"#utility.yul\":1930:1951   */\n              iszero\n                /* \"#utility.yul\":1919:1951   */\n              swap1\n              pop\n                /* \"#utility.yul\":1867:1957   */\n              swap2\n              swap1\n              pop\n              jump\t// out\n                /* \"#utility.yul\":1963:2072   */\n            tag_134:\n                /* \"#utility.yul\":2044:2065   */\n              tag_201\n                /* \"#utility.yul\":2059:2064   */\n              dup2\n                /* \"#utility.yul\":2044:2065   */\n              tag_133\n              jump\t// in\n            tag_201:\n                /* \"#utility.yul\":2039:2042   */\n              dup3\n                /* \"#utility.yul\":2032:2066   */\n              mstore\n                /* \"#utility.yul\":1963:2072   */\n              pop\n              pop\n              jump\t// out\n                /* \"#utility.yul\":2078:2288   */\n            tag_24:\n                /* \"#utility.yul\":2165:2169   */\n              0x00\n                /* \"#utility.yul\":2203:2205   */\n              0x20\n                /* \"#utility.yul\":2192:2201   */\n              dup3\n                /* \"#utility.yul\":2188:2206   */\n              add\n                /* \"#utility.yul\":2180:2206   */\n              swap1\n              pop\n                /* \"#utility.yul\":2216:2281   */\n              tag_203\n                /* \"#utility.yul\":2278:2279   */\n              0x00\n                /* \"#utility.yul\":2267:2276   */\n              dup4\n                /* \"#utility.yul\":2263:2280   */\n              add\n                /* \"#utility.yul\":2254:2260   */\n              dup5\n                /* \"#utility.yul\":2216:2281   */\n              tag_134\n              jump\t// in\n            tag_203:\n                /* \"#utility.yul\":2078:2288   */\n              swap3\n              swap2\n              pop\n              pop\n              jump\t// out\n                /* \"#utility.yul\":2294:2412   */\n            tag_135:\n                /* \"#utility.yul\":2381:2405   */\n              tag_205\n                /* \"#utility.yul\":2399:2404   */\n              dup2\n                /* \"#utility.yul\":2381:2405   */\n              tag_126\n              jump\t// in\n            tag_205:\n                /* \"#utility.yul\":2376:2379   */\n              dup3\n                /* \"#utility.yul\":2369:2406   */\n              mstore\n                /* \"#utility.yul\":2294:2412   */\n              pop\n              pop\n              jump\t// out\n                /* \"#utility.yul\":2418:2640   */\n            tag_29:\n                /* \"#utility.yul\":2511:2515   */\n              0x00\n                /* \"#utility.yul\":2549:2551   */\n              0x20\n                /* \"#utility.yul\":2538:2547   */\n              dup3\n                /* \"#utility.yul\":2534:2552   */\n              add\n                /* \"#utility.yul\":2526:2552   */\n              swap1\n              pop\n                /* \"#utility.yul\":2562:2633   */\n              tag_207\n                /* \"#utility.yul\":2630:2631   */\n              0x00\n                /* \"#utility.yul\":2619:2628   */\n              dup4\n                /* \"#utility.yul\":2615:2632   */\n              add\n                /* \"#utility.yul\":2606:2612   */\n              dup5\n                /* \"#utility.yul\":2562:2633   */\n              tag_135\n              jump\t// in\n            tag_207:\n                /* \"#utility.yul\":2418:2640   */\n              swap3\n              swap2\n              pop\n              pop\n              jump\t// out\n                /* \"#utility.yul\":2646:2764   */\n            tag_136:\n                /* \"#utility.yul\":2733:2757   */\n              tag_209\n                /* \"#utility.yul\":2751:2756   */\n              dup2\n                /* \"#utility.yul\":2733:2757   */\n              tag_130\n              jump\t// in\n            tag_209:\n                /* \"#utility.yul\":2728:2731   */\n              dup3\n                /* \"#utility.yul\":2721:2758   */\n              mstore\n                /* \"#utility.yul\":2646:2764   */\n              pop\n              pop\n              jump\t// out\n                /* \"#utility.yul\":2770:3434   */\n            tag_34:\n                /* \"#utility.yul\":2975:2979   */\n              0x00\n                /* \"#utility.yul\":3013:3016   */\n              0xa0\n                /* \"#utility.yul\":3002:3011   */\n              dup3\n                /* \"#utility.yul\":2998:3017   */\n              add\n                /* \"#utility.yul\":2990:3017   */\n              swap1\n              pop\n                /* \"#utility.yul\":3027:3098   */\n              tag_211\n                /* \"#utility.yul\":3095:3096   */\n              0x00\n                /* \"#utility.yul\":3084:3093   */\n              dup4\n                /* \"#utility.yul\":3080:3097   */\n              add\n                /* \"#utility.yul\":3071:3077   */\n              dup9\n                /* \"#utility.yul\":3027:3098   */\n              tag_135\n              jump\t// in\n            tag_211:\n                /* \"#utility.yul\":3108:3180   */\n              tag_212\n                /* \"#utility.yul\":3176:3178   */\n              0x20\n                /* \"#utility.yul\":3165:3174   */\n              dup4\n                /* \"#utility.yul\":3161:3179   */\n              add\n                /* \"#utility.yul\":3152:3158   */\n              dup8\n                /* \"#utility.yul\":3108:3180   */\n              tag_135\n              jump\t// in\n            tag_212:\n                /* \"#utility.yul\":3190:3262   */\n              tag_213\n                /* \"#utility.yul\":3258:3260   */\n              0x40\n                /* \"#utility.yul\":3247:3256   */\n              dup4\n                /* \"#utility.yul\":3243:3261   */\n              add\n                /* \"#utility.yul\":3234:3240   */\n              dup7\n                /* \"#utility.yul\":3190:3262   */\n              tag_135\n              jump\t// in\n            tag_213:\n                /* \"#utility.yul\":3272:3344   */\n              tag_214\n                /* \"#utility.yul\":3340:3342   */\n              0x60\n                /* \"#utility.yul\":3329:3338   */\n              dup4\n                /* \"#utility.yul\":3325:3343   */\n              add\n                /* \"#utility.yul\":3316:3322   */\n              dup6\n                /* \"#utility.yul\":3272:3344   */\n              tag_135\n              jump\t// in\n            tag_214:\n                /* \"#utility.yul\":3354:3427   */\n              tag_215\n                /* \"#utility.yul\":3422:3425   */\n              0x80\n                /* \"#utility.yul\":3411:3420   */\n              dup4\n                /* \"#utility.yul\":3407:3426   */\n              add\n                /* \"#utility.yul\":3398:3404   */\n              dup5\n                /* \"#utility.yul\":3354:3427   */\n              tag_136\n              jump\t// in\n            tag_215:\n                /* \"#utility.yul\":2770:3434   */\n              swap7\n              swap6\n              pop\n              pop\n              pop\n              pop\n              pop\n              pop\n              jump\t// out\n                /* \"#utility.yul\":3440:3662   */\n            tag_39:\n                /* \"#utility.yul\":3533:3537   */\n              0x00\n                /* \"#utility.yul\":3571:3573   */\n              0x20\n                /* \"#utility.yul\":3560:3569   */\n              dup3\n                /* \"#utility.yul\":3556:3574   */\n              add\n                /* \"#utility.yul\":3548:3574   */\n              swap1\n              pop\n                /* \"#utility.yul\":3584:3655   */\n              tag_217\n                /* \"#utility.yul\":3652:3653   */\n              0x00\n                /* \"#utility.yul\":3641:3650   */\n              dup4\n                /* \"#utility.yul\":3637:3654   */\n              add\n                /* \"#utility.yul\":3628:3634   */\n              dup5\n                /* \"#utility.yul\":3584:3655   */\n              tag_136\n              jump\t// in\n            tag_217:\n                /* \"#utility.yul\":3440:3662   */\n              swap3\n              swap2\n              pop\n              pop\n              jump\t// out\n                /* \"#utility.yul\":3668:3767   */\n            tag_137:\n                /* \"#utility.yul\":3720:3726   */\n              0x00\n                /* \"#utility.yul\":3754:3759   */\n              dup2\n                /* \"#utility.yul\":3748:3760   */\n              mload\n                /* \"#utility.yul\":3738:3760   */\n              swap1\n              pop\n                /* \"#utility.yul\":3668:3767   */\n              swap2\n              swap1\n              pop\n              jump\t// out\n                /* \"#utility.yul\":3773:3942   */\n            tag_138:\n                /* \"#utility.yul\":3857:3868   */\n              0x00\n                /* \"#utility.yul\":3891:3897   */\n              dup3\n                /* \"#utility.yul\":3886:3889   */\n              dup3\n                /* \"#utility.yul\":3879:3898   */\n              mstore\n                /* \"#utility.yul\":3931:3935   */\n              0x20\n                /* \"#utility.yul\":3926:3929   */\n              dup3\n                /* \"#utility.yul\":3922:3936   */\n              add\n                /* \"#utility.yul\":3907:3936   */\n              swap1\n              pop\n                /* \"#utility.yul\":3773:3942   */\n              swap3\n              swap2\n              pop\n              pop\n              jump\t// out\n                /* \"#utility.yul\":3948:4194   */\n            tag_139:\n                /* \"#utility.yul\":4029:4030   */\n              0x00\n                /* \"#utility.yul\":4039:4152   */\n            tag_221:\n                /* \"#utility.yul\":4053:4059   */\n              dup4\n                /* \"#utility.yul\":4050:4051   */\n              dup2\n                /* \"#utility.yul\":4047:4060   */\n              lt\n                /* \"#utility.yul\":4039:4152   */\n              iszero\n              tag_223\n              jumpi\n                /* \"#utility.yul\":4138:4139   */\n              dup1\n                /* \"#utility.yul\":4133:4136   */\n              dup3\n                /* \"#utility.yul\":4129:4140   */\n              add\n                /* \"#utility.yul\":4123:4141   */\n              mload\n                /* \"#utility.yul\":4119:4120   */\n              dup2\n                /* \"#utility.yul\":4114:4117   */\n              dup5\n                /* \"#utility.yul\":4110:4121   */\n              add\n                /* \"#utility.yul\":4103:4142   */\n              mstore\n                /* \"#utility.yul\":4075:4077   */\n              0x20\n                /* \"#utility.yul\":4072:4073   */\n              dup2\n                /* \"#utility.yul\":4068:4078   */\n              add\n                /* \"#utility.yul\":4063:4078   */\n              swap1\n              pop\n                /* \"#utility.yul\":4039:4152   */\n              jump(tag_221)\n            tag_223:\n                /* \"#utility.yul\":4186:4187   */\n              0x00\n                /* \"#utility.yul\":4177:4183   */\n              dup5\n                /* \"#utility.yul\":4172:4175   */\n              dup5\n                /* \"#utility.yul\":4168:4184   */\n              add\n                /* \"#utility.yul\":4161:4188   */\n              mstore\n                /* \"#utility.yul\":4010:4194   */\n              pop\n                /* \"#utility.yul\":3948:4194   */\n              pop\n              pop\n              pop\n              jump\t// out\n                /* \"#utility.yul\":4200:4302   */\n            tag_140:\n                /* \"#utility.yul\":4241:4247   */\n              0x00\n                /* \"#utility.yul\":4292:4294   */\n              0x1f\n                /* \"#utility.yul\":4288:4295   */\n              not\n                /* \"#utility.yul\":4283:4285   */\n              0x1f\n                /* \"#utility.yul\":4276:4281   */\n              dup4\n                /* \"#utility.yul\":4272:4286   */\n              add\n                /* \"#utility.yul\":4268:4296   */\n              and\n                /* \"#utility.yul\":4258:4296   */\n              swap1\n              pop\n                /* \"#utility.yul\":4200:4302   */\n              swap2\n              swap1\n              pop\n              jump\t// out\n                /* \"#utility.yul\":4308:4685   */\n            tag_141:\n                /* \"#utility.yul\":4396:4399   */\n              0x00\n                /* \"#utility.yul\":4424:4463   */\n              tag_226\n                /* \"#utility.yul\":4457:4462   */\n              dup3\n                /* \"#utility.yul\":4424:4463   */\n              tag_137\n              jump\t// in\n            tag_226:\n                /* \"#utility.yul\":4479:4550   */\n              tag_227\n                /* \"#utility.yul\":4543:4549   */\n              dup2\n                /* \"#utility.yul\":4538:4541   */\n              dup6\n                /* \"#utility.yul\":4479:4550   */\n              tag_138\n              jump\t// in\n            tag_227:\n                /* \"#utility.yul\":4472:4550   */\n              swap4\n              pop\n                /* \"#utility.yul\":4559:4624   */\n              tag_228\n                /* \"#utility.yul\":4617:4623   */\n              dup2\n                /* \"#utility.yul\":4612:4615   */\n              dup6\n                /* \"#utility.yul\":4605:4609   */\n              0x20\n                /* \"#utility.yul\":4598:4603   */\n              dup7\n                /* \"#utility.yul\":4594:4610   */\n              add\n                /* \"#utility.yul\":4559:4624   */\n              tag_139\n              jump\t// in\n            tag_228:\n                /* \"#utility.yul\":4649:4678   */\n              tag_229\n                /* \"#utility.yul\":4671:4677   */\n              dup2\n                /* \"#utility.yul\":4649:4678   */\n              tag_140\n              jump\t// in\n            tag_229:\n                /* \"#utility.yul\":4644:4647   */\n              dup5\n                /* \"#utility.yul\":4640:4679   */\n              add\n                /* \"#utility.yul\":4633:4679   */\n              swap2\n              pop\n                /* \"#utility.yul\":4400:4685   */\n              pop\n                /* \"#utility.yul\":4308:4685   */\n              swap3\n              swap2\n              pop\n              pop\n              jump\t// out\n                /* \"#utility.yul\":4691:4795   */\n            tag_142:\n                /* \"#utility.yul\":4736:4743   */\n              0x00\n                /* \"#utility.yul\":4765:4789   */\n              tag_231\n                /* \"#utility.yul\":4783:4788   */\n              dup3\n                /* \"#utility.yul\":4765:4789   */\n              tag_129\n              jump\t// in\n            tag_231:\n                /* \"#utility.yul\":4754:4789   */\n              swap1\n              pop\n                /* \"#utility.yul\":4691:4795   */\n              swap2\n              swap1\n              pop\n              jump\t// out\n                /* \"#utility.yul\":4801:4943   */\n            tag_143:\n                /* \"#utility.yul\":4904:4936   */\n              tag_233\n                /* \"#utility.yul\":4930:4935   */\n              dup2\n                /* \"#utility.yul\":4904:4936   */\n              tag_142\n              jump\t// in\n            tag_233:\n                /* \"#utility.yul\":4899:4902   */\n              dup3\n                /* \"#utility.yul\":4892:4937   */\n              mstore\n                /* \"#utility.yul\":4801:4943   */\n              pop\n              pop\n              jump\t// out\n                /* \"#utility.yul\":4949:5724   */\n            tag_49:\n                /* \"#utility.yul\":5184:5188   */\n              0x00\n                /* \"#utility.yul\":5222:5225   */\n              0xa0\n                /* \"#utility.yul\":5211:5220   */\n              dup3\n                /* \"#utility.yul\":5207:5226   */\n              add\n                /* \"#utility.yul\":5199:5226   */\n              swap1\n              pop\n                /* \"#utility.yul\":5272:5281   */\n              dup2\n                /* \"#utility.yul\":5266:5270   */\n              dup2\n                /* \"#utility.yul\":5262:5282   */\n              sub\n                /* \"#utility.yul\":5258:5259   */\n              0x00\n                /* \"#utility.yul\":5247:5256   */\n              dup4\n                /* \"#utility.yul\":5243:5260   */\n              add\n                /* \"#utility.yul\":5236:5283   */\n              mstore\n                /* \"#utility.yul\":5300:5378   */\n              tag_235\n                /* \"#utility.yul\":5373:5377   */\n              dup2\n                /* \"#utility.yul\":5364:5370   */\n              dup9\n                /* \"#utility.yul\":5300:5378   */\n              tag_141\n              jump\t// in\n            tag_235:\n                /* \"#utility.yul\":5292:5378   */\n              swap1\n              pop\n                /* \"#utility.yul\":5388:5460   */\n              tag_236\n                /* \"#utility.yul\":5456:5458   */\n              0x20\n                /* \"#utility.yul\":5445:5454   */\n              dup4\n                /* \"#utility.yul\":5441:5459   */\n              add\n                /* \"#utility.yul\":5432:5438   */\n              dup8\n                /* \"#utility.yul\":5388:5460   */\n              tag_135\n              jump\t// in\n            tag_236:\n                /* \"#utility.yul\":5470:5558   */\n              tag_237\n                /* \"#utility.yul\":5554:5556   */\n              0x40\n                /* \"#utility.yul\":5543:5552   */\n              dup4\n                /* \"#utility.yul\":5539:5557   */\n              add\n                /* \"#utility.yul\":5530:5536   */\n              dup7\n                /* \"#utility.yul\":5470:5558   */\n              tag_143\n              jump\t// in\n            tag_237:\n                /* \"#utility.yul\":5568:5634   */\n              tag_238\n                /* \"#utility.yul\":5630:5632   */\n              0x60\n                /* \"#utility.yul\":5619:5628   */\n              dup4\n                /* \"#utility.yul\":5615:5633   */\n              add\n                /* \"#utility.yul\":5606:5612   */\n              dup6\n                /* \"#utility.yul\":5568:5634   */\n              tag_134\n              jump\t// in\n            tag_238:\n                /* \"#utility.yul\":5644:5717   */\n              tag_239\n                /* \"#utility.yul\":5712:5715   */\n              0x80\n                /* \"#utility.yul\":5701:5710   */\n              dup4\n                /* \"#utility.yul\":5697:5716   */\n              add\n                /* \"#utility.yul\":5688:5694   */\n              dup5\n                /* \"#utility.yul\":5644:5717   */\n              tag_135\n              jump\t// in\n            tag_239:\n                /* \"#utility.yul\":4949:5724   */\n              swap7\n              swap6\n              pop\n              pop\n              pop\n              pop\n              pop\n              pop\n              jump\t// out\n                /* \"#utility.yul\":5730:5847   */\n            tag_144:\n                /* \"#utility.yul\":5839:5840   */\n              0x00\n                /* \"#utility.yul\":5836:5837   */\n              dup1\n                /* \"#utility.yul\":5829:5841   */\n              revert\n                /* \"#utility.yul\":5853:5970   */\n            tag_145:\n                /* \"#utility.yul\":5962:5963   */\n              0x00\n                /* \"#utility.yul\":5959:5960   */\n              dup1\n                /* \"#utility.yul\":5952:5964   */\n              revert\n                /* \"#utility.yul\":5976:6156   */\n            tag_146:\n                /* \"#utility.yul\":6024:6101   */\n              0x4e487b7100000000000000000000000000000000000000000000000000000000\n                /* \"#utility.yul\":6021:6022   */\n              0x00\n                /* \"#utility.yul\":6014:6102   */\n              mstore\n                /* \"#utility.yul\":6121:6125   */\n              0x41\n                /* \"#utility.yul\":6118:6119   */\n              0x04\n                /* \"#utility.yul\":6111:6126   */\n              mstore\n                /* \"#utility.yul\":6145:6149   */\n              0x24\n                /* \"#utility.yul\":6142:6143   */\n              0x00\n                /* \"#utility.yul\":6135:6150   */\n              revert\n                /* \"#utility.yul\":6162:6443   */\n            tag_147:\n                /* \"#utility.yul\":6245:6272   */\n              tag_244\n                /* \"#utility.yul\":6267:6271   */\n              dup3\n                /* \"#utility.yul\":6245:6272   */\n              tag_140\n              jump\t// in\n            tag_244:\n                /* \"#utility.yul\":6237:6243   */\n              dup2\n                /* \"#utility.yul\":6233:6273   */\n              add\n                /* \"#utility.yul\":6375:6381   */\n              dup2\n                /* \"#utility.yul\":6363:6373   */\n              dup2\n                /* \"#utility.yul\":6360:6382   */\n              lt\n                /* \"#utility.yul\":6339:6357   */\n              0xffffffffffffffff\n                /* \"#utility.yul\":6327:6337   */\n              dup3\n                /* \"#utility.yul\":6324:6358   */\n              gt\n                /* \"#utility.yul\":6321:6383   */\n              or\n                /* \"#utility.yul\":6318:6406   */\n              iszero\n              tag_245\n              jumpi\n                /* \"#utility.yul\":6386:6404   */\n              tag_246\n              tag_146\n              jump\t// in\n            tag_246:\n                /* \"#utility.yul\":6318:6406   */\n            tag_245:\n                /* \"#utility.yul\":6426:6436   */\n              dup1\n                /* \"#utility.yul\":6422:6424   */\n              0x40\n                /* \"#utility.yul\":6415:6437   */\n              mstore\n                /* \"#utility.yul\":6205:6443   */\n              pop\n                /* \"#utility.yul\":6162:6443   */\n              pop\n              pop\n              jump\t// out\n                /* \"#utility.yul\":6449:6578   */\n            tag_148:\n                /* \"#utility.yul\":6483:6489   */\n              0x00\n                /* \"#utility.yul\":6510:6530   */\n              tag_248\n              tag_123\n              jump\t// in\n            tag_248:\n                /* \"#utility.yul\":6500:6530   */\n              swap1\n              pop\n                /* \"#utility.yul\":6539:6572   */\n              tag_249\n                /* \"#utility.yul\":6567:6571   */\n              dup3\n                /* \"#utility.yul\":6559:6565   */\n              dup3\n                /* \"#utility.yul\":6539:6572   */\n              tag_147\n              jump\t// in\n            tag_249:\n                /* \"#utility.yul\":6449:6578   */\n              swap2\n              swap1\n              pop\n              jump\t// out\n                /* \"#utility.yul\":6584:6892   */\n            tag_149:\n                /* \"#utility.yul\":6646:6650   */\n              0x00\n                /* \"#utility.yul\":6736:6754   */\n              0xffffffffffffffff\n                /* \"#utility.yul\":6728:6734   */\n              dup3\n                /* \"#utility.yul\":6725:6755   */\n              gt\n                /* \"#utility.yul\":6722:6778   */\n              iszero\n              tag_251\n              jumpi\n                /* \"#utility.yul\":6758:6776   */\n              tag_252\n              tag_146\n              jump\t// in\n            tag_252:\n                /* \"#utility.yul\":6722:6778   */\n            tag_251:\n                /* \"#utility.yul\":6796:6825   */\n              tag_253\n                /* \"#utility.yul\":6818:6824   */\n              dup3\n                /* \"#utility.yul\":6796:6825   */\n              tag_140\n              jump\t// in\n            tag_253:\n                /* \"#utility.yul\":6788:6825   */\n              swap1\n              pop\n                /* \"#utility.yul\":6880:6884   */\n              0x20\n                /* \"#utility.yul\":6874:6878   */\n              dup2\n                /* \"#utility.yul\":6870:6885   */\n              add\n                /* \"#utility.yul\":6862:6885   */\n              swap1\n              pop\n                /* \"#utility.yul\":6584:6892   */\n              swap2\n              swap1\n              pop\n              jump\t// out\n                /* \"#utility.yul\":6898:7044   */\n            tag_150:\n                /* \"#utility.yul\":6995:7001   */\n              dup3\n                /* \"#utility.yul\":6990:6993   */\n              dup2\n                /* \"#utility.yul\":6985:6988   */\n              dup4\n                /* \"#utility.yul\":6972:7002   */\n              calldatacopy\n                /* \"#utility.yul\":7036:7037   */\n              0x00\n                /* \"#utility.yul\":7027:7033   */\n              dup4\n                /* \"#utility.yul\":7022:7025   */\n              dup4\n                /* \"#utility.yul\":7018:7034   */\n              add\n                /* \"#utility.yul\":7011:7038   */\n              mstore\n                /* \"#utility.yul\":6898:7044   */\n              pop\n              pop\n              pop\n              jump\t// out\n                /* \"#utility.yul\":7050:7475   */\n            tag_151:\n                /* \"#utility.yul\":7128:7133   */\n              0x00\n                /* \"#utility.yul\":7153:7219   */\n              tag_256\n                /* \"#utility.yul\":7169:7218   */\n              tag_257\n                /* \"#utility.yul\":7211:7217   */\n              dup5\n                /* \"#utility.yul\":7169:7218   */\n              tag_149\n              jump\t// in\n            tag_257:\n                /* \"#utility.yul\":7153:7219   */\n              tag_148\n              jump\t// in\n            tag_256:\n                /* \"#utility.yul\":7144:7219   */\n              swap1\n              pop\n                /* \"#utility.yul\":7242:7248   */\n              dup3\n                /* \"#utility.yul\":7235:7240   */\n              dup2\n                /* \"#utility.yul\":7228:7249   */\n              mstore\n                /* \"#utility.yul\":7280:7284   */\n              0x20\n                /* \"#utility.yul\":7273:7278   */\n              dup2\n                /* \"#utility.yul\":7269:7285   */\n              add\n                /* \"#utility.yul\":7318:7321   */\n              dup5\n                /* \"#utility.yul\":7309:7315   */\n              dup5\n                /* \"#utility.yul\":7304:7307   */\n              dup5\n                /* \"#utility.yul\":7300:7316   */\n              add\n                /* \"#utility.yul\":7297:7322   */\n              gt\n                /* \"#utility.yul\":7294:7406   */\n              iszero\n              tag_258\n              jumpi\n                /* \"#utility.yul\":7325:7404   */\n              tag_259\n              tag_145\n              jump\t// in\n            tag_259:\n                /* \"#utility.yul\":7294:7406   */\n            tag_258:\n                /* \"#utility.yul\":7415:7469   */\n              tag_260\n                /* \"#utility.yul\":7462:7468   */\n              dup5\n                /* \"#utility.yul\":7457:7460   */\n              dup3\n                /* \"#utility.yul\":7452:7455   */\n              dup6\n                /* \"#utility.yul\":7415:7469   */\n              tag_150\n              jump\t// in\n            tag_260:\n                /* \"#utility.yul\":7134:7475   */\n              pop\n                /* \"#utility.yul\":7050:7475   */\n              swap4\n              swap3\n              pop\n              pop\n              pop\n              jump\t// out\n                /* \"#utility.yul\":7495:7835   */\n            tag_152:\n                /* \"#utility.yul\":7551:7556   */\n              0x00\n                /* \"#utility.yul\":7600:7603   */\n              dup3\n                /* \"#utility.yul\":7593:7597   */\n              0x1f\n                /* \"#utility.yul\":7585:7591   */\n              dup4\n                /* \"#utility.yul\":7581:7598   */\n              add\n                /* \"#utility.yul\":7577:7604   */\n              slt\n                /* \"#utility.yul\":7567:7689   */\n              tag_262\n              jumpi\n                /* \"#utility.yul\":7608:7687   */\n              tag_263\n              tag_144\n              jump\t// in\n            tag_263:\n                /* \"#utility.yul\":7567:7689   */\n            tag_262:\n                /* \"#utility.yul\":7725:7731   */\n              dup2\n                /* \"#utility.yul\":7712:7732   */\n              calldataload\n                /* \"#utility.yul\":7750:7829   */\n              tag_264\n                /* \"#utility.yul\":7825:7828   */\n              dup5\n                /* \"#utility.yul\":7817:7823   */\n              dup3\n                /* \"#utility.yul\":7810:7814   */\n              0x20\n                /* \"#utility.yul\":7802:7808   */\n              dup7\n                /* \"#utility.yul\":7798:7815   */\n              add\n                /* \"#utility.yul\":7750:7829   */\n              tag_151\n              jump\t// in\n            tag_264:\n                /* \"#utility.yul\":7741:7829   */\n              swap2\n              pop\n                /* \"#utility.yul\":7557:7835   */\n              pop\n                /* \"#utility.yul\":7495:7835   */\n              swap3\n              swap2\n              pop\n              pop\n              jump\t// out\n                /* \"#utility.yul\":7841:7979   */\n            tag_153:\n                /* \"#utility.yul\":7922:7954   */\n              tag_266\n                /* \"#utility.yul\":7948:7953   */\n              dup2\n                /* \"#utility.yul\":7922:7954   */\n              tag_142\n              jump\t// in\n            tag_266:\n                /* \"#utility.yul\":7915:7920   */\n              dup2\n                /* \"#utility.yul\":7912:7955   */\n              eq\n                /* \"#utility.yul\":7902:7973   */\n              tag_267\n              jumpi\n                /* \"#utility.yul\":7969:7970   */\n              0x00\n                /* \"#utility.yul\":7966:7967   */\n              dup1\n                /* \"#utility.yul\":7959:7971   */\n              revert\n                /* \"#utility.yul\":7902:7973   */\n            tag_267:\n                /* \"#utility.yul\":7841:7979   */\n              pop\n              jump\t// out\n                /* \"#utility.yul\":7985:8140   */\n            tag_154:\n                /* \"#utility.yul\":8039:8044   */\n              0x00\n                /* \"#utility.yul\":8077:8083   */\n              dup2\n                /* \"#utility.yul\":8064:8084   */\n              calldataload\n                /* \"#utility.yul\":8055:8084   */\n              swap1\n              pop\n                /* \"#utility.yul\":8093:8134   */\n              tag_269\n                /* \"#utility.yul\":8128:8133   */\n              dup2\n                /* \"#utility.yul\":8093:8134   */\n              tag_153\n              jump\t// in\n            tag_269:\n                /* \"#utility.yul\":7985:8140   */\n              swap3\n              swap2\n              pop\n              pop\n              jump\t// out\n                /* \"#utility.yul\":8146:8961   */\n            tag_53:\n                /* \"#utility.yul\":8241:8247   */\n              0x00\n                /* \"#utility.yul\":8249:8255   */\n              dup1\n                /* \"#utility.yul\":8257:8263   */\n              0x00\n                /* \"#utility.yul\":8306:8308   */\n              0x60\n                /* \"#utility.yul\":8294:8303   */\n              dup5\n                /* \"#utility.yul\":8285:8292   */\n              dup7\n                /* \"#utility.yul\":8281:8304   */\n              sub\n                /* \"#utility.yul\":8277:8309   */\n              slt\n                /* \"#utility.yul\":8274:8393   */\n              iszero\n              tag_271\n              jumpi\n                /* \"#utility.yul\":8312:8391   */\n              tag_272\n              tag_124\n              jump\t// in\n            tag_272:\n                /* \"#utility.yul\":8274:8393   */\n            tag_271:\n                /* \"#utility.yul\":8460:8461   */\n              0x00\n                /* \"#utility.yul\":8449:8458   */\n              dup5\n                /* \"#utility.yul\":8445:8462   */\n              add\n                /* \"#utility.yul\":8432:8463   */\n              calldataload\n                /* \"#utility.yul\":8490:8508   */\n              0xffffffffffffffff\n                /* \"#utility.yul\":8482:8488   */\n              dup2\n                /* \"#utility.yul\":8479:8509   */\n              gt\n                /* \"#utility.yul\":8476:8593   */\n              iszero\n              tag_273\n              jumpi\n                /* \"#utility.yul\":8512:8591   */\n              tag_274\n              tag_125\n              jump\t// in\n            tag_274:\n                /* \"#utility.yul\":8476:8593   */\n            tag_273:\n                /* \"#utility.yul\":8617:8680   */\n              tag_275\n                /* \"#utility.yul\":8672:8679   */\n              dup7\n                /* \"#utility.yul\":8663:8669   */\n              dup3\n                /* \"#utility.yul\":8652:8661   */\n              dup8\n                /* \"#utility.yul\":8648:8670   */\n              add\n                /* \"#utility.yul\":8617:8680   */\n              tag_152\n              jump\t// in\n            tag_275:\n                /* \"#utility.yul\":8607:8680   */\n              swap4\n              pop\n                /* \"#utility.yul\":8403:8690   */\n              pop\n                /* \"#utility.yul\":8729:8731   */\n              0x20\n                /* \"#utility.yul\":8755:8808   */\n              tag_276\n                /* \"#utility.yul\":8800:8807   */\n              dup7\n                /* \"#utility.yul\":8791:8797   */\n              dup3\n                /* \"#utility.yul\":8780:8789   */\n              dup8\n                /* \"#utility.yul\":8776:8798   */\n              add\n                /* \"#utility.yul\":8755:8808   */\n              tag_128\n              jump\t// in\n            tag_276:\n                /* \"#utility.yul\":8745:8808   */\n              swap3\n              pop\n                /* \"#utility.yul\":8700:8818   */\n              pop\n                /* \"#utility.yul\":8857:8859   */\n              0x40\n                /* \"#utility.yul\":8883:8944   */\n              tag_277\n                /* \"#utility.yul\":8936:8943   */\n              dup7\n                /* \"#utility.yul\":8927:8933   */\n              dup3\n                /* \"#utility.yul\":8916:8925   */\n              dup8\n                /* \"#utility.yul\":8912:8934   */\n              add\n                /* \"#utility.yul\":8883:8944   */\n              tag_154\n              jump\t// in\n            tag_277:\n                /* \"#utility.yul\":8873:8944   */\n              swap2\n              pop\n                /* \"#utility.yul\":8828:8954   */\n              pop\n                /* \"#utility.yul\":8146:8961   */\n              swap3\n              pop\n              swap3\n              pop\n              swap3\n              jump\t// out\n                /* \"#utility.yul\":8967:9147   */\n            tag_70:\n                /* \"#utility.yul\":9015:9092   */\n              0x4e487b7100000000000000000000000000000000000000000000000000000000\n                /* \"#utility.yul\":9012:9013   */\n              0x00\n                /* \"#utility.yul\":9005:9093   */\n              mstore\n                /* \"#utility.yul\":9112:9116   */\n              0x32\n                /* \"#utility.yul\":9109:9110   */\n              0x04\n                /* \"#utility.yul\":9102:9117   */\n              mstore\n                /* \"#utility.yul\":9136:9140   */\n              0x24\n                /* \"#utility.yul\":9133:9134   */\n              0x00\n                /* \"#utility.yul\":9126:9141   */\n              revert\n                /* \"#utility.yul\":9153:9333   */\n            tag_155:\n                /* \"#utility.yul\":9201:9278   */\n              0x4e487b7100000000000000000000000000000000000000000000000000000000\n                /* \"#utility.yul\":9198:9199   */\n              0x00\n                /* \"#utility.yul\":9191:9279   */\n              mstore\n                /* \"#utility.yul\":9298:9302   */\n              0x12\n                /* \"#utility.yul\":9295:9296   */\n              0x04\n                /* \"#utility.yul\":9288:9303   */\n              mstore\n                /* \"#utility.yul\":9322:9326   */\n              0x24\n                /* \"#utility.yul\":9319:9320   */\n              0x00\n                /* \"#utility.yul\":9312:9327   */\n              revert\n                /* \"#utility.yul\":9339:9519   */\n            tag_156:\n                /* \"#utility.yul\":9387:9464   */\n              0x4e487b7100000000000000000000000000000000000000000000000000000000\n                /* \"#utility.yul\":9384:9385   */\n              0x00\n                /* \"#utility.yul\":9377:9465   */\n              mstore\n                /* \"#utility.yul\":9484:9488   */\n              0x11\n                /* \"#utility.yul\":9481:9482   */\n              0x04\n                /* \"#utility.yul\":9474:9489   */\n              mstore\n                /* \"#utility.yul\":9508:9512   */\n              0x24\n                /* \"#utility.yul\":9505:9506   */\n              0x00\n                /* \"#utility.yul\":9498:9513   */\n              revert\n                /* \"#utility.yul\":9525:9710   */\n            tag_74:\n                /* \"#utility.yul\":9565:9566   */\n              0x00\n                /* \"#utility.yul\":9582:9602   */\n              tag_282\n                /* \"#utility.yul\":9600:9601   */\n              dup3\n                /* \"#utility.yul\":9582:9602   */\n              tag_126\n              jump\t// in\n            tag_282:\n                /* \"#utility.yul\":9577:9602   */\n              swap2\n              pop\n                /* \"#utility.yul\":9616:9636   */\n              tag_283\n                /* \"#utility.yul\":9634:9635   */\n              dup4\n                /* \"#utility.yul\":9616:9636   */\n              tag_126\n              jump\t// in\n            tag_283:\n                /* \"#utility.yul\":9611:9636   */\n              swap3\n              pop\n                /* \"#utility.yul\":9655:9656   */\n              dup3\n                /* \"#utility.yul\":9645:9680   */\n              tag_284\n              jumpi\n                /* \"#utility.yul\":9660:9678   */\n              tag_285\n              tag_155\n              jump\t// in\n            tag_285:\n                /* \"#utility.yul\":9645:9680   */\n            tag_284:\n                /* \"#utility.yul\":9702:9703   */\n              dup3\n                /* \"#utility.yul\":9699:9700   */\n              dup3\n                /* \"#utility.yul\":9695:9704   */\n              div\n                /* \"#utility.yul\":9690:9704   */\n              swap1\n              pop\n                /* \"#utility.yul\":9525:9710   */\n              swap3\n              swap2\n              pop\n              pop\n              jump\t// out\n                /* \"#utility.yul\":9716:9896   */\n            tag_157:\n                /* \"#utility.yul\":9764:9841   */\n              0x4e487b7100000000000000000000000000000000000000000000000000000000\n                /* \"#utility.yul\":9761:9762   */\n              0x00\n                /* \"#utility.yul\":9754:9842   */\n              mstore\n                /* \"#utility.yul\":9861:9865   */\n              0x22\n                /* \"#utility.yul\":9858:9859   */\n              0x04\n                /* \"#utility.yul\":9851:9866   */\n              mstore\n                /* \"#utility.yul\":9885:9889   */\n              0x24\n                /* \"#utility.yul\":9882:9883   */\n              0x00\n                /* \"#utility.yul\":9875:9890   */\n              revert\n                /* \"#utility.yul\":9902:10222   */\n            tag_95:\n                /* \"#utility.yul\":9946:9952   */\n              0x00\n                /* \"#utility.yul\":9983:9984   */\n              0x02\n                /* \"#utility.yul\":9977:9981   */\n              dup3\n                /* \"#utility.yul\":9973:9985   */\n              div\n                /* \"#utility.yul\":9963:9985   */\n              swap1\n              pop\n                /* \"#utility.yul\":10030:10031   */\n              0x01\n                /* \"#utility.yul\":10024:10028   */\n              dup3\n                /* \"#utility.yul\":10020:10032   */\n              and\n                /* \"#utility.yul\":10051:10069   */\n              dup1\n                /* \"#utility.yul\":10041:10122   */\n              tag_288\n              jumpi\n                /* \"#utility.yul\":10107:10111   */\n              0x7f\n                /* \"#utility.yul\":10099:10105   */\n              dup3\n                /* \"#utility.yul\":10095:10112   */\n              and\n                /* \"#utility.yul\":10085:10112   */\n              swap2\n              pop\n                /* \"#utility.yul\":10041:10122   */\n            tag_288:\n                /* \"#utility.yul\":10169:10171   */\n              0x20\n                /* \"#utility.yul\":10161:10167   */\n              dup3\n                /* \"#utility.yul\":10158:10172   */\n              lt\n                /* \"#utility.yul\":10138:10156   */\n              dup2\n                /* \"#utility.yul\":10135:10173   */\n              sub\n                /* \"#utility.yul\":10132:10216   */\n              tag_289\n              jumpi\n                /* \"#utility.yul\":10188:10206   */\n              tag_290\n              tag_157\n              jump\t// in\n            tag_290:\n                /* \"#utility.yul\":10132:10216   */\n            tag_289:\n                /* \"#utility.yul\":9953:10222   */\n              pop\n                /* \"#utility.yul\":9902:10222   */\n              swap2\n              swap1\n              pop\n              jump\t// out\n                /* \"#utility.yul\":10228:10369   */\n            tag_158:\n                /* \"#utility.yul\":10277:10281   */\n              0x00\n                /* \"#utility.yul\":10300:10303   */\n              dup2\n                /* \"#utility.yul\":10292:10303   */\n              swap1\n              pop\n                /* \"#utility.yul\":10323:10326   */\n              dup2\n                /* \"#utility.yul\":10320:10321   */\n              0x00\n                /* \"#utility.yul\":10313:10327   */\n              mstore\n                /* \"#utility.yul\":10357:10361   */\n              0x20\n                /* \"#utility.yul\":10354:10355   */\n              0x00\n                /* \"#utility.yul\":10344:10362   */\n              keccak256\n                /* \"#utility.yul\":10336:10362   */\n              swap1\n              pop\n                /* \"#utility.yul\":10228:10369   */\n              swap2\n              swap1\n              pop\n              jump\t// out\n                /* \"#utility.yul\":10375:10468   */\n            tag_159:\n                /* \"#utility.yul\":10412:10418   */\n              0x00\n                /* \"#utility.yul\":10459:10461   */\n              0x20\n                /* \"#utility.yul\":10454:10456   */\n              0x1f\n                /* \"#utility.yul\":10447:10452   */\n              dup4\n                /* \"#utility.yul\":10443:10457   */\n              add\n                /* \"#utility.yul\":10439:10462   */\n              div\n                /* \"#utility.yul\":10429:10462   */\n              swap1\n              pop\n                /* \"#utility.yul\":10375:10468   */\n              swap2\n              swap1\n              pop\n              jump\t// out\n                /* \"#utility.yul\":10474:10581   */\n            tag_160:\n                /* \"#utility.yul\":10518:10526   */\n              0x00\n                /* \"#utility.yul\":10568:10573   */\n              dup3\n                /* \"#utility.yul\":10562:10566   */\n              dup3\n                /* \"#utility.yul\":10558:10574   */\n              shl\n                /* \"#utility.yul\":10537:10574   */\n              swap1\n              pop\n                /* \"#utility.yul\":10474:10581   */\n              swap3\n              swap2\n              pop\n              pop\n              jump\t// out\n                /* \"#utility.yul\":10587:10980   */\n            tag_161:\n                /* \"#utility.yul\":10656:10662   */\n              0x00\n                /* \"#utility.yul\":10706:10707   */\n              0x08\n                /* \"#utility.yul\":10694:10704   */\n              dup4\n                /* \"#utility.yul\":10690:10708   */\n              mul\n                /* \"#utility.yul\":10729:10826   */\n              tag_295\n                /* \"#utility.yul\":10759:10825   */\n              0xffffffffffffffffffffffffffffffffffffffffffffffffffffffffffffffff\n                /* \"#utility.yul\":10748:10757   */\n              dup3\n                /* \"#utility.yul\":10729:10826   */\n              tag_160\n              jump\t// in\n            tag_295:\n                /* \"#utility.yul\":10847:10886   */\n              tag_296\n                /* \"#utility.yul\":10877:10885   */\n              dup7\n                /* \"#utility.yul\":10866:10875   */\n              dup4\n                /* \"#utility.yul\":10847:10886   */\n              tag_160\n              jump\t// in\n            tag_296:\n                /* \"#utility.yul\":10835:10886   */\n              swap6\n              pop\n                /* \"#utility.yul\":10919:10923   */\n              dup1\n                /* \"#utility.yul\":10915:10924   */\n              not\n                /* \"#utility.yul\":10908:10913   */\n              dup5\n                /* \"#utility.yul\":10904:10925   */\n              and\n                /* \"#utility.yul\":10895:10925   */\n              swap4\n              pop\n                /* \"#utility.yul\":10968:10972   */\n              dup1\n                /* \"#utility.yul\":10958:10966   */\n              dup7\n                /* \"#utility.yul\":10954:10973   */\n              and\n                /* \"#utility.yul\":10947:10952   */\n              dup5\n                /* \"#utility.yul\":10944:10974   */\n              or\n                /* \"#utility.yul\":10934:10974   */\n              swap3\n              pop\n                /* \"#utility.yul\":10663:10980   */\n              pop\n              pop\n                /* \"#utility.yul\":10587:10980   */\n              swap4\n              swap3\n              pop\n              pop\n              pop\n              jump\t// out\n                /* \"#utility.yul\":10986:11046   */\n            tag_162:\n                /* \"#utility.yul\":11014:11017   */\n              0x00\n                /* \"#utility.yul\":11035:11040   */\n              dup2\n                /* \"#utility.yul\":11028:11040   */\n              swap1\n              pop\n                /* \"#utility.yul\":10986:11046   */\n              swap2\n              swap1\n              pop\n              jump\t// out\n                /* \"#utility.yul\":11052:11194   */\n            tag_163:\n                /* \"#utility.yul\":11102:11111   */\n              0x00\n                /* \"#utility.yul\":11135:11188   */\n              tag_299\n                /* \"#utility.yul\":11153:11187   */\n              tag_300\n                /* \"#utility.yul\":11162:11186   */\n              tag_301\n                /* \"#utility.yul\":11180:11185   */\n              dup5\n                /* \"#utility.yul\":11162:11186   */\n              tag_126\n              jump\t// in\n            tag_301:\n                /* \"#utility.yul\":11153:11187   */\n              tag_162\n              jump\t// in\n            tag_300:\n                /* \"#utility.yul\":11135:11188   */\n              tag_126\n              jump\t// in\n            tag_299:\n                /* \"#utility.yul\":11122:11188   */\n              swap1\n              pop\n                /* \"#utility.yul\":11052:11194   */\n              swap2\n              swap1\n              pop\n              jump\t// out\n                /* \"#utility.yul\":11200:11275   */\n            tag_164:\n                /* \"#utility.yul\":11243:11246   */\n              0x00\n                /* \"#utility.yul\":11264:11269   */\n              dup2\n                /* \"#utility.yul\":11257:11269   */\n              swap1\n              pop\n                /* \"#utility.yul\":11200:11275   */\n              swap2\n              swap1\n              pop\n              jump\t// out\n                /* \"#utility.yul\":11281:11550   */\n            tag_165:\n                /* \"#utility.yul\":11391:11430   */\n              tag_304\n                /* \"#utility.yul\":11422:11429   */\n              dup4\n                /* \"#utility.yul\":11391:11430   */\n              tag_163\n              jump\t// in\n            tag_304:\n                /* \"#utility.yul\":11452:11543   */\n              tag_305\n                /* \"#utility.yul\":11501:11542   */\n              tag_306\n                /* \"#utility.yul\":11525:11541   */\n              dup3\n                /* \"#utility.yul\":11501:11542   */\n              tag_164\n              jump\t// in\n            tag_306:\n                /* \"#utility.yul\":11493:11499   */\n              dup5\n                /* \"#utility.yul\":11486:11490   */\n              dup5\n                /* \"#utility.yul\":11480:11491   */\n              sload\n                /* \"#utility.yul\":11452:11543   */\n              tag_161\n              jump\t// in\n            tag_305:\n                /* \"#utility.yul\":11446:11450   */\n              dup3\n                /* \"#utility.yul\":11439:11544   */\n              sstore\n                /* \"#utility.yul\":11357:11550   */\n              pop\n                /* \"#utility.yul\":11281:11550   */\n              pop\n              pop\n              pop\n              jump\t// out\n                /* \"#utility.yul\":11556:11629   */\n            tag_166:\n                /* \"#utility.yul\":11601:11604   */\n              0x00\n                /* \"#utility.yul\":11556:11629   */\n              swap1\n              jump\t// out\n                /* \"#utility.yul\":11635:11824   */\n            tag_167:\n                /* \"#utility.yul\":11712:11744   */\n              tag_309\n              tag_166\n              jump\t// in\n            tag_309:\n                /* \"#utility.yul\":11753:11818   */\n              tag_310\n                /* \"#utility.yul\":11811:11817   */\n              dup2\n                /* \"#utility.yul\":11803:11809   */\n              dup5\n                /* \"#utility.yul\":11797:11801   */\n              dup5\n                /* \"#utility.yul\":11753:11818   */\n              tag_165\n              jump\t// in\n            tag_310:\n                /* \"#utility.yul\":11688:11824   */\n              pop\n                /* \"#utility.yul\":11635:11824   */\n              pop\n              pop\n              jump\t// out\n                /* \"#utility.yul\":11830:12016   */\n            tag_168:\n                /* \"#utility.yul\":11890:12010   */\n            tag_312:\n                /* \"#utility.yul\":11907:11910   */\n              dup2\n                /* \"#utility.yul\":11900:11905   */\n              dup2\n                /* \"#utility.yul\":11897:11911   */\n              lt\n                /* \"#utility.yul\":11890:12010   */\n              iszero\n              tag_314\n              jumpi\n                /* \"#utility.yul\":11961:12000   */\n              tag_315\n                /* \"#utility.yul\":11998:11999   */\n              0x00\n                /* \"#utility.yul\":11991:11996   */\n              dup3\n                /* \"#utility.yul\":11961:12000   */\n              tag_167\n              jump\t// in\n            tag_315:\n                /* \"#utility.yul\":11934:11935   */\n              0x01\n                /* \"#utility.yul\":11927:11932   */\n              dup2\n                /* \"#utility.yul\":11923:11936   */\n              add\n                /* \"#utility.yul\":11914:11936   */\n              swap1\n              pop\n                /* \"#utility.yul\":11890:12010   */\n              jump(tag_312)\n            tag_314:\n                /* \"#utility.yul\":11830:12016   */\n              pop\n              pop\n              jump\t// out\n                /* \"#utility.yul\":12022:12565   */\n            tag_169:\n                /* \"#utility.yul\":12123:12125   */\n              0x1f\n                /* \"#utility.yul\":12118:12121   */\n              dup3\n                /* \"#utility.yul\":12115:12126   */\n              gt\n                /* \"#utility.yul\":12112:12558   */\n              iszero\n              tag_317\n              jumpi\n                /* \"#utility.yul\":12157:12195   */\n              tag_318\n                /* \"#utility.yul\":12189:12194   */\n              dup2\n                /* \"#utility.yul\":12157:12195   */\n              tag_158\n              jump\t// in\n            tag_318:\n                /* \"#utility.yul\":12241:12270   */\n              tag_319\n                /* \"#utility.yul\":12259:12269   */\n              dup5\n                /* \"#utility.yul\":12241:12270   */\n              tag_159\n              jump\t// in\n            tag_319:\n                /* \"#utility.yul\":12231:12239   */\n              dup2\n                /* \"#utility.yul\":12227:12271   */\n              add\n                /* \"#utility.yul\":12424:12426   */\n              0x20\n                /* \"#utility.yul\":12412:12422   */\n              dup6\n                /* \"#utility.yul\":12409:12427   */\n              lt\n                /* \"#utility.yul\":12406:12455   */\n              iszero\n              tag_320\n              jumpi\n                /* \"#utility.yul\":12445:12453   */\n              dup2\n                /* \"#utility.yul\":12430:12453   */\n              swap1\n              pop\n                /* \"#utility.yul\":12406:12455   */\n            tag_320:\n                /* \"#utility.yul\":12468:12548   */\n              tag_321\n                /* \"#utility.yul\":12524:12546   */\n              tag_322\n                /* \"#utility.yul\":12542:12545   */\n              dup6\n                /* \"#utility.yul\":12524:12546   */\n              tag_159\n              jump\t// in\n            tag_322:\n                /* \"#utility.yul\":12514:12522   */\n              dup4\n                /* \"#utility.yul\":12510:12547   */\n              add\n                /* \"#utility.yul\":12497:12508   */\n              dup3\n                /* \"#utility.yul\":12468:12548   */\n              tag_168\n              jump\t// in\n            tag_321:\n                /* \"#utility.yul\":12127:12558   */\n              pop\n              pop\n                /* \"#utility.yul\":12112:12558   */\n            tag_317:\n                /* \"#utility.yul\":12022:12565   */\n              pop\n              pop\n              pop\n              jump\t// out\n                /* \"#utility.yul\":12571:12688   */\n            tag_170:\n                /* \"#utility.yul\":12625:12633   */\n              0x00\n                /* \"#utility.yul\":12675:12680   */\n              dup3\n                /* \"#utility.yul\":12669:12673   */\n              dup3\n                /* \"#utility.yul\":12665:12681   */\n              shr\n                /* \"#utility.yul\":12644:12681   */\n              swap1\n              pop\n                /* \"#utility.yul\":12571:12688   */\n              swap3\n              swap2\n              pop\n              pop\n              jump\t// out\n                /* \"#utility.yul\":12694:12863   */\n            tag_171:\n                /* \"#utility.yul\":12738:12744   */\n              0x00\n                /* \"#utility.yul\":12771:12822   */\n              tag_325\n                /* \"#utility.yul\":12819:12820   */\n              0x00\n                /* \"#utility.yul\":12815:12821   */\n              not\n                /* \"#utility.yul\":12807:12812   */\n              dup5\n                /* \"#utility.yul\":12804:12805   */\n              0x08\n                /* \"#utility.yul\":12800:12813   */\n              mul\n                /* \"#utility.yul\":12771:12822   */\n              tag_170\n              jump\t// in\n            tag_325:\n                /* \"#utility.yul\":12767:12823   */\n              not\n                /* \"#utility.yul\":12852:12856   */\n              dup1\n                /* \"#utility.yul\":12846:12850   */\n              dup4\n                /* \"#utility.yul\":12842:12857   */\n              and\n                /* \"#utility.yul\":12832:12857   */\n              swap2\n              pop\n                /* \"#utility.yul\":12745:12863   */\n              pop\n                /* \"#utility.yul\":12694:12863   */\n              swap3\n              swap2\n              pop\n              pop\n              jump\t// out\n                /* \"#utility.yul\":12868:13163   */\n            tag_172:\n                /* \"#utility.yul\":12944:12948   */\n              0x00\n                /* \"#utility.yul\":13090:13119   */\n              tag_327\n                /* \"#utility.yul\":13115:13118   */\n              dup4\n                /* \"#utility.yul\":13109:13113   */\n              dup4\n                /* \"#utility.yul\":13090:13119   */\n              tag_171\n              jump\t// in\n            tag_327:\n                /* \"#utility.yul\":13082:13119   */\n              swap2\n              pop\n                /* \"#utility.yul\":13152:13155   */\n              dup3\n                /* \"#utility.yul\":13149:13150   */\n              0x02\n                /* \"#utility.yul\":13145:13156   */\n              mul\n                /* \"#utility.yul\":13139:13143   */\n              dup3\n                /* \"#utility.yul\":13136:13157   */\n              or\n                /* \"#utility.yul\":13128:13157   */\n              swap1\n              pop\n                /* \"#utility.yul\":12868:13163   */\n              swap3\n              swap2\n              pop\n              pop\n              jump\t// out\n                /* \"#utility.yul\":13168:14563   */\n            tag_105:\n                /* \"#utility.yul\":13285:13322   */\n              tag_329\n                /* \"#utility.yul\":13318:13321   */\n              dup3\n                /* \"#utility.yul\":13285:13322   */\n              tag_137\n              jump\t// in\n            tag_329:\n                /* \"#utility.yul\":13387:13405   */\n              0xffffffffffffffff\n                /* \"#utility.yul\":13379:13385   */\n              dup2\n                /* \"#utility.yul\":13376:13406   */\n              gt\n                /* \"#utility.yul\":13373:13429   */\n              iszero\n              tag_330\n              jumpi\n                /* \"#utility.yul\":13409:13427   */\n              tag_331\n              tag_146\n              jump\t// in\n            tag_331:\n                /* \"#utility.yul\":13373:13429   */\n            tag_330:\n                /* \"#utility.yul\":13453:13491   */\n              tag_332\n                /* \"#utility.yul\":13485:13489   */\n              dup3\n                /* \"#utility.yul\":13479:13490   */\n              sload\n                /* \"#utility.yul\":13453:13491   */\n              tag_95\n              jump\t// in\n            tag_332:\n                /* \"#utility.yul\":13538:13605   */\n              tag_333\n                /* \"#utility.yul\":13598:13604   */\n              dup3\n                /* \"#utility.yul\":13590:13596   */\n              dup3\n                /* \"#utility.yul\":13584:13588   */\n              dup6\n                /* \"#utility.yul\":13538:13605   */\n              tag_169\n              jump\t// in\n            tag_333:\n                /* \"#utility.yul\":13632:13633   */\n              0x00\n                /* \"#utility.yul\":13656:13660   */\n              0x20\n                /* \"#utility.yul\":13643:13660   */\n              swap1\n              pop\n                /* \"#utility.yul\":13688:13690   */\n              0x1f\n                /* \"#utility.yul\":13680:13686   */\n              dup4\n                /* \"#utility.yul\":13677:13691   */\n              gt\n                /* \"#utility.yul\":13705:13706   */\n              0x01\n                /* \"#utility.yul\":13700:14318   */\n              dup2\n              eq\n              tag_335\n              jumpi\n                /* \"#utility.yul\":14362:14363   */\n              0x00\n                /* \"#utility.yul\":14379:14385   */\n              dup5\n                /* \"#utility.yul\":14376:14453   */\n              iszero\n              tag_336\n              jumpi\n                /* \"#utility.yul\":14428:14437   */\n              dup3\n                /* \"#utility.yul\":14423:14426   */\n              dup8\n                /* \"#utility.yul\":14419:14438   */\n              add\n                /* \"#utility.yul\":14413:14439   */\n              mload\n                /* \"#utility.yul\":14404:14439   */\n              swap1\n              pop\n                /* \"#utility.yul\":14376:14453   */\n            tag_336:\n                /* \"#utility.yul\":14479:14546   */\n              tag_337\n                /* \"#utility.yul\":14539:14545   */\n              dup6\n                /* \"#utility.yul\":14532:14537   */\n              dup3\n                /* \"#utility.yul\":14479:14546   */\n              tag_172\n              jump\t// in\n            tag_337:\n                /* \"#utility.yul\":14473:14477   */\n              dup7\n                /* \"#utility.yul\":14466:14547   */\n              sstore\n                /* \"#utility.yul\":14335:14557   */\n              pop\n                /* \"#utility.yul\":13670:14557   */\n              jump(tag_334)\n                /* \"#utility.yul\":13700:14318   */\n            tag_335:\n                /* \"#utility.yul\":13752:13756   */\n              0x1f\n                /* \"#utility.yul\":13748:13757   */\n              not\n                /* \"#utility.yul\":13740:13746   */\n              dup5\n                /* \"#utility.yul\":13736:13758   */\n              and\n                /* \"#utility.yul\":13786:13823   */\n              tag_338\n                /* \"#utility.yul\":13818:13822   */\n              dup7\n                /* \"#utility.yul\":13786:13823   */\n              tag_158\n              jump\t// in\n            tag_338:\n                /* \"#utility.yul\":13845:13846   */\n              0x00\n                /* \"#utility.yul\":13859:14067   */\n            tag_339:\n                /* \"#utility.yul\":13873:13880   */\n              dup3\n                /* \"#utility.yul\":13870:13871   */\n              dup2\n                /* \"#utility.yul\":13867:13881   */\n              lt\n                /* \"#utility.yul\":13859:14067   */\n              iszero\n              tag_341\n              jumpi\n                /* \"#utility.yul\":13952:13961   */\n              dup5\n                /* \"#utility.yul\":13947:13950   */\n              dup10\n                /* \"#utility.yul\":13943:13962   */\n              add\n                /* \"#utility.yul\":13937:13963   */\n              mload\n                /* \"#utility.yul\":13929:13935   */\n              dup3\n                /* \"#utility.yul\":13922:13964   */\n              sstore\n                /* \"#utility.yul\":14003:14004   */\n              0x01\n                /* \"#utility.yul\":13995:14001   */\n              dup3\n                /* \"#utility.yul\":13991:14005   */\n              add\n                /* \"#utility.yul\":13981:14005   */\n              swap2\n              pop\n                /* \"#utility.yul\":14050:14052   */\n              0x20\n                /* \"#utility.yul\":14039:14048   */\n              dup6\n                /* \"#utility.yul\":14035:14053   */\n              add\n                /* \"#utility.yul\":14022:14053   */\n              swap5\n              pop\n                /* \"#utility.yul\":13896:13900   */\n              0x20\n                /* \"#utility.yul\":13893:13894   */\n              dup2\n                /* \"#utility.yul\":13889:13901   */\n              add\n                /* \"#utility.yul\":13884:13901   */\n              swap1\n              pop\n                /* \"#utility.yul\":13859:14067   */\n              jump(tag_339)\n            tag_341:\n                /* \"#utility.yul\":14095:14101   */\n              dup7\n                /* \"#utility.yul\":14086:14093   */\n              dup4\n                /* \"#utility.yul\":14083:14102   */\n              lt\n                /* \"#utility.yul\":14080:14259   */\n              iszero\n              tag_342\n              jumpi\n                /* \"#utility.yul\":14153:14162   */\n              dup5\n                /* \"#utility.yul\":14148:14151   */\n              dup10\n                /* \"#utility.yul\":14144:14163   */\n              add\n                /* \"#utility.yul\":14138:14164   */\n              mload\n                /* \"#utility.yul\":14196:14244   */\n              tag_343\n                /* \"#utility.yul\":14238:14242   */\n              0x1f\n                /* \"#utility.yul\":14230:14236   */\n              dup10\n                /* \"#utility.yul\":14226:14243   */\n              and\n                /* \"#utility.yul\":14215:14224   */\n              dup3\n                /* \"#utility.yul\":14196:14244   */\n              tag_171\n              jump\t// in\n            tag_343:\n                /* \"#utility.yul\":14188:14194   */\n              dup4\n                /* \"#utility.yul\":14181:14245   */\n              sstore\n                /* \"#utility.yul\":14103:14259   */\n              pop\n                /* \"#utility.yul\":14080:14259   */\n            tag_342:\n                /* \"#utility.yul\":14305:14306   */\n              0x01\n                /* \"#utility.yul\":14301:14302   */\n              0x02\n                /* \"#utility.yul\":14293:14299   */\n              dup9\n                /* \"#utility.yul\":14289:14303   */\n              mul\n                /* \"#utility.yul\":14285:14307   */\n              add\n                /* \"#utility.yul\":14279:14283   */\n              dup9\n                /* \"#utility.yul\":14272:14308   */\n              sstore\n                /* \"#utility.yul\":13707:14318   */\n              pop\n              pop\n              pop\n                /* \"#utility.yul\":13670:14557   */\n            tag_334:\n              pop\n                /* \"#utility.yul\":13260:14563   */\n              pop\n              pop\n              pop\n                /* \"#utility.yul\":13168:14563   */\n              pop\n              pop\n              jump\t// out\n                /* \"#utility.yul\":14569:14802   */\n            tag_109:\n                /* \"#utility.yul\":14608:14611   */\n              0x00\n                /* \"#utility.yul\":14631:14655   */\n              tag_345\n                /* \"#utility.yul\":14649:14654   */\n              dup3\n                /* \"#utility.yul\":14631:14655   */\n              tag_126\n              jump\t// in\n            tag_345:\n                /* \"#utility.yul\":14622:14655   */\n              swap2\n              pop\n                /* \"#utility.yul\":14677:14743   */\n              0xffffffffffffffffffffffffffffffffffffffffffffffffffffffffffffffff\n                /* \"#utility.yul\":14670:14675   */\n              dup3\n                /* \"#utility.yul\":14667:14744   */\n              sub\n                /* \"#utility.yul\":14664:14767   */\n              tag_346\n              jumpi\n                /* \"#utility.yul\":14747:14765   */\n              tag_347\n              tag_156\n              jump\t// in\n            tag_347:\n                /* \"#utility.yul\":14664:14767   */\n            tag_346:\n                /* \"#utility.yul\":14794:14795   */\n              0x01\n                /* \"#utility.yul\":14787:14792   */\n              dup3\n                /* \"#utility.yul\":14783:14796   */\n              add\n                /* \"#utility.yul\":14776:14796   */\n              swap1\n              pop\n                /* \"#utility.yul\":14569:14802   */\n              swap2\n              swap1\n              pop\n              jump\t// out\n\n            auxdata: 0xa2646970667358221220e7e9dd6fd02ebd652ffb33b87729c7f13f8d8afbc5a7d65ae68088e8415b77aa64736f6c63430008150033\n        }\n    }\n\n    auxdata: 0xa264697066735822122004875185818b1d446deb981794fc391dc378bfd3375693ca17b352e64eac0dd664736f6c63430008150033\n}\n","bytecode":{"linkReferences":{},"object":"608060405234801561000f575f80fd5b5061170b8061001d5f395ff3fe608060405234801561000f575f80fd5b506004361061003f575f3560e01c806332ba9cce14610043578063339d50a51461005f5780634acb9d4f1461008f575b5f80fd5b61005d600480360381019061005891906102a4565b6100ad565b005b610079600480360381019061007491906102e2565b610142565b604051610086919061031c565b60405180910390f35b61009761017c565b6040516100a491906103ec565b60405180910390f35b5f82826040516100bc90610206565b6100c792919061041b565b604051809103905ff0801580156100e0573d5f803e3d5ffd5b50908060018154018082558091505060019003905f5260205f20015f9091909190916101000a81548173ffffffffffffffffffffffffffffffffffffffff021916908373ffffffffffffffffffffffffffffffffffffffff1602179055505050565b5f8181548110610150575f80fd5b905f5260205f20015f915054906101000a900473ffffffffffffffffffffffffffffffffffffffff1681565b60605f8054806020026020016040519081016040528092919081815260200182805480156101fc57602002820191905f5260205f20905b815f9054906101000a900473ffffffffffffffffffffffffffffffffffffffff1673ffffffffffffffffffffffffffffffffffffffff16815260200190600101908083116101b3575b5050505050905090565b6112938061044383390190565b5f80fd5b5f819050919050565b61022981610217565b8114610233575f80fd5b50565b5f8135905061024481610220565b92915050565b5f73ffffffffffffffffffffffffffffffffffffffff82169050919050565b5f6102738261024a565b9050919050565b61028381610269565b811461028d575f80fd5b50565b5f8135905061029e8161027a565b92915050565b5f80604083850312156102ba576102b9610213565b5b5f6102c785828601610236565b92505060206102d885828601610290565b9150509250929050565b5f602082840312156102f7576102f6610213565b5b5f61030484828501610236565b91505092915050565b61031681610269565b82525050565b5f60208201905061032f5f83018461030d565b92915050565b5f81519050919050565b5f82825260208201905092915050565b5f819050602082019050919050565b61036781610269565b82525050565b5f610378838361035e565b60208301905092915050565b5f602082019050919050565b5f61039a82610335565b6103a4818561033f565b93506103af8361034f565b805f5b838110156103df5781516103c6888261036d565b97506103d183610384565b9250506001810190506103b2565b5085935050505092915050565b5f6020820190508181035f8301526104048184610390565b905092915050565b61041581610217565b82525050565b5f60408201905061042e5f83018561040c565b61043b602083018461030d565b939250505056fe608060405234801562000010575f80fd5b506040516200129338038062001293833981810160405281019062000036919062000122565b816002819055508060015f6101000a81548173ffffffffffffffffffffffffffffffffffffffff021916908373ffffffffffffffffffffffffffffffffffffffff160217905550505062000167565b5f80fd5b5f819050919050565b6200009d8162000089565b8114620000a8575f80fd5b50565b5f81519050620000bb8162000092565b92915050565b5f73ffffffffffffffffffffffffffffffffffffffff82169050919050565b5f620000ec82620000c1565b9050919050565b620000fe81620000e0565b811462000109575f80fd5b50565b5f815190506200011c81620000f3565b92915050565b5f80604083850312156200013b576200013a62000085565b5b5f6200014a85828601620000ab565b92505060206200015d858286016200010c565b9150509250929050565b61111e80620001755f395ff3fe60806040526004361061009b575f3560e01c8063641a21d911610063578063641a21d91461017957806381d12c58146101a35780638a9cfd55146101e3578063937e09b11461020b578063d7bb99ba14610235578063d7d1bbdb1461023f5761009b565b8063034410061461009f5780631f6d4942146100bb5780633410452a146100f75780634051ddac14610121578063481c6a751461014f575b5f80fd5b6100b960048036038101906100b491906108d9565b610267565b005b3480156100c6575f80fd5b506100e160048036038101906100dc919061095e565b610418565b6040516100ee91906109a3565b60405180910390f35b348015610102575f80fd5b5061010b610435565b60405161011891906109cb565b60405180910390f35b34801561012c575f80fd5b50610135610440565b6040516101469594939291906109f3565b60405180910390f35b34801561015a575f80fd5b50610163610484565b6040516101709190610a44565b60405180910390f35b348015610184575f80fd5b5061018d6104a9565b60405161019a91906109cb565b60405180910390f35b3480156101ae575f80fd5b506101c960048036038101906101c491906108d9565b6104af565b6040516101da959493929190610b07565b60405180910390f35b3480156101ee575f80fd5b5061020960048036038101906102049190610cb5565b6105a1565b005b348015610216575f80fd5b5061021f6106a0565b60405161022c91906109cb565b60405180910390f35b61023d6106a6565b005b34801561024a575f80fd5b50610265600480360381019061026091906108d9565b610721565b005b60015f9054906101000a900473ffffffffffffffffffffffffffffffffffffffff1673ffffffffffffffffffffffffffffffffffffffff163373ffffffffffffffffffffffffffffffffffffffff16146102bf575f80fd5b5f81815481106102d2576102d1610d21565b5b905f5260205f20906005020160020160149054906101000a900460ff16156102f8575f80fd5b60026004546103079190610da8565b5f828154811061031a57610319610d21565b5b905f5260205f2090600502016003015411610333575f80fd5b5f818154811061034657610345610d21565b5b905f5260205f2090600502016002015f9054906101000a900473ffffffffffffffffffffffffffffffffffffffff1673ffffffffffffffffffffffffffffffffffffffff166108fc5f83815481106103a1576103a0610d21565b5b905f5260205f2090600502016001015490811502906040515f60405180830381858888f193505050501580156103d9573d5f803e3d5ffd5b5060015f82815481106103ef576103ee610d21565b5b905f5260205f20906005020160020160146101000a81548160ff02191690831515021790555050565b6003602052805f5260405f205f915054906101000a900460ff1681565b5f8080549050905090565b5f805f805f600254475f8054905060045460015f9054906101000a900473ffffffffffffffffffffffffffffffffffffffff16945094509450945094509091929394565b60015f9054906101000a900473ffffffffffffffffffffffffffffffffffffffff1681565b60045481565b5f81815481106104bd575f80fd5b905f5260205f2090600502015f91509050805f0180546104dc90610e05565b80601f016020809104026020016040519081016040528092919081815260200182805461050890610e05565b80156105535780601f1061052a57610100808354040283529160200191610553565b820191905f5260205f20905b81548152906001019060200180831161053657829003601f168201915b505050505090806001015490806002015f9054906101000a900473ffffffffffffffffffffffffffffffffffffffff16908060020160149054906101000a900460ff16908060030154905085565b60015f9054906101000a900473ffffffffffffffffffffffffffffffffffffffff1673ffffffffffffffffffffffffffffffffffffffff163373ffffffffffffffffffffffffffffffffffffffff16146105f9575f80fd5b5f8060018160018154018082558091505003905f5260205f209060050201905083815f0190816106299190610fd2565b5082816001018190555081816002015f6101000a81548173ffffffffffffffffffffffffffffffffffffffff021916908373ffffffffffffffffffffffffffffffffffffffff1602179055505f8160020160146101000a81548160ff0219169083151502179055505f816003018190555050505050565b60025481565b60025434116106b3575f80fd5b600160035f3373ffffffffffffffffffffffffffffffffffffffff1673ffffffffffffffffffffffffffffffffffffffff1681526020019081526020015f205f6101000a81548160ff02191690831515021790555060045f81548092919061071a906110a1565b9190505550565b60035f3373ffffffffffffffffffffffffffffffffffffffff1673ffffffffffffffffffffffffffffffffffffffff1681526020019081526020015f205f9054906101000a900460ff16610773575f80fd5b5f818154811061078657610785610d21565b5b905f5260205f2090600502016004015f3373ffffffffffffffffffffffffffffffffffffffff1673ffffffffffffffffffffffffffffffffffffffff1681526020019081526020015f205f9054906101000a900460ff16156107e6575f80fd5b60015f82815481106107fb576107fa610d21565b5b905f5260205f2090600502016004015f3373ffffffffffffffffffffffffffffffffffffffff1673ffffffffffffffffffffffffffffffffffffffff1681526020019081526020015f205f6101000a81548160ff0219169083151502179055505f818154811061086e5761086d610d21565b5b905f5260205f2090600502016003015f81548092919061088d906110a1565b919050555050565b5f604051905090565b5f80fd5b5f80fd5b5f819050919050565b6108b8816108a6565b81146108c2575f80fd5b50565b5f813590506108d3816108af565b92915050565b5f602082840312156108ee576108ed61089e565b5b5f6108fb848285016108c5565b91505092915050565b5f73ffffffffffffffffffffffffffffffffffffffff82169050919050565b5f61092d82610904565b9050919050565b61093d81610923565b8114610947575f80fd5b50565b5f8135905061095881610934565b92915050565b5f602082840312156109735761097261089e565b5b5f6109808482850161094a565b91505092915050565b5f8115159050919050565b61099d81610989565b82525050565b5f6020820190506109b65f830184610994565b92915050565b6109c5816108a6565b82525050565b5f6020820190506109de5f8301846109bc565b92915050565b6109ed81610923565b82525050565b5f60a082019050610a065f8301886109bc565b610a1360208301876109bc565b610a2060408301866109bc565b610a2d60608301856109bc565b610a3a60808301846109e4565b9695505050505050565b5f602082019050610a575f8301846109e4565b92915050565b5f81519050919050565b5f82825260208201905092915050565b5f5b83811015610a94578082015181840152602081019050610a79565b5f8484015250505050565b5f601f19601f8301169050919050565b5f610ab982610a5d565b610ac38185610a67565b9350610ad3818560208601610a77565b610adc81610a9f565b840191505092915050565b5f610af182610904565b9050919050565b610b0181610ae7565b82525050565b5f60a0820190508181035f830152610b1f8188610aaf565b9050610b2e60208301876109bc565b610b3b6040830186610af8565b610b486060830185610994565b610b5560808301846109bc565b9695505050505050565b5f80fd5b5f80fd5b7f4e487b71000000000000000000000000000000000000000000000000000000005f52604160045260245ffd5b610b9d82610a9f565b810181811067ffffffffffffffff82111715610bbc57610bbb610b67565b5b80604052505050565b5f610bce610895565b9050610bda8282610b94565b919050565b5f67ffffffffffffffff821115610bf957610bf8610b67565b5b610c0282610a9f565b9050602081019050919050565b828183375f83830152505050565b5f610c2f610c2a84610bdf565b610bc5565b905082815260208101848484011115610c4b57610c4a610b63565b5b610c56848285610c0f565b509392505050565b5f82601f830112610c7257610c71610b5f565b5b8135610c82848260208601610c1d565b91505092915050565b610c9481610ae7565b8114610c9e575f80fd5b50565b5f81359050610caf81610c8b565b92915050565b5f805f60608486031215610ccc57610ccb61089e565b5b5f84013567ffffffffffffffff811115610ce957610ce86108a2565b5b610cf586828701610c5e565b9350506020610d06868287016108c5565b9250506040610d1786828701610ca1565b9150509250925092565b7f4e487b71000000000000000000000000000000000000000000000000000000005f52603260045260245ffd5b7f4e487b71000000000000000000000000000000000000000000000000000000005f52601260045260245ffd5b7f4e487b71000000000000000000000000000000000000000000000000000000005f52601160045260245ffd5b5f610db2826108a6565b9150610dbd836108a6565b925082610dcd57610dcc610d4e565b5b828204905092915050565b7f4e487b71000000000000000000000000000000000000000000000000000000005f52602260045260245ffd5b5f6002820490506001821680610e1c57607f821691505b602082108103610e2f57610e2e610dd8565b5b50919050565b5f819050815f5260205f209050919050565b5f6020601f8301049050919050565b5f82821b905092915050565b5f60088302610e917fffffffffffffffffffffffffffffffffffffffffffffffffffffffffffffffff82610e56565b610e9b8683610e56565b95508019841693508086168417925050509392505050565b5f819050919050565b5f610ed6610ed1610ecc846108a6565b610eb3565b6108a6565b9050919050565b5f819050919050565b610eef83610ebc565b610f03610efb82610edd565b848454610e62565b825550505050565b5f90565b610f17610f0b565b610f22818484610ee6565b505050565b5b81811015610f4557610f3a5f82610f0f565b600181019050610f28565b5050565b601f821115610f8a57610f5b81610e35565b610f6484610e47565b81016020851015610f73578190505b610f87610f7f85610e47565b830182610f27565b50505b505050565b5f82821c905092915050565b5f610faa5f1984600802610f8f565b1980831691505092915050565b5f610fc28383610f9b565b9150826002028217905092915050565b610fdb82610a5d565b67ffffffffffffffff811115610ff457610ff3610b67565b5b610ffe8254610e05565b611009828285610f49565b5f60209050601f83116001811461103a575f8415611028578287015190505b6110328582610fb7565b865550611099565b601f19841661104886610e35565b5f5b8281101561106f5784890151825560018201915060208501945060208101905061104a565b8683101561108c5784890151611088601f891682610f9b565b8355505b6001600288020188555050505b505050505050565b5f6110ab826108a6565b91507fffffffffffffffffffffffffffffffffffffffffffffffffffffffffffffffff82036110dd576110dc610d7b565b5b60018201905091905056fea2646970667358221220e7e9dd6fd02ebd652ffb33b87729c7f13f8d8afbc5a7d65ae68088e8415b77aa64736f6c63430008150033a264697066735822122004875185818b1d446deb981794fc391dc378bfd3375693ca17b352e64eac0dd664736f6c63430008150033","opcodes":"PUSH1 0x80 PUSH1 0x40 MSTORE CALLVALUE DUP1 ISZERO PUSH2 0xF JUMPI PUSH0 DUP1 REVERT JUMPDEST POP PUSH2 0x170B DUP1 PUSH2 0x1D PUSH0 CODECOPY PUSH0 RETURN INVALID PUSH1 0x80 PUSH1 0x40 MSTORE CALLVALUE DUP1 ISZERO PUSH2 0xF JUMPI PUSH0 DUP1 REVERT JUMPDEST POP PUSH1 0x4 CALLDATASIZE LT PUSH2 0x3F JUMPI PUSH0 CALLDATALOAD PUSH1 0xE0 SHR DUP1 PUSH4 0x32BA9CCE EQ PUSH2 0x43 JUMPI DUP1 PUSH4 0x339D50A5 EQ PUSH2 0x5F JUMPI DUP1 PUSH4 0x4ACB9D4F EQ PUSH2 0x8F JUMPI JUMPDEST PUSH0 DUP1 REVERT JUMPDEST PUSH2 0x5D PUSH1 0x4 DUP1 CALLDATASIZE SUB DUP2 ADD SWAP1 PUSH2 0x58 SWAP2 SWAP1 PUSH2 0x2A4 JUMP JUMPDEST PUSH2 0xAD JUMP JUMPDEST STOP JUMPDEST PUSH2 0x79 PUSH1 0x4 DUP1 CALLDATASIZE SUB DUP2 ADD SWAP1 PUSH2 0x74 SWAP2 SWAP1 PUSH2 0x2E2 JUMP JUMPDEST PUSH2 0x142 JUMP JUMPDEST PUSH1 0x40 MLOAD PUSH2 0x86 SWAP2 SWAP1 PUSH2 0x31C JUMP JUMPDEST PUSH1 0x40 MLOAD DUP1 SWAP2 SUB SWAP1 RETURN JUMPDEST PUSH2 0x97 PUSH2 0x17C JUMP JUMPDEST PUSH1 0x40 MLOAD PUSH2 0xA4 SWAP2 SWAP1 PUSH2 0x3EC JUMP JUMPDEST PUSH1 0x40 MLOAD DUP1 SWAP2 SUB SWAP1 RETURN JUMPDEST PUSH0 DUP3 DUP3 PUSH1 0x40 MLOAD PUSH2 0xBC SWAP1 PUSH2 0x206 JUMP JUMPDEST PUSH2 0xC7 SWAP3 SWAP2 SWAP1 PUSH2 0x41B JUMP JUMPDEST PUSH1 0x40 MLOAD DUP1 SWAP2 SUB SWAP1 PUSH0 CREATE DUP1 ISZERO DUP1 ISZERO PUSH2 0xE0 JUMPI RETURNDATASIZE PUSH0 DUP1 RETURNDATACOPY RETURNDATASIZE PUSH0 REVERT JUMPDEST POP SWAP1 DUP1 PUSH1 0x1 DUP2 SLOAD ADD DUP1 DUP3 SSTORE DUP1 SWAP2 POP POP PUSH1 0x1 SWAP1 SUB SWAP1 PUSH0 MSTORE PUSH1 0x20 PUSH0 KECCAK256 ADD PUSH0 SWAP1 SWAP2 SWAP1 SWAP2 SWAP1 SWAP2 PUSH2 0x100 EXP DUP2 SLOAD DUP2 PUSH20 0xFFFFFFFFFFFFFFFFFFFFFFFFFFFFFFFFFFFFFFFF MUL NOT AND SWAP1 DUP4 PUSH20 0xFFFFFFFFFFFFFFFFFFFFFFFFFFFFFFFFFFFFFFFF AND MUL OR SWAP1 SSTORE POP POP POP JUMP JUMPDEST PUSH0 DUP2 DUP2 SLOAD DUP2 LT PUSH2 0x150 JUMPI PUSH0 DUP1 REVERT JUMPDEST SWAP1 PUSH0 MSTORE PUSH1 0x20 PUSH0 KECCAK256 ADD PUSH0 SWAP2 POP SLOAD SWAP1 PUSH2 0x100 EXP SWAP1 DIV PUSH20 0xFFFFFFFFFFFFFFFFFFFFFFFFFFFFFFFFFFFFFFFF AND DUP2 JUMP JUMPDEST PUSH1 0x60 PUSH0 DUP1 SLOAD DUP1 PUSH1 0x20 MUL PUSH1 0x20 ADD PUSH1 0x40 MLOAD SWAP1 DUP2 ADD PUSH1 0x40 MSTORE DUP1 SWAP3 SWAP2 SWAP1 DUP2 DUP2 MSTORE PUSH1 0x20 ADD DUP3 DUP1 SLOAD DUP1 ISZERO PUSH2 0x1FC JUMPI PUSH1 0x20 MUL DUP3 ADD SWAP2 SWAP1 PUSH0 MSTORE PUSH1 0x20 PUSH0 KECCAK256 SWAP1 JUMPDEST DUP2 PUSH0 SWAP1 SLOAD SWAP1 PUSH2 0x100 EXP SWAP1 DIV PUSH20 0xFFFFFFFFFFFFFFFFFFFFFFFFFFFFFFFFFFFFFFFF AND PUSH20 0xFFFFFFFFFFFFFFFFFFFFFFFFFFFFFFFFFFFFFFFF AND DUP2 MSTORE PUSH1 0x20 ADD SWAP1 PUSH1 0x1 ADD SWAP1 DUP1 DUP4 GT PUSH2 0x1B3 JUMPI JUMPDEST POP POP POP POP POP SWAP1 POP SWAP1 JUMP JUMPDEST PUSH2 0x1293 DUP1 PUSH2 0x443 DUP4 CODECOPY ADD SWAP1 JUMP JUMPDEST PUSH0 DUP1 REVERT JUMPDEST PUSH0 DUP2 SWAP1 POP SWAP2 SWAP1 POP JUMP JUMPDEST PUSH2 0x229 DUP2 PUSH2 0x217 JUMP JUMPDEST DUP2 EQ PUSH2 0x233 JUMPI PUSH0 DUP1 REVERT JUMPDEST POP JUMP JUMPDEST PUSH0 DUP2 CALLDATALOAD SWAP1 POP PUSH2 0x244 DUP2 PUSH2 0x220 JUMP JUMPDEST SWAP3 SWAP2 POP POP JUMP JUMPDEST PUSH0 PUSH20 0xFFFFFFFFFFFFFFFFFFFFFFFFFFFFFFFFFFFFFFFF DUP3 AND SWAP1 POP SWAP2 SWAP1 POP JUMP JUMPDEST PUSH0 PUSH2 0x273 DUP3 PUSH2 0x24A JUMP JUMPDEST SWAP1 POP SWAP2 SWAP1 POP JUMP JUMPDEST PUSH2 0x283 DUP2 PUSH2 0x269 JUMP JUMPDEST DUP2 EQ PUSH2 0x28D JUMPI PUSH0 DUP1 REVERT JUMPDEST POP JUMP JUMPDEST PUSH0 DUP2 CALLDATALOAD SWAP1 POP PUSH2 0x29E DUP2 PUSH2 0x27A JUMP JUMPDEST SWAP3 SWAP2 POP POP JUMP JUMPDEST PUSH0 DUP1 PUSH1 0x40 DUP4 DUP6 SUB SLT ISZERO PUSH2 0x2BA JUMPI PUSH2 0x2B9 PUSH2 0x213 JUMP JUMPDEST JUMPDEST PUSH0 PUSH2 0x2C7 DUP6 DUP3 DUP7 ADD PUSH2 0x236 JUMP JUMPDEST SWAP3 POP POP PUSH1 0x20 PUSH2 0x2D8 DUP6 DUP3 DUP7 ADD PUSH2 0x290 JUMP JUMPDEST SWAP2 POP POP SWAP3 POP SWAP3 SWAP1 POP JUMP JUMPDEST PUSH0 PUSH1 0x20 DUP3 DUP5 SUB SLT ISZERO PUSH2 0x2F7 JUMPI PUSH2 0x2F6 PUSH2 0x213 JUMP JUMPDEST JUMPDEST PUSH0 PUSH2 0x304 DUP5 DUP3 DUP6 ADD PUSH2 0x236 JUMP JUMPDEST SWAP2 POP POP SWAP3 SWAP2 POP POP JUMP JUMPDEST PUSH2 0x316 DUP2 PUSH2 0x269 JUMP JUMPDEST DUP3 MSTORE POP POP JUMP JUMPDEST PUSH0 PUSH1 0x20 DUP3 ADD SWAP1 POP PUSH2 0x32F PUSH0 DUP4 ADD DUP5 PUSH2 0x30D JUMP JUMPDEST SWAP3 SWAP2 POP POP JUMP JUMPDEST PUSH0 DUP2 MLOAD SWAP1 POP SWAP2 SWAP1 POP JUMP JUMPDEST PUSH0 DUP3 DUP3 MSTORE PUSH1 0x20 DUP3 ADD SWAP1 POP SWAP3 SWAP2 POP POP JUMP JUMPDEST PUSH0 DUP2 SWAP1 POP PUSH1 0x20 DUP3 ADD SWAP1 POP SWAP2 SWAP1 POP JUMP JUMPDEST PUSH2 0x367 DUP2 PUSH2 0x269 JUMP JUMPDEST DUP3 MSTORE POP POP JUMP JUMPDEST PUSH0 PUSH2 0x378 DUP4 DUP4 PUSH2 0x35E JUMP JUMPDEST PUSH1 0x20 DUP4 ADD SWAP1 POP SWAP3 SWAP2 POP POP JUMP JUMPDEST PUSH0 PUSH1 0x20 DUP3 ADD SWAP1 POP SWAP2 SWAP1 POP JUMP JUMPDEST PUSH0 PUSH2 0x39A DUP3 PUSH2 0x335 JUMP JUMPDEST PUSH2 0x3A4 DUP2 DUP6 PUSH2 0x33F JUMP JUMPDEST SWAP4 POP PUSH2 0x3AF DUP4 PUSH2 0x34F JUMP JUMPDEST DUP1 PUSH0 JUMPDEST DUP4 DUP2 LT ISZERO PUSH2 0x3DF JUMPI DUP2 MLOAD PUSH2 0x3C6 DUP9 DUP3 PUSH2 0x36D JUMP JUMPDEST SWAP8 POP PUSH2 0x3D1 DUP4 PUSH2 0x384 JUMP JUMPDEST SWAP3 POP POP PUSH1 0x1 DUP2 ADD SWAP1 POP PUSH2 0x3B2 JUMP JUMPDEST POP DUP6 SWAP4 POP POP POP POP SWAP3 SWAP2 POP POP JUMP JUMPDEST PUSH0 PUSH1 0x20 DUP3 ADD SWAP1 POP DUP2 DUP2 SUB PUSH0 DUP4 ADD MSTORE PUSH2 0x404 DUP2 DUP5 PUSH2 0x390 JUMP JUMPDEST SWAP1 POP SWAP3 SWAP2 POP POP JUMP JUMPDEST PUSH2 0x415 DUP2 PUSH2 0x217 JUMP JUMPDEST DUP3 MSTORE POP POP JUMP JUMPDEST PUSH0 PUSH1 0x40 DUP3 ADD SWAP1 POP PUSH2 0x42E PUSH0 DUP4 ADD DUP6 PUSH2 0x40C JUMP JUMPDEST PUSH2 0x43B PUSH1 0x20 DUP4 ADD DUP5 PUSH2 0x30D JUMP JUMPDEST SWAP4 SWAP3 POP POP POP JUMP INVALID PUSH1 0x80 PUSH1 0x40 MSTORE CALLVALUE DUP1 ISZERO PUSH3 0x10 JUMPI PUSH0 DUP1 REVERT JUMPDEST POP PUSH1 0x40 MLOAD PUSH3 0x1293 CODESIZE SUB DUP1 PUSH3 0x1293 DUP4 CODECOPY DUP2 DUP2 ADD PUSH1 0x40 MSTORE DUP2 ADD SWAP1 PUSH3 0x36 SWAP2 SWAP1 PUSH3 0x122 JUMP JUMPDEST DUP2 PUSH1 0x2 DUP2 SWAP1 SSTORE POP DUP1 PUSH1 0x1 PUSH0 PUSH2 0x100 EXP DUP2 SLOAD DUP2 PUSH20 0xFFFFFFFFFFFFFFFFFFFFFFFFFFFFFFFFFFFFFFFF MUL NOT AND SWAP1 DUP4 PUSH20 0xFFFFFFFFFFFFFFFFFFFFFFFFFFFFFFFFFFFFFFFF AND MUL OR SWAP1 SSTORE POP POP POP PUSH3 0x167 JUMP JUMPDEST PUSH0 DUP1 REVERT JUMPDEST PUSH0 DUP2 SWAP1 POP SWAP2 SWAP1 POP JUMP JUMPDEST PUSH3 0x9D DUP2 PUSH3 0x89 JUMP JUMPDEST DUP2 EQ PUSH3 0xA8 JUMPI PUSH0 DUP1 REVERT JUMPDEST POP JUMP JUMPDEST PUSH0 DUP2 MLOAD SWAP1 POP PUSH3 0xBB DUP2 PUSH3 0x92 JUMP JUMPDEST SWAP3 SWAP2 POP POP JUMP JUMPDEST PUSH0 PUSH20 0xFFFFFFFFFFFFFFFFFFFFFFFFFFFFFFFFFFFFFFFF DUP3 AND SWAP1 POP SWAP2 SWAP1 POP JUMP JUMPDEST PUSH0 PUSH3 0xEC DUP3 PUSH3 0xC1 JUMP JUMPDEST SWAP1 POP SWAP2 SWAP1 POP JUMP JUMPDEST PUSH3 0xFE DUP2 PUSH3 0xE0 JUMP JUMPDEST DUP2 EQ PUSH3 0x109 JUMPI PUSH0 DUP1 REVERT JUMPDEST POP JUMP JUMPDEST PUSH0 DUP2 MLOAD SWAP1 POP PUSH3 0x11C DUP2 PUSH3 0xF3 JUMP JUMPDEST SWAP3 SWAP2 POP POP JUMP JUMPDEST PUSH0 DUP1 PUSH1 0x40 DUP4 DUP6 SUB SLT ISZERO PUSH3 0x13B JUMPI PUSH3 0x13A PUSH3 0x85 JUMP JUMPDEST JUMPDEST PUSH0 PUSH3 0x14A DUP6 DUP3 DUP7 ADD PUSH3 0xAB JUMP JUMPDEST SWAP3 POP POP PUSH1 0x20 PUSH3 0x15D DUP6 DUP3 DUP7 ADD PUSH3 0x10C JUMP JUMPDEST SWAP2 POP POP SWAP3 POP SWAP3 SWAP1 POP JUMP JUMPDEST PUSH2 0x111E DUP1 PUSH3 0x175 PUSH0 CODECOPY PUSH0 RETURN INVALID PUSH1 0x80 PUSH1 0x40 MSTORE PUSH1 0x4 CALLDATASIZE LT PUSH2 0x9B JUMPI PUSH0 CALLDATALOAD PUSH1 0xE0 SHR DUP1 PUSH4 0x641A21D9 GT PUSH2 0x63 JUMPI DUP1 PUSH4 0x641A21D9 EQ PUSH2 0x179 JUMPI DUP1 PUSH4 0x81D12C58 EQ PUSH2 0x1A3 JUMPI DUP1 PUSH4 0x8A9CFD55 EQ PUSH2 0x1E3 JUMPI DUP1 PUSH4 0x937E09B1 EQ PUSH2 0x20B JUMPI DUP1 PUSH4 0xD7BB99BA EQ PUSH2 0x235 JUMPI DUP1 PUSH4 0xD7D1BBDB EQ PUSH2 0x23F JUMPI PUSH2 0x9B JUMP JUMPDEST DUP1 PUSH4 0x3441006 EQ PUSH2 0x9F JUMPI DUP1 PUSH4 0x1F6D4942 EQ PUSH2 0xBB JUMPI DUP1 PUSH4 0x3410452A EQ PUSH2 0xF7 JUMPI DUP1 PUSH4 0x4051DDAC EQ PUSH2 0x121 JUMPI DUP1 PUSH4 0x481C6A75 EQ PUSH2 0x14F JUMPI JUMPDEST PUSH0 DUP1 REVERT JUMPDEST PUSH2 0xB9 PUSH1 0x4 DUP1 CALLDATASIZE SUB DUP2 ADD SWAP1 PUSH2 0xB4 SWAP2 SWAP1 PUSH2 0x8D9 JUMP JUMPDEST PUSH2 0x267 JUMP JUMPDEST STOP JUMPDEST CALLVALUE DUP1 ISZERO PUSH2 0xC6 JUMPI PUSH0 DUP1 REVERT JUMPDEST POP PUSH2 0xE1 PUSH1 0x4 DUP1 CALLDATASIZE SUB DUP2 ADD SWAP1 PUSH2 0xDC SWAP2 SWAP1 PUSH2 0x95E JUMP JUMPDEST PUSH2 0x418 JUMP JUMPDEST PUSH1 0x40 MLOAD PUSH2 0xEE SWAP2 SWAP1 PUSH2 0x9A3 JUMP JUMPDEST PUSH1 0x40 MLOAD DUP1 SWAP2 SUB SWAP1 RETURN JUMPDEST CALLVALUE DUP1 ISZERO PUSH2 0x102 JUMPI PUSH0 DUP1 REVERT JUMPDEST POP PUSH2 0x10B PUSH2 0x435 JUMP JUMPDEST PUSH1 0x40 MLOAD PUSH2 0x118 SWAP2 SWAP1 PUSH2 0x9CB JUMP JUMPDEST PUSH1 0x40 MLOAD DUP1 SWAP2 SUB SWAP1 RETURN JUMPDEST CALLVALUE DUP1 ISZERO PUSH2 0x12C JUMPI PUSH0 DUP1 REVERT JUMPDEST POP PUSH2 0x135 PUSH2 0x440 JUMP JUMPDEST PUSH1 0x40 MLOAD PUSH2 0x146 SWAP6 SWAP5 SWAP4 SWAP3 SWAP2 SWAP1 PUSH2 0x9F3 JUMP JUMPDEST PUSH1 0x40 MLOAD DUP1 SWAP2 SUB SWAP1 RETURN JUMPDEST CALLVALUE DUP1 ISZERO PUSH2 0x15A JUMPI PUSH0 DUP1 REVERT JUMPDEST POP PUSH2 0x163 PUSH2 0x484 JUMP JUMPDEST PUSH1 0x40 MLOAD PUSH2 0x170 SWAP2 SWAP1 PUSH2 0xA44 JUMP JUMPDEST PUSH1 0x40 MLOAD DUP1 SWAP2 SUB SWAP1 RETURN JUMPDEST CALLVALUE DUP1 ISZERO PUSH2 0x184 JUMPI PUSH0 DUP1 REVERT JUMPDEST POP PUSH2 0x18D PUSH2 0x4A9 JUMP JUMPDEST PUSH1 0x40 MLOAD PUSH2 0x19A SWAP2 SWAP1 PUSH2 0x9CB JUMP JUMPDEST PUSH1 0x40 MLOAD DUP1 SWAP2 SUB SWAP1 RETURN JUMPDEST CALLVALUE DUP1 ISZERO PUSH2 0x1AE JUMPI PUSH0 DUP1 REVERT JUMPDEST POP PUSH2 0x1C9 PUSH1 0x4 DUP1 CALLDATASIZE SUB DUP2 ADD SWAP1 PUSH2 0x1C4 SWAP2 SWAP1 PUSH2 0x8D9 JUMP JUMPDEST PUSH2 0x4AF JUMP JUMPDEST PUSH1 0x40 MLOAD PUSH2 0x1DA SWAP6 SWAP5 SWAP4 SWAP3 SWAP2 SWAP1 PUSH2 0xB07 JUMP JUMPDEST PUSH1 0x40 MLOAD DUP1 SWAP2 SUB SWAP1 RETURN JUMPDEST CALLVALUE DUP1 ISZERO PUSH2 0x1EE JUMPI PUSH0 DUP1 REVERT JUMPDEST POP PUSH2 0x209 PUSH1 0x4 DUP1 CALLDATASIZE SUB DUP2 ADD SWAP1 PUSH2 0x204 SWAP2 SWAP1 PUSH2 0xCB5 JUMP JUMPDEST PUSH2 0x5A1 JUMP JUMPDEST STOP JUMPDEST CALLVALUE DUP1 ISZERO PUSH2 0x216 JUMPI PUSH0 DUP1 REVERT JUMPDEST POP PUSH2 0x21F PUSH2 0x6A0 JUMP JUMPDEST PUSH1 0x40 MLOAD PUSH2 0x22C SWAP2 SWAP1 PUSH2 0x9CB JUMP JUMPDEST PUSH1 0x40 MLOAD DUP1 SWAP2 SUB SWAP1 RETURN JUMPDEST PUSH2 0x23D PUSH2 0x6A6 JUMP JUMPDEST STOP JUMPDEST CALLVALUE DUP1 ISZERO PUSH2 0x24A JUMPI PUSH0 DUP1 REVERT JUMPDEST POP PUSH2 0x265 PUSH1 0x4 DUP1 CALLDATASIZE SUB DUP2 ADD SWAP1 PUSH2 0x260 SWAP2 SWAP1 PUSH2 0x8D9 JUMP JUMPDEST PUSH2 0x721 JUMP JUMPDEST STOP JUMPDEST PUSH1 0x1 PUSH0 SWAP1 SLOAD SWAP1 PUSH2 0x100 EXP SWAP1 DIV PUSH20 0xFFFFFFFFFFFFFFFFFFFFFFFFFFFFFFFFFFFFFFFF AND PUSH20 0xFFFFFFFFFFFFFFFFFFFFFFFFFFFFFFFFFFFFFFFF AND CALLER PUSH20 0xFFFFFFFFFFFFFFFFFFFFFFFFFFFFFFFFFFFFFFFF AND EQ PUSH2 0x2BF JUMPI PUSH0 DUP1 REVERT JUMPDEST PUSH0 DUP2 DUP2 SLOAD DUP2 LT PUSH2 0x2D2 JUMPI PUSH2 0x2D1 PUSH2 0xD21 JUMP JUMPDEST JUMPDEST SWAP1 PUSH0 MSTORE PUSH1 0x20 PUSH0 KECCAK256 SWAP1 PUSH1 0x5 MUL ADD PUSH1 0x2 ADD PUSH1 0x14 SWAP1 SLOAD SWAP1 PUSH2 0x100 EXP SWAP1 DIV PUSH1 0xFF AND ISZERO PUSH2 0x2F8 JUMPI PUSH0 DUP1 REVERT JUMPDEST PUSH1 0x2 PUSH1 0x4 SLOAD PUSH2 0x307 SWAP2 SWAP1 PUSH2 0xDA8 JUMP JUMPDEST PUSH0 DUP3 DUP2 SLOAD DUP2 LT PUSH2 0x31A JUMPI PUSH2 0x319 PUSH2 0xD21 JUMP JUMPDEST JUMPDEST SWAP1 PUSH0 MSTORE PUSH1 0x20 PUSH0 KECCAK256 SWAP1 PUSH1 0x5 MUL ADD PUSH1 0x3 ADD SLOAD GT PUSH2 0x333 JUMPI PUSH0 DUP1 REVERT JUMPDEST PUSH0 DUP2 DUP2 SLOAD DUP2 LT PUSH2 0x346 JUMPI PUSH2 0x345 PUSH2 0xD21 JUMP JUMPDEST JUMPDEST SWAP1 PUSH0 MSTORE PUSH1 0x20 PUSH0 KECCAK256 SWAP1 PUSH1 0x5 MUL ADD PUSH1 0x2 ADD PUSH0 SWAP1 SLOAD SWAP1 PUSH2 0x100 EXP SWAP1 DIV PUSH20 0xFFFFFFFFFFFFFFFFFFFFFFFFFFFFFFFFFFFFFFFF AND PUSH20 0xFFFFFFFFFFFFFFFFFFFFFFFFFFFFFFFFFFFFFFFF AND PUSH2 0x8FC PUSH0 DUP4 DUP2 SLOAD DUP2 LT PUSH2 0x3A1 JUMPI PUSH2 0x3A0 PUSH2 0xD21 JUMP JUMPDEST JUMPDEST SWAP1 PUSH0 MSTORE PUSH1 0x20 PUSH0 KECCAK256 SWAP1 PUSH1 0x5 MUL ADD PUSH1 0x1 ADD SLOAD SWAP1 DUP2 ISZERO MUL SWAP1 PUSH1 0x40 MLOAD PUSH0 PUSH1 0x40 MLOAD DUP1 DUP4 SUB DUP2 DUP6 DUP9 DUP9 CALL SWAP4 POP POP POP POP ISZERO DUP1 ISZERO PUSH2 0x3D9 JUMPI RETURNDATASIZE PUSH0 DUP1 RETURNDATACOPY RETURNDATASIZE PUSH0 REVERT JUMPDEST POP PUSH1 0x1 PUSH0 DUP3 DUP2 SLOAD DUP2 LT PUSH2 0x3EF JUMPI PUSH2 0x3EE PUSH2 0xD21 JUMP JUMPDEST JUMPDEST SWAP1 PUSH0 MSTORE PUSH1 0x20 PUSH0 KECCAK256 SWAP1 PUSH1 0x5 MUL ADD PUSH1 0x2 ADD PUSH1 0x14 PUSH2 0x100 EXP DUP2 SLOAD DUP2 PUSH1 0xFF MUL NOT AND SWAP1 DUP4 ISZERO ISZERO MUL OR SWAP1 SSTORE POP POP JUMP JUMPDEST PUSH1 0x3 PUSH1 0x20 MSTORE DUP1 PUSH0 MSTORE PUSH1 0x40 PUSH0 KECCAK256 PUSH0 SWAP2 POP SLOAD SWAP1 PUSH2 0x100 EXP SWAP1 DIV PUSH1 0xFF AND DUP2 JUMP JUMPDEST PUSH0 DUP1 DUP1 SLOAD SWAP1 POP SWAP1 POP SWAP1 JUMP JUMPDEST PUSH0 DUP1 PUSH0 DUP1 PUSH0 PUSH1 0x2 SLOAD SELFBALANCE PUSH0 DUP1 SLOAD SWAP1 POP PUSH1 0x4 SLOAD PUSH1 0x1 PUSH0 SWAP1 SLOAD SWAP1 PUSH2 0x100 EXP SWAP1 DIV PUSH20 0xFFFFFFFFFFFFFFFFFFFFFFFFFFFFFFFFFFFFFFFF AND SWAP5 POP SWAP5 POP SWAP5 POP SWAP5 POP SWAP5 POP SWAP1 SWAP2 SWAP3 SWAP4 SWAP5 JUMP JUMPDEST PUSH1 0x1 PUSH0 SWAP1 SLOAD SWAP1 PUSH2 0x100 EXP SWAP1 DIV PUSH20 0xFFFFFFFFFFFFFFFFFFFFFFFFFFFFFFFFFFFFFFFF AND DUP2 JUMP JUMPDEST PUSH1 0x4 SLOAD DUP2 JUMP JUMPDEST PUSH0 DUP2 DUP2 SLOAD DUP2 LT PUSH2 0x4BD JUMPI PUSH0 DUP1 REVERT JUMPDEST SWAP1 PUSH0 MSTORE PUSH1 0x20 PUSH0 KECCAK256 SWAP1 PUSH1 0x5 MUL ADD PUSH0 SWAP2 POP SWAP1 POP DUP1 PUSH0 ADD DUP1 SLOAD PUSH2 0x4DC SWAP1 PUSH2 0xE05 JUMP JUMPDEST DUP1 PUSH1 0x1F ADD PUSH1 0x20 DUP1 SWAP2 DIV MUL PUSH1 0x20 ADD PUSH1 0x40 MLOAD SWAP1 DUP2 ADD PUSH1 0x40 MSTORE DUP1 SWAP3 SWAP2 SWAP1 DUP2 DUP2 MSTORE PUSH1 0x20 ADD DUP3 DUP1 SLOAD PUSH2 0x508 SWAP1 PUSH2 0xE05 JUMP JUMPDEST DUP1 ISZERO PUSH2 0x553 JUMPI DUP1 PUSH1 0x1F LT PUSH2 0x52A JUMPI PUSH2 0x100 DUP1 DUP4 SLOAD DIV MUL DUP4 MSTORE SWAP2 PUSH1 0x20 ADD SWAP2 PUSH2 0x553 JUMP JUMPDEST DUP3 ADD SWAP2 SWAP1 PUSH0 MSTORE PUSH1 0x20 PUSH0 KECCAK256 SWAP1 JUMPDEST DUP2 SLOAD DUP2 MSTORE SWAP1 PUSH1 0x1 ADD SWAP1 PUSH1 0x20 ADD DUP1 DUP4 GT PUSH2 0x536 JUMPI DUP3 SWAP1 SUB PUSH1 0x1F AND DUP3 ADD SWAP2 JUMPDEST POP POP POP POP POP SWAP1 DUP1 PUSH1 0x1 ADD SLOAD SWAP1 DUP1 PUSH1 0x2 ADD PUSH0 SWAP1 SLOAD SWAP1 PUSH2 0x100 EXP SWAP1 DIV PUSH20 0xFFFFFFFFFFFFFFFFFFFFFFFFFFFFFFFFFFFFFFFF AND SWAP1 DUP1 PUSH1 0x2 ADD PUSH1 0x14 SWAP1 SLOAD SWAP1 PUSH2 0x100 EXP SWAP1 DIV PUSH1 0xFF AND SWAP1 DUP1 PUSH1 0x3 ADD SLOAD SWAP1 POP DUP6 JUMP JUMPDEST PUSH1 0x1 PUSH0 SWAP1 SLOAD SWAP1 PUSH2 0x100 EXP SWAP1 DIV PUSH20 0xFFFFFFFFFFFFFFFFFFFFFFFFFFFFFFFFFFFFFFFF AND PUSH20 0xFFFFFFFFFFFFFFFFFFFFFFFFFFFFFFFFFFFFFFFF AND CALLER PUSH20 0xFFFFFFFFFFFFFFFFFFFFFFFFFFFFFFFFFFFFFFFF AND EQ PUSH2 0x5F9 JUMPI PUSH0 DUP1 REVERT JUMPDEST PUSH0 DUP1 PUSH1 0x1 DUP2 PUSH1 0x1 DUP2 SLOAD ADD DUP1 DUP3 SSTORE DUP1 SWAP2 POP POP SUB SWAP1 PUSH0 MSTORE PUSH1 0x20 PUSH0 KECCAK256 SWAP1 PUSH1 0x5 MUL ADD SWAP1 POP DUP4 DUP2 PUSH0 ADD SWAP1 DUP2 PUSH2 0x629 SWAP2 SWAP1 PUSH2 0xFD2 JUMP JUMPDEST POP DUP3 DUP2 PUSH1 0x1 ADD DUP2 SWAP1 SSTORE POP DUP2 DUP2 PUSH1 0x2 ADD PUSH0 PUSH2 0x100 EXP DUP2 SLOAD DUP2 PUSH20 0xFFFFFFFFFFFFFFFFFFFFFFFFFFFFFFFFFFFFFFFF MUL NOT AND SWAP1 DUP4 PUSH20 0xFFFFFFFFFFFFFFFFFFFFFFFFFFFFFFFFFFFFFFFF AND MUL OR SWAP1 SSTORE POP PUSH0 DUP2 PUSH1 0x2 ADD PUSH1 0x14 PUSH2 0x100 EXP DUP2 SLOAD DUP2 PUSH1 0xFF MUL NOT AND SWAP1 DUP4 ISZERO ISZERO MUL OR SWAP1 SSTORE POP PUSH0 DUP2 PUSH1 0x3 ADD DUP2 SWAP1 SSTORE POP POP POP POP POP JUMP JUMPDEST PUSH1 0x2 SLOAD DUP2 JUMP JUMPDEST PUSH1 0x2 SLOAD CALLVALUE GT PUSH2 0x6B3 JUMPI PUSH0 DUP1 REVERT JUMPDEST PUSH1 0x1 PUSH1 0x3 PUSH0 CALLER PUSH20 0xFFFFFFFFFFFFFFFFFFFFFFFFFFFFFFFFFFFFFFFF AND PUSH20 0xFFFFFFFFFFFFFFFFFFFFFFFFFFFFFFFFFFFFFFFF AND DUP2 MSTORE PUSH1 0x20 ADD SWAP1 DUP2 MSTORE PUSH1 0x20 ADD PUSH0 KECCAK256 PUSH0 PUSH2 0x100 EXP DUP2 SLOAD DUP2 PUSH1 0xFF MUL NOT AND SWAP1 DUP4 ISZERO ISZERO MUL OR SWAP1 SSTORE POP PUSH1 0x4 PUSH0 DUP2 SLOAD DUP1 SWAP3 SWAP2 SWAP1 PUSH2 0x71A SWAP1 PUSH2 0x10A1 JUMP JUMPDEST SWAP2 SWAP1 POP SSTORE POP JUMP JUMPDEST PUSH1 0x3 PUSH0 CALLER PUSH20 0xFFFFFFFFFFFFFFFFFFFFFFFFFFFFFFFFFFFFFFFF AND PUSH20 0xFFFFFFFFFFFFFFFFFFFFFFFFFFFFFFFFFFFFFFFF AND DUP2 MSTORE PUSH1 0x20 ADD SWAP1 DUP2 MSTORE PUSH1 0x20 ADD PUSH0 KECCAK256 PUSH0 SWAP1 SLOAD SWAP1 PUSH2 0x100 EXP SWAP1 DIV PUSH1 0xFF AND PUSH2 0x773 JUMPI PUSH0 DUP1 REVERT JUMPDEST PUSH0 DUP2 DUP2 SLOAD DUP2 LT PUSH2 0x786 JUMPI PUSH2 0x785 PUSH2 0xD21 JUMP JUMPDEST JUMPDEST SWAP1 PUSH0 MSTORE PUSH1 0x20 PUSH0 KECCAK256 SWAP1 PUSH1 0x5 MUL ADD PUSH1 0x4 ADD PUSH0 CALLER PUSH20 0xFFFFFFFFFFFFFFFFFFFFFFFFFFFFFFFFFFFFFFFF AND PUSH20 0xFFFFFFFFFFFFFFFFFFFFFFFFFFFFFFFFFFFFFFFF AND DUP2 MSTORE PUSH1 0x20 ADD SWAP1 DUP2 MSTORE PUSH1 0x20 ADD PUSH0 KECCAK256 PUSH0 SWAP1 SLOAD SWAP1 PUSH2 0x100 EXP SWAP1 DIV PUSH1 0xFF AND ISZERO PUSH2 0x7E6 JUMPI PUSH0 DUP1 REVERT JUMPDEST PUSH1 0x1 PUSH0 DUP3 DUP2 SLOAD DUP2 LT PUSH2 0x7FB JUMPI PUSH2 0x7FA PUSH2 0xD21 JUMP JUMPDEST JUMPDEST SWAP1 PUSH0 MSTORE PUSH1 0x20 PUSH0 KECCAK256 SWAP1 PUSH1 0x5 MUL ADD PUSH1 0x4 ADD PUSH0 CALLER PUSH20 0xFFFFFFFFFFFFFFFFFFFFFFFFFFFFFFFFFFFFFFFF AND PUSH20 0xFFFFFFFFFFFFFFFFFFFFFFFFFFFFFFFFFFFFFFFF AND DUP2 MSTORE PUSH1 0x20 ADD SWAP1 DUP2 MSTORE PUSH1 0x20 ADD PUSH0 KECCAK256 PUSH0 PUSH2 0x100 EXP DUP2 SLOAD DUP2 PUSH1 0xFF MUL NOT AND SWAP1 DUP4 ISZERO ISZERO MUL OR SWAP1 SSTORE POP PUSH0 DUP2 DUP2 SLOAD DUP2 LT PUSH2 0x86E JUMPI PUSH2 0x86D PUSH2 0xD21 JUMP JUMPDEST JUMPDEST SWAP1 PUSH0 MSTORE PUSH1 0x20 PUSH0 KECCAK256 SWAP1 PUSH1 0x5 MUL ADD PUSH1 0x3 ADD PUSH0 DUP2 SLOAD DUP1 SWAP3 SWAP2 SWAP1 PUSH2 0x88D SWAP1 PUSH2 0x10A1 JUMP JUMPDEST SWAP2 SWAP1 POP SSTORE POP POP JUMP JUMPDEST PUSH0 PUSH1 0x40 MLOAD SWAP1 POP SWAP1 JUMP JUMPDEST PUSH0 DUP1 REVERT JUMPDEST PUSH0 DUP1 REVERT JUMPDEST PUSH0 DUP2 SWAP1 POP SWAP2 SWAP1 POP JUMP JUMPDEST PUSH2 0x8B8 DUP2 PUSH2 0x8A6 JUMP JUMPDEST DUP2 EQ PUSH2 0x8C2 JUMPI PUSH0 DUP1 REVERT JUMPDEST POP JUMP JUMPDEST PUSH0 DUP2 CALLDATALOAD SWAP1 POP PUSH2 0x8D3 DUP2 PUSH2 0x8AF JUMP JUMPDEST SWAP3 SWAP2 POP POP JUMP JUMPDEST PUSH0 PUSH1 0x20 DUP3 DUP5 SUB SLT ISZERO PUSH2 0x8EE JUMPI PUSH2 0x8ED PUSH2 0x89E JUMP JUMPDEST JUMPDEST PUSH0 PUSH2 0x8FB DUP5 DUP3 DUP6 ADD PUSH2 0x8C5 JUMP JUMPDEST SWAP2 POP POP SWAP3 SWAP2 POP POP JUMP JUMPDEST PUSH0 PUSH20 0xFFFFFFFFFFFFFFFFFFFFFFFFFFFFFFFFFFFFFFFF DUP3 AND SWAP1 POP SWAP2 SWAP1 POP JUMP JUMPDEST PUSH0 PUSH2 0x92D DUP3 PUSH2 0x904 JUMP JUMPDEST SWAP1 POP SWAP2 SWAP1 POP JUMP JUMPDEST PUSH2 0x93D DUP2 PUSH2 0x923 JUMP JUMPDEST DUP2 EQ PUSH2 0x947 JUMPI PUSH0 DUP1 REVERT JUMPDEST POP JUMP JUMPDEST PUSH0 DUP2 CALLDATALOAD SWAP1 POP PUSH2 0x958 DUP2 PUSH2 0x934 JUMP JUMPDEST SWAP3 SWAP2 POP POP JUMP JUMPDEST PUSH0 PUSH1 0x20 DUP3 DUP5 SUB SLT ISZERO PUSH2 0x973 JUMPI PUSH2 0x972 PUSH2 0x89E JUMP JUMPDEST JUMPDEST PUSH0 PUSH2 0x980 DUP5 DUP3 DUP6 ADD PUSH2 0x94A JUMP JUMPDEST SWAP2 POP POP SWAP3 SWAP2 POP POP JUMP JUMPDEST PUSH0 DUP2 ISZERO ISZERO SWAP1 POP SWAP2 SWAP1 POP JUMP JUMPDEST PUSH2 0x99D DUP2 PUSH2 0x989 JUMP JUMPDEST DUP3 MSTORE POP POP JUMP JUMPDEST PUSH0 PUSH1 0x20 DUP3 ADD SWAP1 POP PUSH2 0x9B6 PUSH0 DUP4 ADD DUP5 PUSH2 0x994 JUMP JUMPDEST SWAP3 SWAP2 POP POP JUMP JUMPDEST PUSH2 0x9C5 DUP2 PUSH2 0x8A6 JUMP JUMPDEST DUP3 MSTORE POP POP JUMP JUMPDEST PUSH0 PUSH1 0x20 DUP3 ADD SWAP1 POP PUSH2 0x9DE PUSH0 DUP4 ADD DUP5 PUSH2 0x9BC JUMP JUMPDEST SWAP3 SWAP2 POP POP JUMP JUMPDEST PUSH2 0x9ED DUP2 PUSH2 0x923 JUMP JUMPDEST DUP3 MSTORE POP POP JUMP JUMPDEST PUSH0 PUSH1 0xA0 DUP3 ADD SWAP1 POP PUSH2 0xA06 PUSH0 DUP4 ADD DUP9 PUSH2 0x9BC JUMP JUMPDEST PUSH2 0xA13 PUSH1 0x20 DUP4 ADD DUP8 PUSH2 0x9BC JUMP JUMPDEST PUSH2 0xA20 PUSH1 0x40 DUP4 ADD DUP7 PUSH2 0x9BC JUMP JUMPDEST PUSH2 0xA2D PUSH1 0x60 DUP4 ADD DUP6 PUSH2 0x9BC JUMP JUMPDEST PUSH2 0xA3A PUSH1 0x80 DUP4 ADD DUP5 PUSH2 0x9E4 JUMP JUMPDEST SWAP7 SWAP6 POP POP POP POP POP POP JUMP JUMPDEST PUSH0 PUSH1 0x20 DUP3 ADD SWAP1 POP PUSH2 0xA57 PUSH0 DUP4 ADD DUP5 PUSH2 0x9E4 JUMP JUMPDEST SWAP3 SWAP2 POP POP JUMP JUMPDEST PUSH0 DUP2 MLOAD SWAP1 POP SWAP2 SWAP1 POP JUMP JUMPDEST PUSH0 DUP3 DUP3 MSTORE PUSH1 0x20 DUP3 ADD SWAP1 POP SWAP3 SWAP2 POP POP JUMP JUMPDEST PUSH0 JUMPDEST DUP4 DUP2 LT ISZERO PUSH2 0xA94 JUMPI DUP1 DUP3 ADD MLOAD DUP2 DUP5 ADD MSTORE PUSH1 0x20 DUP2 ADD SWAP1 POP PUSH2 0xA79 JUMP JUMPDEST PUSH0 DUP5 DUP5 ADD MSTORE POP POP POP POP JUMP JUMPDEST PUSH0 PUSH1 0x1F NOT PUSH1 0x1F DUP4 ADD AND SWAP1 POP SWAP2 SWAP1 POP JUMP JUMPDEST PUSH0 PUSH2 0xAB9 DUP3 PUSH2 0xA5D JUMP JUMPDEST PUSH2 0xAC3 DUP2 DUP6 PUSH2 0xA67 JUMP JUMPDEST SWAP4 POP PUSH2 0xAD3 DUP2 DUP6 PUSH1 0x20 DUP7 ADD PUSH2 0xA77 JUMP JUMPDEST PUSH2 0xADC DUP2 PUSH2 0xA9F JUMP JUMPDEST DUP5 ADD SWAP2 POP POP SWAP3 SWAP2 POP POP JUMP JUMPDEST PUSH0 PUSH2 0xAF1 DUP3 PUSH2 0x904 JUMP JUMPDEST SWAP1 POP SWAP2 SWAP1 POP JUMP JUMPDEST PUSH2 0xB01 DUP2 PUSH2 0xAE7 JUMP JUMPDEST DUP3 MSTORE POP POP JUMP JUMPDEST PUSH0 PUSH1 0xA0 DUP3 ADD SWAP1 POP DUP2 DUP2 SUB PUSH0 DUP4 ADD MSTORE PUSH2 0xB1F DUP2 DUP9 PUSH2 0xAAF JUMP JUMPDEST SWAP1 POP PUSH2 0xB2E PUSH1 0x20 DUP4 ADD DUP8 PUSH2 0x9BC JUMP JUMPDEST PUSH2 0xB3B PUSH1 0x40 DUP4 ADD DUP7 PUSH2 0xAF8 JUMP JUMPDEST PUSH2 0xB48 PUSH1 0x60 DUP4 ADD DUP6 PUSH2 0x994 JUMP JUMPDEST PUSH2 0xB55 PUSH1 0x80 DUP4 ADD DUP5 PUSH2 0x9BC JUMP JUMPDEST SWAP7 SWAP6 POP POP POP POP POP POP JUMP JUMPDEST PUSH0 DUP1 REVERT JUMPDEST PUSH0 DUP1 REVERT JUMPDEST PUSH32 0x4E487B7100000000000000000000000000000000000000000000000000000000 PUSH0 MSTORE PUSH1 0x41 PUSH1 0x4 MSTORE PUSH1 0x24 PUSH0 REVERT JUMPDEST PUSH2 0xB9D DUP3 PUSH2 0xA9F JUMP JUMPDEST DUP2 ADD DUP2 DUP2 LT PUSH8 0xFFFFFFFFFFFFFFFF DUP3 GT OR ISZERO PUSH2 0xBBC JUMPI PUSH2 0xBBB PUSH2 0xB67 JUMP JUMPDEST JUMPDEST DUP1 PUSH1 0x40 MSTORE POP POP POP JUMP JUMPDEST PUSH0 PUSH2 0xBCE PUSH2 0x895 JUMP JUMPDEST SWAP1 POP PUSH2 0xBDA DUP3 DUP3 PUSH2 0xB94 JUMP JUMPDEST SWAP2 SWAP1 POP JUMP JUMPDEST PUSH0 PUSH8 0xFFFFFFFFFFFFFFFF DUP3 GT ISZERO PUSH2 0xBF9 JUMPI PUSH2 0xBF8 PUSH2 0xB67 JUMP JUMPDEST JUMPDEST PUSH2 0xC02 DUP3 PUSH2 0xA9F JUMP JUMPDEST SWAP1 POP PUSH1 0x20 DUP2 ADD SWAP1 POP SWAP2 SWAP1 POP JUMP JUMPDEST DUP3 DUP2 DUP4 CALLDATACOPY PUSH0 DUP4 DUP4 ADD MSTORE POP POP POP JUMP JUMPDEST PUSH0 PUSH2 0xC2F PUSH2 0xC2A DUP5 PUSH2 0xBDF JUMP JUMPDEST PUSH2 0xBC5 JUMP JUMPDEST SWAP1 POP DUP3 DUP2 MSTORE PUSH1 0x20 DUP2 ADD DUP5 DUP5 DUP5 ADD GT ISZERO PUSH2 0xC4B JUMPI PUSH2 0xC4A PUSH2 0xB63 JUMP JUMPDEST JUMPDEST PUSH2 0xC56 DUP5 DUP3 DUP6 PUSH2 0xC0F JUMP JUMPDEST POP SWAP4 SWAP3 POP POP POP JUMP JUMPDEST PUSH0 DUP3 PUSH1 0x1F DUP4 ADD SLT PUSH2 0xC72 JUMPI PUSH2 0xC71 PUSH2 0xB5F JUMP JUMPDEST JUMPDEST DUP2 CALLDATALOAD PUSH2 0xC82 DUP5 DUP3 PUSH1 0x20 DUP7 ADD PUSH2 0xC1D JUMP JUMPDEST SWAP2 POP POP SWAP3 SWAP2 POP POP JUMP JUMPDEST PUSH2 0xC94 DUP2 PUSH2 0xAE7 JUMP JUMPDEST DUP2 EQ PUSH2 0xC9E JUMPI PUSH0 DUP1 REVERT JUMPDEST POP JUMP JUMPDEST PUSH0 DUP2 CALLDATALOAD SWAP1 POP PUSH2 0xCAF DUP2 PUSH2 0xC8B JUMP JUMPDEST SWAP3 SWAP2 POP POP JUMP JUMPDEST PUSH0 DUP1 PUSH0 PUSH1 0x60 DUP5 DUP7 SUB SLT ISZERO PUSH2 0xCCC JUMPI PUSH2 0xCCB PUSH2 0x89E JUMP JUMPDEST JUMPDEST PUSH0 DUP5 ADD CALLDATALOAD PUSH8 0xFFFFFFFFFFFFFFFF DUP2 GT ISZERO PUSH2 0xCE9 JUMPI PUSH2 0xCE8 PUSH2 0x8A2 JUMP JUMPDEST JUMPDEST PUSH2 0xCF5 DUP7 DUP3 DUP8 ADD PUSH2 0xC5E JUMP JUMPDEST SWAP4 POP POP PUSH1 0x20 PUSH2 0xD06 DUP7 DUP3 DUP8 ADD PUSH2 0x8C5 JUMP JUMPDEST SWAP3 POP POP PUSH1 0x40 PUSH2 0xD17 DUP7 DUP3 DUP8 ADD PUSH2 0xCA1 JUMP JUMPDEST SWAP2 POP POP SWAP3 POP SWAP3 POP SWAP3 JUMP JUMPDEST PUSH32 0x4E487B7100000000000000000000000000000000000000000000000000000000 PUSH0 MSTORE PUSH1 0x32 PUSH1 0x4 MSTORE PUSH1 0x24 PUSH0 REVERT JUMPDEST PUSH32 0x4E487B7100000000000000000000000000000000000000000000000000000000 PUSH0 MSTORE PUSH1 0x12 PUSH1 0x4 MSTORE PUSH1 0x24 PUSH0 REVERT JUMPDEST PUSH32 0x4E487B7100000000000000000000000000000000000000000000000000000000 PUSH0 MSTORE PUSH1 0x11 PUSH1 0x4 MSTORE PUSH1 0x24 PUSH0 REVERT JUMPDEST PUSH0 PUSH2 0xDB2 DUP3 PUSH2 0x8A6 JUMP JUMPDEST SWAP2 POP PUSH2 0xDBD DUP4 PUSH2 0x8A6 JUMP JUMPDEST SWAP3 POP DUP3 PUSH2 0xDCD JUMPI PUSH2 0xDCC PUSH2 0xD4E JUMP JUMPDEST JUMPDEST DUP3 DUP3 DIV SWAP1 POP SWAP3 SWAP2 POP POP JUMP JUMPDEST PUSH32 0x4E487B7100000000000000000000000000000000000000000000000000000000 PUSH0 MSTORE PUSH1 0x22 PUSH1 0x4 MSTORE PUSH1 0x24 PUSH0 REVERT JUMPDEST PUSH0 PUSH1 0x2 DUP3 DIV SWAP1 POP PUSH1 0x1 DUP3 AND DUP1 PUSH2 0xE1C JUMPI PUSH1 0x7F DUP3 AND SWAP2 POP JUMPDEST PUSH1 0x20 DUP3 LT DUP2 SUB PUSH2 0xE2F JUMPI PUSH2 0xE2E PUSH2 0xDD8 JUMP JUMPDEST JUMPDEST POP SWAP2 SWAP1 POP JUMP JUMPDEST PUSH0 DUP2 SWAP1 POP DUP2 PUSH0 MSTORE PUSH1 0x20 PUSH0 KECCAK256 SWAP1 POP SWAP2 SWAP1 POP JUMP JUMPDEST PUSH0 PUSH1 0x20 PUSH1 0x1F DUP4 ADD DIV SWAP1 POP SWAP2 SWAP1 POP JUMP JUMPDEST PUSH0 DUP3 DUP3 SHL SWAP1 POP SWAP3 SWAP2 POP POP JUMP JUMPDEST PUSH0 PUSH1 0x8 DUP4 MUL PUSH2 0xE91 PUSH32 0xFFFFFFFFFFFFFFFFFFFFFFFFFFFFFFFFFFFFFFFFFFFFFFFFFFFFFFFFFFFFFFFF DUP3 PUSH2 0xE56 JUMP JUMPDEST PUSH2 0xE9B DUP7 DUP4 PUSH2 0xE56 JUMP JUMPDEST SWAP6 POP DUP1 NOT DUP5 AND SWAP4 POP DUP1 DUP7 AND DUP5 OR SWAP3 POP POP POP SWAP4 SWAP3 POP POP POP JUMP JUMPDEST PUSH0 DUP2 SWAP1 POP SWAP2 SWAP1 POP JUMP JUMPDEST PUSH0 PUSH2 0xED6 PUSH2 0xED1 PUSH2 0xECC DUP5 PUSH2 0x8A6 JUMP JUMPDEST PUSH2 0xEB3 JUMP JUMPDEST PUSH2 0x8A6 JUMP JUMPDEST SWAP1 POP SWAP2 SWAP1 POP JUMP JUMPDEST PUSH0 DUP2 SWAP1 POP SWAP2 SWAP1 POP JUMP JUMPDEST PUSH2 0xEEF DUP4 PUSH2 0xEBC JUMP JUMPDEST PUSH2 0xF03 PUSH2 0xEFB DUP3 PUSH2 0xEDD JUMP JUMPDEST DUP5 DUP5 SLOAD PUSH2 0xE62 JUMP JUMPDEST DUP3 SSTORE POP POP POP POP JUMP JUMPDEST PUSH0 SWAP1 JUMP JUMPDEST PUSH2 0xF17 PUSH2 0xF0B JUMP JUMPDEST PUSH2 0xF22 DUP2 DUP5 DUP5 PUSH2 0xEE6 JUMP JUMPDEST POP POP POP JUMP JUMPDEST JUMPDEST DUP2 DUP2 LT ISZERO PUSH2 0xF45 JUMPI PUSH2 0xF3A PUSH0 DUP3 PUSH2 0xF0F JUMP JUMPDEST PUSH1 0x1 DUP2 ADD SWAP1 POP PUSH2 0xF28 JUMP JUMPDEST POP POP JUMP JUMPDEST PUSH1 0x1F DUP3 GT ISZERO PUSH2 0xF8A JUMPI PUSH2 0xF5B DUP2 PUSH2 0xE35 JUMP JUMPDEST PUSH2 0xF64 DUP5 PUSH2 0xE47 JUMP JUMPDEST DUP2 ADD PUSH1 0x20 DUP6 LT ISZERO PUSH2 0xF73 JUMPI DUP2 SWAP1 POP JUMPDEST PUSH2 0xF87 PUSH2 0xF7F DUP6 PUSH2 0xE47 JUMP JUMPDEST DUP4 ADD DUP3 PUSH2 0xF27 JUMP JUMPDEST POP POP JUMPDEST POP POP POP JUMP JUMPDEST PUSH0 DUP3 DUP3 SHR SWAP1 POP SWAP3 SWAP2 POP POP JUMP JUMPDEST PUSH0 PUSH2 0xFAA PUSH0 NOT DUP5 PUSH1 0x8 MUL PUSH2 0xF8F JUMP JUMPDEST NOT DUP1 DUP4 AND SWAP2 POP POP SWAP3 SWAP2 POP POP JUMP JUMPDEST PUSH0 PUSH2 0xFC2 DUP4 DUP4 PUSH2 0xF9B JUMP JUMPDEST SWAP2 POP DUP3 PUSH1 0x2 MUL DUP3 OR SWAP1 POP SWAP3 SWAP2 POP POP JUMP JUMPDEST PUSH2 0xFDB DUP3 PUSH2 0xA5D JUMP JUMPDEST PUSH8 0xFFFFFFFFFFFFFFFF DUP2 GT ISZERO PUSH2 0xFF4 JUMPI PUSH2 0xFF3 PUSH2 0xB67 JUMP JUMPDEST JUMPDEST PUSH2 0xFFE DUP3 SLOAD PUSH2 0xE05 JUMP JUMPDEST PUSH2 0x1009 DUP3 DUP3 DUP6 PUSH2 0xF49 JUMP JUMPDEST PUSH0 PUSH1 0x20 SWAP1 POP PUSH1 0x1F DUP4 GT PUSH1 0x1 DUP2 EQ PUSH2 0x103A JUMPI PUSH0 DUP5 ISZERO PUSH2 0x1028 JUMPI DUP3 DUP8 ADD MLOAD SWAP1 POP JUMPDEST PUSH2 0x1032 DUP6 DUP3 PUSH2 0xFB7 JUMP JUMPDEST DUP7 SSTORE POP PUSH2 0x1099 JUMP JUMPDEST PUSH1 0x1F NOT DUP5 AND PUSH2 0x1048 DUP7 PUSH2 0xE35 JUMP JUMPDEST PUSH0 JUMPDEST DUP3 DUP2 LT ISZERO PUSH2 0x106F JUMPI DUP5 DUP10 ADD MLOAD DUP3 SSTORE PUSH1 0x1 DUP3 ADD SWAP2 POP PUSH1 0x20 DUP6 ADD SWAP5 POP PUSH1 0x20 DUP2 ADD SWAP1 POP PUSH2 0x104A JUMP JUMPDEST DUP7 DUP4 LT ISZERO PUSH2 0x108C JUMPI DUP5 DUP10 ADD MLOAD PUSH2 0x1088 PUSH1 0x1F DUP10 AND DUP3 PUSH2 0xF9B JUMP JUMPDEST DUP4 SSTORE POP JUMPDEST PUSH1 0x1 PUSH1 0x2 DUP9 MUL ADD DUP9 SSTORE POP POP POP JUMPDEST POP POP POP POP POP POP JUMP JUMPDEST PUSH0 PUSH2 0x10AB DUP3 PUSH2 0x8A6 JUMP JUMPDEST SWAP2 POP PUSH32 0xFFFFFFFFFFFFFFFFFFFFFFFFFFFFFFFFFFFFFFFFFFFFFFFFFFFFFFFFFFFFFFFF DUP3 SUB PUSH2 0x10DD JUMPI PUSH2 0x10DC PUSH2 0xD7B JUMP JUMPDEST JUMPDEST PUSH1 0x1 DUP3 ADD SWAP1 POP SWAP2 SWAP1 POP JUMP INVALID LOG2 PUSH5 0x6970667358 0x22 SLT KECCAK256 0xE7 0xE9 0xDD PUSH16 0xD02EBD652FFB33B87729C7F13F8D8AFB 0xC5 0xA7 0xD6 GAS 0xE6 DUP1 DUP9 0xE8 COINBASE JUMPDEST PUSH24 0xAA64736F6C63430008150033A26469706673582212200487 MLOAD DUP6 DUP2 DUP12 SAR PREVRANDAO PUSH14 0xEB981794FC391DC378BFD3375693 0xCA OR 0xB3 MSTORE 0xE6 0x4E 0xAC 0xD 0xD6 PUSH5 0x736F6C6343 STOP ADDMOD ISZERO STOP CALLER "},"gasEstimates":{"creation":{"codeDepositCost":"1179800","executionCost":"1225","totalCost":"1181025"},"external":{"createCampaign(uint256,address)":"infinite","deployedCampaigns(uint256)":"4943","getDeployedCampaigns()":"infinite"}},"methodIdentifiers":{"createCampaign(uint256,address)":"32ba9cce","deployedCampaigns(uint256)":"339d50a5","getDeployedCampaigns()":"4acb9d4f"}},"storageLayout":{"storage":[{"astId":4,"contract":"Campaign.sol:CampaignFactory","label":"deployedCampaigns","offset":0,"slot":"0","type":"t_array(t_address)dyn_storage"}],"types":{"t_address":{"encoding":"inplace","label":"address","numberOfBytes":"20"},"t_array(t_address)dyn_storage":{"base":"t_address","encoding":"dynamic_array","label":"address[]","numberOfBytes":"32"}}},"userdoc":{"kind":"user","methods":{},"version":1}}